:020000040800F2
:10000000580B00209D010008A5010008A701000869
:10001000A9010008AB010008AD01000800000000C4
:10002000000000000000000000000000AF01000818
:10003000B101000800000000B3010008B50100088C
:10004000B7010008B7010008B7010008B7010008B0
:10005000B7010008B7010008490C0008010D0008AD
:10006000190D0008310D0008490D0008B7010008FE
:10007000B7010008B7010008B7010008B701000880
:10008000B7010008B7010008B7010008B701000870
:10009000B7010008B7010008B7010008610D0008AA
:1000A000B7010008B7010008B7010008B701000850
:1000B000B7010008B7010008B7010008B701000840
:1000C000B7010008B7010008B7010008B701000830
:1000D000B7010008B70100089D180008B701000823
:1000E000610C0008B7010008B7010008B70100085B
:1000F000B7010008B7010008B7010008B701000800
:10010000B7010008B7010008B7010008B7010008EF
:10011000B7010008B7010008B7010008B7010008DF
:10012000B7010008B7010008B7010008B7010008CF
:10013000B7010008B7010008B7010008B7010008BF
:10014000B701000839160008B7010008B701000818
:10015000B7010008B7010008B7010008B70100089F
:10016000B7010008B7010008B7010008B70100088F
:10017000B7010008B7010008B7010008000000003F
:10018000B7010008B7010008DFF80CD000F0FAFA58
:100190000048004725490008580B002006488047C2
:1001A00006480047FEE7FEE7FEE7FEE7FEE7FEE75C
:1001B000FEE7FEE7FEE7FEE7891800088901000870
:1001C00040EA01039B0703D009E008C9121F08C0D9
:1001D000042AFAD203E011F8013B00F8013B521E59
:1001E000F9D27047D2B201E000F8012B491EFBD2D0
:1001F00070470022F6E710B513460A460446194632
:10020000FFF7F0FF204610BD30B505462A460B46E5
:1002100012F8010B13F8014B08B1A042F8D01CB141
:10022000002802D06D1CF1E7284630BD10B5044609
:1002300004E00B7800F8013B03B1491C521EF8D2D0
:10024000204610BD421C10F8011B0029FBD1801A6A
:10025000704730B504460020034600E05B1C934223
:1002600003D2E05CCD5C401BF8D030BD2DE9FE4FE1
:10027000804681EA0300C00F0C46009021F0004147
:1002800023F00045B8EB0200A94105D240462146C3
:1002900090461C460B46024623F00040104347D0D0
:1002A000270DC7F30A00C3F30A510290401A0190C8
:1002B00040286BDAC3F3130040F4801B0098924689
:1002C00020B10023D2EB030A63EB0B0B01985946D4
:1002D000C0F14002504600F0A6F906460D465046D1
:1002E0005946019A00F0AEF910EB08006141002474
:1002F00087EA115284EAE7731A4340D0009A62B346
:10030000019A012A4FEA075215DC001B61EB02013A
:100310004FF0004202EA0752CDE90042001C41F5CD
:10032000801132462B4600F0AEF903B000F045B81C
:1003300040462146F9E7001B61EB0201001C41F534
:10034000801300185B412018A2F5001747EB03014A
:1003500040EAD570B6196D4111E06D084FEA3606D6
:1003600045EAC0754FEA0752001B61EB0201001C11
:1003700041F5801149084FEA3000001951413246D9
:100380002B4603B000F01CB800F06EB900980122B3
:1003900040000023D0EB020263EBE073009821469B
:1003A0004FEAE074B8EB000061EB0401E9E783F089
:1003B00000435BE781F0004158E730BCBDE8C08FE7
:1003C00030BCBDE8C04FFFF7DFBF2DE9FE4F81EA2B
:1003D000030404F0004421F0004100944FF0000BAE
:1003E00023F0004350EA01045ED052EA03045BD0DC
:1003F000C3F30A54C1F30A552C44A4F2F334019414
:10040000A0FB0254C1F3130141F48011C3F31303A1
:1004100043F4801301FB024400FB034E840A970A55
:1004200044EA815447EA8357A4FB076802958D0A82
:1004300005FB07854FEA932C04FB0C542705029D0E
:100440004FEA065847EA1637B5EB08056EEB070C7E
:10045000870E920E47EA811742EA8312A7FB020138
:10046000B6EB0B0164EB00042B0D43EA0C335E1872
:1004700044EB1C50DA465146E7FB0201C5F3130476
:100480004FEA0B3343EA14534FEA0432019C43EA28
:100490000603A4F10C040294009CCDE900B400F022
:1004A000F2F803B000F003B800200146F9E730BCD1
:1004B000BDE8C08F2DE9F04D81EA030404F0004B44
:1004C00021F0004514464FF0000A23F0004150EAA5
:1004D000050220D054EA01021DD0C5F30A57024696
:1004E000C5F31303C1F31300C1F30A5640F480159A
:1004F00043F48013A7EB0608101BD64608F2FD381C
:1005000073EB050002D308F1010801E092185B418A
:10051000B8F1000F03DA00200146BDE8F08D00209D
:100520004FF48011064684460EE0171B73EB050757
:1005300005D3121B63EB050306434CEA010C490883
:100540004FEA300092185B4150EA0107EDD152EAC0
:10055000030012D082EA040083EA0501084305D0B3
:10056000101BAB4106D20122002306E000224FF00F
:10057000004302E06FF0010253101AEB06004CEB4F
:10058000085110EB0A0041EB0B01BDE8F04D00F003
:100590006BB830B50B46014600202022012409E04B
:1005A00021FA02F59D4205D303FA02F5491B04FA2C
:1005B00002F52844151EA2F10102F1DC30BD2DE93F
:1005C000F05F0546002092469B46884606468146D7
:1005D00040241BE0284641464746224600F0E4F806
:1005E00053465A46C01A914110D311461846224626
:1005F00000F019F82D1A67EB01084F46224601203A
:10060000002100F010F817EB00094E41201EA4F164
:100610000104DFDC484631462A46434600F000B874
:1006200030BCBDE8C09F202A04DB203A00FA02F16A
:10063000002070479140C2F1200320FA03F31943D0
:1006400090407047202A06DBCB17203A41FA02F08F
:1006500043EAE07306E041FA02F3D040C2F120021F
:10066000914008431946704710B5141E73F10004F9
:1006700008DA401C41F1000192185B411A4301D194
:1006800020F0010010BD2DE9F04D92469B4611B1BE
:10069000B1FA81F202E0B0FA80F220329046FFF720
:1006A000C2FF04460F4640EA0A0041EA0B015346E6
:1006B0005A46084313D0114653EA010019D0C8F135
:1006C0004002504600F070F805460E465046594626
:1006D0004246FFF7A8FF084305D0012004E020466A
:1006E0003946BDE8F08D0020054346EAE0762C430C
:1006F00037430A986305E40AA0EB08000022FD0ACC
:1007000044EA47540A3002D500200146E9E70105D2
:1007100010196941DDE9084500196941BDE8F04D4E
:10072000A2E7C1F30A52C1F3130140F2FF3341F4CF
:1007300080119A4202DA00200146704740F23343AA
:100740009A42A2F2334202DC524200F02DB8FFF787
:100750006ABF000030B5041E71F1000404DB4FF0E5
:100760000044404264EB0101141E73F1000405DBF8
:100770001C464FF00043524263EB0403994208BF0A
:10078000904230BD064C074D06E0E06840F00103A2
:1007900094E8070098471034AC42F6D3FFF7F8FC12
:1007A00080710008A0710008202A04DB203A21FA99
:1007B00002F00021704721FA02F3D040C2F120027A
:1007C000914008431946704770B504460D4600BF76
:1007D0002AA002F049FF2BA002F046FFE28A294638
:1007E0002AA002F041FF37A002F03EFF00BFA08A1E
:1007F000E18A401AA84215DA00BF34A002F034FFA3
:1008000034A002F031FFA08AE18A421A2946334817
:1008100002F02AFF2BA002F027FF00BFA08AE18A86
:10082000401A85B200BF15A002F01EFF15A002F00D
:100830001BFFE18A2A462AA0A36902F015FF21A026
:1008400002F012FF00BFE38AE269D0182A46A169CC
:10085000FFF7B6FCE08A2844E08200BF07A002F060
:1008600003FF08A002F000FFE18A2AA0E26902F07B
:10087000FBFE14A002F0F8FE00BF70BD1B5B303B16
:1008800033326D00494E464F3A2000004154435FD9
:1008900049646C654C696E6543616C6C6261636B45
:1008A0002063616C6C65642077697468204C656EA8
:1008B0003A2025642C205278496E6465783A2025C8
:1008C000640A00001B5B306D000000001B5B303BC6
:1008D00033336D005741524E3A2000002871000812
:1008E000436F7079696E67206461746120746F2052
:1008F00070526561644275666620617420696E6439
:1009000065782025642E20446174613A20252E2AC2
:10091000730A000055706461746564205278496EF2
:100920006465783A2025642E2043757272656E7472
:100930002062756666657220636F6E74656E743AC8
:100940002025730A000000002DE9F04104460E4600
:1009500015461F4604B186B900BF2CA002F084FEE4
:100960002CA002F081FE2DA002F07EFE35A002F048
:100970007BFE00BF0020BDE8F08120212046FFF76C
:1009800038FC266007223946201DFFF74FFC284619
:1009900004F02EF9A061284604F02AF9E061A0696C
:1009A00008B1E069A8B900BF18A002F05DFE19A067
:1009B00002F05AFE25A002F057FE22A002F054FEDB
:1009C00000BFA06902F00EFEE06902F00BFE0020FD
:1009D000D1E72946A069FFF70CFC2946E069FFF73B
:1009E00008FCA58200202061E06000BF22A002F088
:1009F0003BFE23A002F038FE394623A002F034FE6D
:100A000010A002F031FE00BF0120B4E71B5B303BB9
:100A100033316D004552524F523A20004154435FEA
:100A2000496E6974206661696C65643A20696E7606
:100A3000616C696420706172616D65746572732E9A
:100A40000A0000001B5B306D000000004154435F52
:100A5000496E6974206661696C65643A206D656DE4
:100A60006F727920616C6C6F636174696F6E206660
:100A700061696C65642E0A001B5B303B33326D008C
:100A8000494E464F3A20000041544320696E697434
:100A900069616C697A6564206F6E2025730A0000B5
:100AA00070B50446E08A002850DD002545E000BF0F
:100AB00027A002F0D9FD28A002F0D6FDE06850F88A
:100AC000351027A002F0D0FD2BA002F0CDFD00BF15
:100AD00000BF1FA002F0C8FD1FA002F0C5FD28A0A6
:100AE000E16902F0C1FD24A002F0BEFD00BFE26892
:100AF00052F83510E069FFF787FB0646002E1BD041
:100B0000E06800EBC5004068B0B100BF10A002F083
:100B1000ABFD11A002F0A8FDE06850F835101DA053
:100B200002F0A2FD14A002F09FFD00BFE06800EB00
:100B3000C5004168304688476D1C2069A842B6D878
:100B40000020E082A18AE069FFF753FB70BD00003E
:100B50001B5B303B33326D00494E464F3A2000005C
:100B6000436865636B696E6720666F7220657665A2
:100B70006E743A2025730A001B5B306D0000000084
:100B8000526563656976656420646174613A202505
:100B9000730A00004576656E742027257327206D43
:100BA0006174636865642E20547269676765726951
:100BB0006E672063616C6C6261636B2E0A000000DB
:100BC00070B506460D4606B10DB9002070BD002473
:100BD00000E0641C55F8340020B105EBC400406807
:100BE0000028F6D1F560346100BF08A002F03CFD9A
:100BF00008A002F039FD214608A002F035FD10A042
:100C000002F032FD00BF0120E0E700001B5B303B3B
:100C100033326D00494E464F3A2000004154432084
:100C20006576656E747320636F6E6669677572654D
:100C3000642E20546F74616C3A2025640A00000011
:100C40001B5B306D0000000010B5012000F00AFAB7
:100C500028B1012000F0E8F8012004F0A5FF10BD44
:100C600010B54FF4806000F0FDF938B14FF48060AA
:100C700000F0DAF84FF4806004F096FF4FF4006063
:100C800000F0F0F938B14FF4006000F0CDF84FF407
:100C9000006004F089FF4FF4805000F0E3F938B1B0
:100CA0004FF4805000F0C0F84FF4805004F07CFF07
:100CB0004FF4005000F0D6F938B14FF4005000F076
:100CC000B3F84FF4005004F06FFF4FF4804000F091
:100CD000C9F938B14FF4804000F0A6F84FF48040D5
:100CE00004F062FF4FF4004000F0BCF938B14FF45B
:100CF000004000F099F84FF4004004F055FF10BD9B
:100D000010B5022000F0AEF928B1022000F08CF8F6
:100D1000022004F049FF10BD10B5042000F0A2F934
:100D200028B1042000F080F8042004F03DFF10BD3D
:100D300010B5082000F096F928B1082000F074F8EA
:100D4000082004F031FF10BD10B5102000F08AF922
:100D500028B1102000F068F8102004F025FF10BD25
:100D600010B5202000F07EF928B1202000F05CF8BA
:100D7000202004F019FF402000F074F928B1402031
:100D800000F052F8402004F00FFF802000F06AF9D4
:100D900028B1802000F048F8802004F005FF4FF4CF
:100DA000807000F05FF938B14FF4807000F03CF8CB
:100DB0004FF4807004F0F8FE4FF4007000F052F928
:100DC00038B14FF4007000F02FF84FF4007004F0C9
:100DD000EBFE10BD08B50549C96C0143034AD16457
:100DE0001146C96C0140009100BF08BD00100240CF
:100DF00008B50549C96C0143034AD1641146C96C61
:100E00000140009100BF08BD0010024008B505492F
:100E1000C96C0143034AD1641146C96C0140009179
:100E200000BF08BD00100240014908607047000083
:100E300014040140024909688143014A1160704766
:100E400004040140024909688143014A1160704766
:100E500024040140024909688143014A1160704736
:100E600000040140024909688143014A116070474A
:100E700020040140024909680143014A116070479A
:100E800004040140024909680143014A11607047A6
:100E900024040140024909680143014A1160704776
:100EA0000C040140024909680143014A116070477E
:100EB0002C040140024909680143014A116070474E
:100EC00000040140024909680143014A116070476A
:100ED00020040140024909680143014A116070473A
:100EE00008040140024909680143014A1160704742
:100EF0002804014070B504460025207A00287BD0E4
:100F0000206800284BD0607A20B1012809D002283F
:100F100015D10DE02068FFF78DFF2068FFF7CAFFAD
:100F20000FE02068FFF796FF2068FFF7A3FF08E0B7
:100F30002068FFF7BFFF2068FFF79CFF01E0012555
:100F400000BF00BFA07A50B3A07A012804D00228C5
:100F50000DD003281FD117E020684149096881435B
:100F60003F4A116000BF2068FFF7B4FF16E0206819
:100F70003B49091F09688143394A121F116000BFAC
:100F80002068FFF787FF09E02068FFF7A3FF2068CC
:100F9000FFF780FF02E045F0020500BF00BF606878
:100FA00000285AD0607A20B1012809D0022815D132
:100FB0000DE06068FFF746FF6068FFF783FF10E011
:100FC0006068FFF74FFF6068FFF75CFF09E060684B
:100FD000FFF778FF6068FFF755FF02E045F0040572
:100FE00000BF00BFA07A58B3A07A012805D002281C
:100FF00010D0032822D11AE023E06068184920317C
:1010000009688143164A2032116000BF6068FFF70B
:1010100069FF15E0606812491C3109688143104A74
:101020001C32116000BF6068FFF73CFF08E0606899
:10103000FFF758FF6068FFF735FF01E0012500BFAB
:101040000BE02068FFF706FF2068FFF7F3FE6068FB
:10105000FFF708FF6068FFF7F5FE284670BD000047
:101060000C0401400146044800680840884201D150
:10107000012070470020FCE714040140F0B502464F
:101080000B46186890FAA0F0B0FA80F487E00120CF
:10109000A0401D6805EA000100297FD0586801289A
:1010A00002D0586802281DD19868956891FAA1F677
:1010B000B6FA86F677000326BE40B54391FAA1F64C
:1010C000B6FA86F6760000FA06F63543956000BF5C
:1010D000DD6818685668864300FB05F73E43566096
:1010E00000BF00BF1869D56891FAA1F6B6FA86F676
:1010F00077000326BE40B54391FAA1F6B6FA86F60C
:10110000760000FA06F63543D56000BF586802281D
:101110002DD1FF2914D85869156A91FAA1F6B6FAAB
:1011200086F6B7000F26BE40B54391FAA1F6B6FA8F
:1011300086F6B60000FA06F63543156200BF16E0E3
:101140005869556A0E0A96FAA6F6B6FA86F6B700F8
:101150000F26BE40B5430E0A96FAA6F6B6FA86F6F4
:10116000B60000FA06F63543556200BF00BF586866
:10117000156891FAA1F6B6FA86F677000326BE4006
:10118000B54391FAA1F6B6FA86F6760000FA06F6AD
:101190003543156000BF00E000E000BF641C186824
:1011A000E04000287FF473AFF0BD4FF47A71B0FBDC
:1011B000F1F2521E4FF0E0235A6100229A6105229B
:1011C0001A6100BF704700002DE9F0410446002578
:1011D000C02C29D1204600F05DF8B0F5400F17D0A3
:1011E000A0F54000403820B1402806D0802819D111
:1011F00008E000F081FA054615E000F0EDF800B1D6
:10120000224D10E000F0F0F808B14FF400450AE07C
:1012100000F072FA074600F03BFA064600F048FA82
:10122000054600E000BF00BFB4F5407F2AD120464C
:1012300000F030F8B0F1407F18D01549084430B1C3
:10124000B0F5807F07D0B0F5007F19D108E000F03D
:1012500053FA054615E000F0BFF800B10B4D10E061
:1012600000F0C2F808B14FF400450AE000F044FA7B
:10127000074600F00DFA064600F01AFA054600E0AF
:1012800000BF00BF2846BDE8F08100000024F40044
:1012900000FFFFFC014603480068084040EA0140A7
:1012A00070470000881002402DE9F04104460025F7
:1012B000032C29D1204600F085F8B0F5403F17D027
:1012C0006FF44031084420B1012806D0022819D11A
:1012D00008E000F011FA054615E000F07DF800B1D5
:1012E000374D10E000F080F808B14FF400450AE0F7
:1012F00000F002FA074600F0CBF9064600F0EAF9E2
:10130000054600E000BF57E00C2C29D1204600F034
:1013100059F8B0F5402F17D0A0F54020001F20B19C
:10132000042806D0082819D108E000F0E5F90546A0
:1013300015E000F051F800B1214D10E000F054F834
:1013400008B14FF400450AE000F0D6F9074600F076
:101350009FF9064600F0ACF9054600E000BF2BE01F
:10136000302C29D1204600F02DF8B0F5401F17D0C1
:10137000A0F54010103820B1102806D0202819D12F
:1013800008E000F0B9F9054615E000F025F800B1D5
:101390000B4D10E000F028F808B14FF400450AE0CA
:1013A00000F0AAF9074600F073F9064600F080F94C
:1013B000054600E000BF00BF2846BDE8F081000000
:1013C0000024F400014603480068084040EA014058
:1013D000704700008810024002480068C0F3802077
:1013E000704700000010024002480068C0F340004F
:1013F00070470000901002400248006800F0F000C2
:1014000070470000001002400248006800F470605D
:10141000704700009410024002480068C0F3C0000A
:1014200070470000001002400248C06800F07000E1
:1014300070470000001002400248C06800F003003E
:1014400070470000001002400248C068C0F3062048
:10145000704700000010024030B50246012300BF73
:101460001068C0F38010A0BBD1E900042043CC6811
:1014700020430C6920434C6920438C692043CC698C
:1014800020430C6A204314684FF6BF75AC432043D9
:1014900010604C69886840EA1440546840F604754E
:1014A000AC43204350608868B0F5006F07D2180342
:1014B000546824F480540443546000BF00BF086A99
:1014C000B0F5005F04D1486A84B2146100BF00BF68
:1014D0000023184630BD0000014908607047000035
:1014E000780000202DE9F04104460D460127002632
:1014F000204600F080F8002868D1E9686868084351
:1015000029690843A96908432168324A1140084300
:101510002060A868616821F440510143616000BF08
:101520006869A16821F440710143A16000BF2A48A5
:10153000844204D10320FFF7B7FE06461FE0274888
:10154000844204D10C20FFF7AFFE064617E0244882
:10155000844204D13020FFF7A7FE06460FE0214861
:10156000844204D1C020FFF72FFE064607E01E4844
:10157000844204D14FF44070FFF726FE06462EB396
:10158000286818B300273146AB692868B3F5004FC7
:1015900012D14FEA410808EB5008B8FBF0F81FFAE7
:1015A00088F24FF6F07802EA080CC2F342084CEADF
:1015B000080CC4F80CC007E001EB5008B8FBF0F8C9
:1015C0001FFA88F8C4F80C8000BF00BF3846BDE899
:1015D000F0810000F369FFEF003801400044004053
:1015E00000480040004C0040005000400146C869DF
:1015F000C0F3401070470146086800F001007047D2
:101600000146086800F00100704708B501464FF038
:10161000E02212690092084600BF421C02B1401C41
:1016200006E04FF0E022126902F4803202B1401E5F
:101630000028F6D108BD000010B500BF12480068B0
:10164000C0F34000F0B100BF0F48406840F0020016
:101650000D49486000BF002412E00C4800EB041064
:101660004068094988420AD1084800EB0410C06864
:1016700028B1064901EB0411C868804710BD641CFD
:10168000012CEADB00BFF9E7007C004028050020C0
:10169000014600BF0448806800F0F0000009034ADA
:1016A000125C21FA02F07047001002401C6C000826
:1016B000014600BF0548806800F4E060044A02EB80
:1016C0001020027821FA02F070470000001002405A
:1016D0002C6C0008014600BF0548806800F460508B
:1016E000044A02EBD020027821FA02F07047000091
:1016F000001002402C6C000810B500BF294880681B
:1017000000F00C0030B1042822D0082822D00C2888
:1017100026D121E0FFF780FE60B9FFF77DFE10B112
:10172000FFF76AFE01E0FFF76FFE000A1E4951F85D
:1017300020000BE0FFF770FE10B1FFF75DFE01E047
:10174000FFF762FE0009184951F82000044625E021
:10175000164C23E0164C21E000F02CF804461DE066
:10176000FFF75AFE60B9FFF757FE10B1FFF744FECE
:1017700001E0FFF749FE000A0B4951F820000BE099
:10178000FFF74AFE10B1FFF737FE01E0FFF73CFE1E
:101790000009054951F82000044600BF00BF20465B
:1017A00010BD000000100240346C00080024F4005A
:1017B00000127A0070B5FFF73FFE0546012D04D0F8
:1017C000022D20D0032D22D11FE0FFF725FE60B9A6
:1017D000FFF722FE10B1FFF70FFE01E0FFF714FE46
:1017E000000A254951F820000BE0FFF715FE10B163
:1017F000FFF702FE01E0FFF707FE00091E4951F85E
:101800002000044621E01D4C1FE01D4C1DE0FFF7A9
:1018100003FE60B9FFF700FE10B1FFF7EDFD01E038
:10182000FFF7F2FD000A144951F820000BE0FFF722
:10183000F3FD10B1FFF7E0FD01E0FFF7E5FD000962
:101840000D4951F82000044600BF00BFFFF7ECFD32
:10185000012101EB1010B4FBF0F6FFF7F5FD464354
:101860000848C06800F0C060012101EB50604000F2
:10187000B6FBF0F070BD0000346C00080024F400EA
:1018800000127A00001002400348006840F4700023
:10189000014908607047000088ED00E070B5184805
:1018A000FFF7A4FE50B300BF15480068C0F3401016
:1018B00020B300BF1248808CC0B20546002419E056
:1018C00004EB44000F4901EB800040680C4988425A
:1018D0000FD104EB44000B4901EB8000806838B164
:1018E00004EB44000A4602EB8000816828468847E2
:1018F00002E0641C012CE3DB00BF00BF70BD0000F0
:10190000004400401C05002037B514460846064B2D
:101910006A46214600F0E0F804466946002000F0DF
:1019200075FC20463EBD00000D22000802E008C8FC
:10193000121F08C1002AFAD170477047002001E049
:1019400001C1121F002AFBD1704700002DE9FF5F83
:1019500082B00021DDE90430020DDDF840B0034320
:1019600018D044F61050A2F2FF32424315141198D9
:1019700001281FD0A5EB0B00401C5FEA000A4FF0C6
:1019800000064E4FDFF83891B046504615D5CAF1E3
:10199000000413E0119801244AA3012801D16FEA41
:1019A0000B010298119AC0E90031C0E9024206B069
:1019B00000F08EB8CBF10000DFE704460021404A7A
:1019C000491842EB0450CDE9001012E0E00707D0BF
:1019D00032463B4640464946FEF7F7FC804689467C
:1019E00032463B4610461946FEF7EFFC06460F46C8
:1019F0006410002CEAD1DDE90401DDE90023BAF12D
:101A0000000F06DAFEF7E1FC42464B46FEF7DDFC2E
:101A100005E0FEF74FFD42464B46FEF74BFD044600
:101A20000E460022284BFEF795FE03D84FF0FF30FC
:101A3000014607E00022254B20463146FEF716FC02
:101A4000FEF76FFE102409E0002C0ADB0A220023B7
:101A5000FEF7B5FD039B30321A55641E50EA0102B1
:101A6000F2D1641C039AC4F111031444119A012A9F
:101A700003D0012208430DD10AE0084304D000201E
:101A80004FF0110B119072E7A3EB0B056D1E0DE0EB
:101A90005B4504DD4FF0000205F1010504E003DAC7
:101AA0004FF00002A5F10105002AECD0029811992F
:101AB000C0E90231C0E9004579E7000000001440A8
:101AC0000000F03F300000000000F0430000E03F65
:101AD00030BCBDE8C09F00002DE9FF4F95B09B468C
:101AE0008946064600250FE2252877D1002427469F
:101AF000F84A0121059400E0044316F8013F203B19
:101B000001FA03F01042F7D130782A2811D06FF093
:101B10002F033078A0F13002092A16D8059A44F034
:101B2000020402EB820203EB42021044761C059091
:101B3000EFE759F8042B0592002A03DA504244F4E7
:101B40000054059044F00204761C30782E2816D1FB
:101B500016F8010F44F004042A280DD06FF02F026C
:101B60003078A0F13003092B09D807EB870302EB8B
:101B70004303C718761CF3E759F8047B761C3078CA
:101B80006C280FD006DC4C2817D068280DD06A28A6
:101B900014D104E0742810D07A280FD10DE044F459
:101BA00000140AE044F4801401E044F44014727814
:101BB000824202D104F58014761C761C30786628A7
:101BC0000BD013DC582877D009DC002875D04528C5
:101BD000F6D04628F4D047281AD19DE118E06328B2
:101BE00035D0642879D0652812D195E1702873D05A
:101BF00008DC6728F1D069286FD06E280DD06F28D7
:101C000006D1B5E073282CD0752875D0782874D00B
:101C10005A46179990476D1C75E1C4F3025002288B
:101C200009D003280DD0D9F8001004280DD00D607C
:101C300009F1040967E1D9F80010EA17C1E9005277
:101C4000F6E7D9F800100D80F2E70D70F0E719F80B
:101C5000041B8DF8001000208DF80100EA460120D9
:101C600003E059F804AB4FF0FF3061074FF000017B
:101C700002D40DE008F101018846B9420FDA80452F
:101C8000F8DB1AF808100029F4D108E008F1010186
:101C900088468142FADB1AF808100029F6D1059827
:101CA0005B46A0EB080721463846179A00F097FAE2
:101CB000284400EB080507E04DE029E10DE01AF8A3
:101CC000010B5A4617999047B8F10108F7D25B46C5
:101CD00021463846179A13E142E00A220092C4F3E3
:101CE00002524FF0000A022A08D059F804CB032A06
:101CF0004FEAEC710AD00DE029E02AE009F1070172
:101D000021F00702F2E802C1914609E00FFA8CFCCB
:101D10004FEAEC71042A03D14FFA8CFC4FEAEC71C4
:101D2000002907DA0A460021DCF1000C61EB020110
:101D30002D2202E0220504D52B228DF80420012259
:101D400003E0E20701D02022F7E7904659E00A219C
:101D500002E010220DE010214FF0000A00910BE08C
:101D600010224FF0000A44F004040827009203E018
:101D700008224FF0000A0092C4F30252022A05D052
:101D800059F804CB0021032A08D009E009F1070122
:101D900021F00702F2E802C1914605E01FFA8CFC2F
:101DA000042A01D10CF0FF0C4FF00008220728D5BF
:101DB000702806D0009B83F0100353EA0A0305D075
:101DC0000EE040228DF80420012208E05CEA0102C6
:101DD00006D030228DF804208DF8050002229046AE
:101DE000009B83F0080353EA0A030AD15CEA01026C
:101DF00001D1620705D530228DF804204FF001088B
:101E00007F1E582804D034A003900EA802900DE045
:101E100036A0F9E753466046009AFEF7D0FB8446A9
:101E20000398825C0298401E029002705CEA0100F6
:101E3000F0D1029806A9081A00F1200A600702D51D
:101E400024F4803400E00127574502DDA7EB0A00A7
:101E500000E0002000EB0A01009005984144401A80
:101E60000590E00306D45B462146179A059800F0DA
:101E7000B6F90544002706E001A85A46C05D179947
:101E800090476D1C7F1C4745F6DBE0030CD55B4695
:101E90002146179A059800F0A2F9054404E0302085
:101EA0005A46179990476D1C0099481E00900029CA
:101EB000F5DC08E0029802995A460078491C029124
:101EC000179990476D1CBAF10001AAF1010AF1DCE3
:101ED00065E10000092801003031323334353637EE
:101EE0003839616263646566000000003031323366
:101EF0003435363738394142434445460000000006
:101F000000F05BF90544761C307800287FF4ECADD6
:101F100019B0284600F04EB9620700D4062709F12F
:101F2000070222F0070CFCE80223E14603F0004818
:101F30005FEA080C02D00FF2702C0DE05FEA045C3F
:101F400002D50FF2682C07E05FEAC47C02D00FF2E2
:101F5000602C01E0AFF2700C4FF0FF3823F000432B
:101F6000CDF850C065280CD006DC452809D046289D
:101F70001DD047283DD13DE0662818D067287ED186
:101F800038E00021112F01DB112000E0781CCDE9A1
:101F9000000106A90EA8FFF7D9FCDDE90F010E9A92
:101FA00003910021009207F1010A04914DE04FF0E6
:101FB00000400097CDE9011006A90EA8FFF7C6FC66
:101FC000DDE90F0203920E9B11990022DDF80CA0AF
:101FD0000093049211B9791C00EB010AB7EB0A00D7
:101FE00004D4C0F1FF3007F1010A0490AAEB070006
:101FF000019044E0012F00DA01270021112F01DDBB
:10200000112000E03846CDE9000106A90EA8FFF72F
:102010009DFCDDE90F010E9A0391002104910092CD
:10202000BA4621070CD40399514500DA8A46BAF121
:10203000010F05DD009AAAF10101515C302908D099
:10204000B84202DA10F1040F06DA0121CDE90110DD
:1020500015E0AAF10101E9E7002805DC0499014433
:102060000491AAEB000102E0411C514500DD8A46C3
:102070000499401A401C01904FF000400290200744
:1020800004D40198504501DBCDF8048000208DF880
:102090004F0002980DF14F07B0F1004F25D02B20D3
:1020A0000E9002984FF0020800280CDA404202908D
:1020B0002D200E9007E00A210298FEF76AFA3031CF
:1020C000029007F8011DB8F10001A8F10108F2DC47
:1020D00002980028EFD1791E0E980870307800F031
:1020E000200040F0450007F8020D12A8C01B00F1C7
:1020F00007081498007800B1012000EB0A0101984C
:1021000001EBE07105984144401A401E0590E00340
:1021100006D45B462146179A059800F060F80544FE
:102120001498007818B15A46179990476D1CE0032F
:1021300024D55B462146179A059800F050F80544CF
:102140001CE00498002807DBDDE90301884203DD79
:102150000098405C179901E0179930205A46904743
:10216000049805F10105401C04900198401E01905F
:1021700004D12E205A46179990476D1CBAF10001E0
:10218000AAF1010ADDDC05E017F8010B5A461799A0
:1021900090476D1CB8F10001A8F10108F4DC5B4622
:1021A0002146179A0598ABE62D0000002B00000091
:1021B0002000000030BCBDE8C08F2DE9F04104468E
:1021C00000251E461746880404D405E03946202021
:1021D000B0476D1C641EF9D52846BDE8F0812DE995
:1021E000F041044600251E469046C80301D530271D
:1021F00000E02027880404D505E041463846B04772
:102200006D1C641EF9D52846BDE8F0810A68531C90
:102210000B60107070470246102937D2DFE801F0DA
:102220003633311B130A0836343225363612111074
:10223000002070470C2A01D10120FAE70020F8E7BE
:1022400000BF00BF00BF0C2A01D00B2A01D1012022
:10225000EFE70020EDE70C2A03D00B2A01D00A2A71
:1022600001D10120E5E70020E3E70C2A05D00B2A85
:1022700003D00A2A01D0092A01D10120D9E7002080
:10228000D7E700BF00BF00BF0120D2E70020D0E7A2
:1022900038B504466946204600F004F8684600F068
:1022A000C5FB38BDF8B505460E463146284602F056
:1022B0007BFA0446002C15D0032C13D100BF0AA0D2
:1022C00001F0D2F90AA001F0CFF90BA04FF4C173CD
:1022D0000E4A0FA1009016A001F0C6F91BA001F054
:1022E000C3F900BFF8BD00001B5B303B33316D000C
:1022F0004552524F523A20004C52313158585F5398
:1023000054415455535F4552524F5200936A00084E
:102310002E2E5C2E2E5C2E2E5C636F6D6D6F6E5CB0
:10232000617070735F636F6D6D6F6E2E6300000080
:10233000496E202573202D20257320286C696E6539
:10234000202564293A2025730A0000001B5B306DAC
:102350000000000010B5032004F0C8F92A494863C2
:102360000021294880F8381080F83910C163052011
:1023700004F0BCF9244908620021234880F82410A5
:10238000012180F82510214981620021C1620720C6
:1023900004F0ACF91C49886001211B48017302213B
:1023A0004173102004F0A2F9174948610121164831
:1023B00001760221417616481349086001F1440272
:1023C000486B383103F028FB0F4901F13002086AED
:1023D000243103F021FB0C4901F1100288680C3113
:1023E00003F084FB084901F11C024869183103F02D
:1023F0007DFB0549086B03F073FA0349091D081FAB
:1024000003F0A8FE004810BD84000020D558000845
:102410000030014010B5054800688079162804D0C6
:1024200003498868002103F0A3FB10BD30000020A1
:10243000D800002010B5054800684079162804D05F
:1024400003498868002103F093FB10BD3000002091
:10245000CC00002010B5054800688079162804D00B
:1024600003498868012103F083FB10BD3000002080
:10247000D800002010B5054800684079162804D01F
:1024800003498868012103F073FB10BD3000002070
:10249000CC00002038B505460C46E54800780128F8
:1024A0007DD10020E24908706946284602F015F9FE
:1024B00000BFE0A001F0D8F8E0A001F0D5F8E1A05D
:1024C000009901F0D1F8E6A001F0CEF800BF009825
:1024D0002040009000BFD7A001F0C6F8D7A001F0BF
:1024E000C3F8E1A0009901F0BFF8DDA001F0BCF84D
:1024F00000BF009800F0040004280FD100BFCDA059
:1025000001F0B2F8CDA001F0AFF8E2A001F0ACF814
:10251000D3A001F0A9F800BF02F080FE009800F0FF
:10252000100010280FD100BFC2A001F09DF8C3A079
:1025300001F09AF8DAA001F097F8C9A001F094F838
:1025400000BF02F05BFC009800F0400040280FD173
:1025500000BFD8A001F088F8D8A001F085F8D9A074
:1025600001F082F8BEA001F07FF800BF02F0F6FB98
:10257000009800F0200020280FD100BFADA001F08E
:1025800073F8AEA001F070F8D2A001F06DF8B4A01D
:1025900001F06AF800BF02F019FE009800E045E182
:1025A00000F0080008283CD1009800F08000802846
:1025B00010D100BFBFA001F057F8C0A001F054F83F
:1025C000CBA001F051F8A6A001F04EF800BF02F038
:1025D00005FD26E0009800F08070B0F1807F10D1FA
:1025E00000BFB4A001F040F8B4A001F03DF8C3A0D2
:1025F00001F03AF89AA001F037F800BF02F07EFB34
:102600000FE000BF8BA001F02FF88CA001F02CF898
:10261000BFA001F029F892A001F026F800BF02F057
:10262000E5FC009800F48070B0F5807F34D100BFE5
:1026300080A001F019F881A001F016F8B7A001F010
:1026400013F887A001F010F800BF009800F40070A4
:10265000B0F5007F10D100BF76A001F005F877A09B
:1026600001F002F8B0A000F0FFFF7DA000F0FCFF39
:1026700000BF02F0F3FA0FE000BF6EA000F0F4FF1D
:102680006EA000F0F1FFAFA000F0EEFF74A000F02C
:10269000EBFF00BF02F00AFB009800F48060B0F589
:1026A000806F0FD100BFAFA000F0DEFFAFA000F041
:1026B000DBFFB0A000F0D8FF69A000F0D5FF00BF9D
:1026C00002F07CFD009800F00060B0F1006F0FD1C7
:1026D00000BF58A000F0C8FF58A000F0C5FFA8A098
:1026E00000F0C2FF5EA000F0BFFF00BF02F05EFB83
:1026F000009800F48040B0F5804F0FD100BF4DA08E
:1027000000F0B2FF4DA000F0AFFFA2A000F0ACFFC0
:1027100053A000F0A9FF00BF02F0E8FB009800F40E
:102720000040B0F5004F0FD100BF42A000F09CFF69
:1027300042A000F099FF9DA000F096FF48A000F095
:1027400093FF00BF02F0AAFB009800F48030B0F5C0
:10275000803F0FD100BF37A000F086FF37A000F008
:1027600083FF99A000F080FF3DA000F07DFF00BF37
:1027700002F0E4FB009800F40030B0F5003F0FD108
:1027800000BF2CA000F070FF2CA000F06DFF94A003
:1027900000F06AFF32A000F067FF00BF02F056FBB6
:1027A000009800F48020B0F5802F0FD100BF21A049
:1027B00000F05AFF21A000F057FF8FA000F054FF57
:1027C00027A000F051FF00BF02F0E0FB009800F4EA
:1027D0008010B0F5801F0FD100BF16A000F044FF9D
:1027E00016A000F041FF88A000F03EFF1CA000F002
:1027F0003BFF00BF02F0B0FD009800F40020B0F5F0
:10280000002F0FD100BF0BA000F02EFF0BA000F097
:102810002BFF82A000F028FF11A000F025FF00BFD1
:1028200002F074FA0DA000F01FFF00BF38BD0000D9
:102830002C0000201B5B303B33326D00494E464F6D
:102840003A200000496E7465727275707420666C6F
:10285000616773203D203078253038580A00000029
:102860001B5B306D00000000496E746572727570FC
:102870007420666C616773202861667465722066D7
:10288000696C746572696E6729203D203078253047
:1028900038580A00547820646F6E650A0000000002
:1028A000507265616D626C65206465746563746502
:1028B000640A00001B5B303B33316D004552524FC0
:1028C000523A2000486561646572206572726F72C9
:1028D0000A00000053796E63776F7264206F722074
:1028E0006865616465722076616C69640A00000045
:1028F000435243206572726F720A000046534B20A8
:102900006C656E677468206572726F720A000000F1
:10291000527820646F6E650A000000004341442035
:10292000646F6E650A0000004368616E6E656C201E
:10293000616374697669747920646574656374652C
:10294000640A00004E6F206368616E6E656C2061E2
:102950006374697669747920646574656374656409
:102960000A0000001B5B303B33336D005741524E71
:102970003A20000052782074696D656F75740A0002
:102980004C6F52612052782074696D657374616D6B
:10299000700A00005254546F462072657175657359
:1029A000742076616C69640A000000005254546F10
:1029B0004620726571756573742064697363617212
:1029C0006465640A000000005254546F462072652A
:1029D00073706F6E736520646F6E650A000000008F
:1029E0005254546F462065786368616E676520763F
:1029F000616C69640A0000005254546F4620746987
:102A00006D656F75740A000057692D466920736300
:102A1000616E20646F6E650A00000000474E5353DC
:102A2000207363616E20646F6E650A0010B5044602
:102A300000BF43A000F018FE43A000F015FE44A024
:102A400000F012FE48A000F00FFE00BF00BF3CA047
:102A500000F00AFE3CA000F007FE618844A000F0F0
:102A600003FE41A000F000FE00BF00BF34A000F054
:102A7000FBFD35A000F0F8FD217843A000F0F4FD47
:102A800039A000F0F1FD00BF00BF2DA000F0ECFD6B
:102A90002DA000F0E9FD6178414800F0E5FD32A08D
:102AA00000F0E2FD00BF6078012815D1608840F297
:102AB0000141884210D000BF3AA000F0D5FD3BA0F4
:102AC00000F0D2FD618840F201423A4800F0CCFDAE
:102AD00025A000F0C9FD00BF6078022814D16088ED
:102AE00040F2012188420FD000BF2EA000F0BCFDB3
:102AF0002EA000F0B9FD40F201212FA000F0B4FD9E
:102B000019A000F0B1FD00BF6078032814D16088DF
:102B100040F2031188420FD000BF22A000F0A4FDB4
:102B200022A000F0A1FD40F2031132A000F09CFDB4
:102B30000DA000F099FD00BF3DA000F095FD10BD77
:102B40001B5B303B33326D00494E464F3A2000004C
:102B50004C523131787820696E666F726D6174699C
:102B60006F6E3A0A000000001B5B306D0000000031
:102B700020202D204669726D77617265203D2030DE
:102B800078253034580A000020202D2048617264D6
:102B900077617265203D203078253032580A000078
:102BA000987000081B5B303B33336D005741524E29
:102BB0003A200000E47000084C5231313230206479
:102BC0006F65736E277420757365206C617465730F
:102BD00074206669726D77617265207665727369BB
:102BE0006F6E2077686963682069732030782530BC
:102BF00032580A004C523131323120646F65736EA5
:102C0000277420757365206C617465737420666920
:102C1000726D776172652076657273696F6E207769
:102C200068696368206973203078253032580A005B
:102C30000A000000F8B506461622A349A34803F08F
:102C40002BFD04467CB900BFA1A000F00DFDA2A0A1
:102C500000F00AFDA2A000F007FDACA000F004FD0A
:102C600000BF00BFFEE702F001FC0221304601F088
:102C700017FB0546002D15D0032D13D100BF94A0DE
:102C800000F0F2FC94A000F0EFFCA2A040F2B5131B
:102C9000A54AA6A10090ADA000F0E6FC9BA000F024
:102CA000E3FC00BF8849304601F00EFB0546002DCD
:102CB00015D0032D13D100BF85A000F0D5FC86A050
:102CC00000F0D2FC93A04FF4DB73974A97A10090D9
:102CD0009EA000F0C9FC8DA000F0C6FC00BF7A49A0
:102CE0007A4803F0E2FC07463946304601F00CFB17
:102CF0000546002D15D0032D13D100BF74A000F0A0
:102D0000B3FC75A000F0B0FC82A040F2B713864A75
:102D100086A100908DA000F0A7FC7CA000F0A4FC90
:102D200000BF611C304601F09BFA0546002D15D00E
:102D3000032D13D100BF66A000F096FC66A000F042
:102D400093FC74A040F2B913774A78A100907FA059
:102D500000F08AFC6DA000F087FC00BF94F9001021
:102D60000222304601F0A6FB0546002D15D0032DAA
:102D700013D100BF56A000F077FC57A000F074FC00
:102D800064A04FF4DD73684A68A100906FA000F062
:102D90006BFC5EA000F068FC00BF0121304601F032
:102DA00027FB0546002D15D0032D13D100BF48A0E9
:102DB00000F05AFC48A000F057FC56A040F2BB13AC
:102DC000594A5AA1009061A000F04EFC4FA000F0BB
:102DD0004BFC00BF0021304600F0F4FC0546002DFE
:102DE00015D0032D13D100BF39A000F03DFC3AA04F
:102DF00000F03AFC47A04FF4DE734B4A4BA1009021
:102E000052A000F031FC41A000F02EFC00BF02F007
:102E1000EDFB04210720FFF7FEF95349C870304647
:102E200001F0C2F90546ADB1032D13D100BF28A0B2
:102E300000F01AFC28A000F017FC36A040F2C313E3
:102E4000394A3AA1009041A000F00EFC2FA000F0FA
:102E50000BFC00BF4549304601F0C6F90546ADB14F
:102E6000032D13D100BF1AA000F0FEFB1AA000F042
:102E7000FBFB28A04FF4E2732B4A2CA1009033A057
:102E800000F0F2FB21A000F0EFFB00BF1221304662
:102E900001F0D2F90546ADB1032D13D100BF0CA04E
:102EA00000F0E2FB0CA000F0DFFB1AA040F2C5131B
:102EB0001D4A1EA1009025A000F0D6FB13A000F033
:102EC000D3FB00BFF8BD0000C0CA89360000002057
:102ED0001B5B303B33316D004552524F523A20005C
:102EE000496E76616C6964207461726765742066EE
:102EF00072657175656E6379206F7220706F77658A
:102F000072206C6576656C0A000000001B5B306DFA
:102F1000000000004C52313158585F535441545511
:102F2000535F4552524F5200B46A00082E2E5C2E59
:102F30002E5C2E2E5C636F6D6D6F6E5C61707073B6
:102F40005F636F6D6D6F6E2E63000000496E20250C
:102F500073202D20257320286C696E652025642937
:102F60003A2025730A000000200000204C6A000867
:102F70002DE9FC4180460E4617461C4601A94046F5
:102F800000F01AFE9DF8040020702078B84211DD90
:102F900000BF3CA000F068FB3CA000F065FB21787E
:102FA0003A463C4800F060FB3BA000F05DFB00BFF0
:102FB000BDE8FC819DF804309DF80520314640466F
:102FC00001F0C8FA00BF227835A139A000F04CFB0F
:102FD00000250BE005F00F0018B915B139A000F07D
:102FE00043FB715D38A000F03FFB6D1C2078A842C8
:102FF000F0D834A000F038FB00BF00BF34A000F0D0
:1030000033FB35A000F030FB35A000F02DFB22A0F3
:1030100000F02AFB00BF6946404600F0B3FC00BF49
:103020002BA000F021FB2CA000F01EFB9DF900104E
:103030002FA000F019FB18A000F016FB00BF00BF86
:1030400023A000F011FB24A000F00EFB9DF902105C
:103050002EA000F009FB10A000F006FB00BF00BF8F
:103060001BA000F001FB1CA000F0FEFA9DF901106E
:103070002FA000F0F9FA08A000F0F6FA00BF00BF98
:1030800096E700001B5B303B33316D004552524FD9
:10309000523A2000547000081B5B306D00000000A5
:1030A0005061636B657420636F6E74656E740000AD
:1030B0002573202D2028256C75206279746573296D
:1030C0003A0A00000A0000002025303258000000B3
:1030D0001B5B303B33326D00494E464F3A200000B7
:1030E0005061636B6574207374617475733A0A0080
:1030F00020202D2052535349207061636B6574204A
:103100003D2025692064426D0A00000020202D200A
:103110005369676E616C2052535349207061636B31
:103120006574203D2025692064426D0A000000007E
:1031300020202D20534E52207061636B6574203D1A
:103140002025692064420A002DE9FC478146484653
:1031500001F04EFB8046B8F1000F16D0B8F1030F16
:1031600013D100BFA2A000F07FFAA3A000F07CFA68
:10317000A3A040F25D13A74AA7A10090AEA000F063
:1031800073FAB4A000F070FA00BF00BFB349C8687A
:10319000804706463146484601F090FB8046B8F12C
:1031A000000F16D0B8F1030F13D100BF90A000F0AC
:1031B0005BFA91A000F058FA91A040F26113954A91
:1031C00095A100909CA000F04FFAA2A000F04CFA4C
:1031D00000BF00BFA1498868804707463946484676
:1031E00001F00CFB8046B8F1000F16D0B8F1030FC8
:1031F00013D100BF7EA000F037FA7FA000F034FAB0
:103200007FA04FF4B273834A83A100908AA000F09C
:103210002BFA90A000F028FA00BF00BF8F49086980
:103220008047044600BF2078012820D161784846B5
:10323000626801F057FB8046B8F1000F16D0B8F174
:10324000030F13D100BF6AA000F00EFA6AA000F0CD
:103250000BFA6BA040F269136E4A6FA1009076A042
:1032600000F002FA7BA000F0FFF900BF00BF00BF32
:103270007A494869804705466A782978484601F0C6
:10328000D5F98046B8F1000F16D0B8F1030F13D16D
:1032900000BF57A000F0E8F957A000F0E5F958A0EA
:1032A00040F26D135B4A5CA1009063A000F0DCF972
:1032B00068A000F0D9F900BF484601F0CDF980467A
:1032C000B8F1000F16D0B8F1030F13D100BF48A01A
:1032D00000F0CAF948A000F0C7F949A040F26F1306
:1032E0004C4A4DA1009054A000F0BEF959A000F046
:1032F000BBF900BF3F21484601F084F98046B8F190
:10330000000F16D0B8F1030F13D100BF38A000F0A2
:10331000ABF939A000F0A8F939A04FF4B8733D4AD1
:103320003DA1009044A000F09FF94AA000F09CF954
:1033300000BF01A9484601F0EBF98046B8F1000F43
:1033400016D0B8F1030F13D100BF29A000F08CF9FB
:1033500029A000F089F92AA040F273132D4A2EA16A
:10336000009035A000F080F93AA000F07DF900BF90
:10337000484601F071F98046B8F1000F16D0B8F157
:10338000030F13D100BF1AA000F06EF91AA000F0CD
:103390006BF91BA04FF4BA731E4A1FA1009026A020
:1033A00000F062F92BA000F05FF900BF2C494846FD
:1033B00001F062F98046B8F1000F16D0B8F1030FA2
:1033C00013D100BF0AA000F04FF90BA000F04CF998
:1033D0000BA040F275130F4A0FA1009016A000F049
:1033E00043F91CA000F040F900BF00F03BB800001A
:1033F0001B5B303B33316D004552524F523A200037
:103400004C52313158585F5354415455535F4552D3
:10341000524F5200746A00082E2E5C2E2E5C2E2E07
:103420005C636F6D6D6F6E5C617070735F636F6D09
:103430006D6F6E2E63000000496E202573202D20D5
:10344000257320286C696E65202564293A20257330
:103450000A0000001B5B306D00000000000000202F
:10346000FCCFFF0B0CBCBDE8F087000010B500BF1F
:1034700032498869804732490860084600684079C7
:10348000162811D00968487903F030F92D490860F1
:103490000020087102212B484171014601F1080208
:1034A0000868091D02F022FB25480068807916286B
:1034B00012D023490968887903F018F92249086075
:1034C00000200871022120484171014601F10802E3
:1034D0000868091D02F00AFB19480068C07916281F
:1034E00012D017490968C87903F000F91749086034
:1034F00000200871022115484171014601F10802BE
:103500000868091D02F0F2FA0D48006800791628D3
:1035100012D00B490968087903F0E8F80C490860F3
:103520000020087102210A484171014601F1080298
:103530000868091D02F0DAFA10BD00000000002042
:1035400030000020CC000020D8000020E400002043
:10355000F000002010B5044600BF0EA000F084F873
:103560000EA000F081F821460EA000F07DF813A017
:1035700000F07AF800BF00BF06A000F075F807A0C1
:1035800000F072F80FA000F06FF80CA000F06CF8DB
:1035900000BF10BD1B5B303B33326D00494E464FC0
:1035A0003A20000041542B504552207265636569F2
:1035B0007665643A2025730A000000001B5B306DBD
:1035C00000000000526573657474696E6720504591
:1035D00052206D6561737572656D656E742E2E2E49
:1035E0000A00000010B5002821D0114B0022001F56
:1035F000196803E0814203D80A4649680029F9D1D5
:1036000052B11368841A9C4204D1006818441060B7
:10361000104602E0506000E0186039B102680B1AF1
:10362000934203D10B681A4402604968416010BD9F
:103630007C00002010B50220012806D0022809D104
:103640000549064800F0C6F910BD0549054800F0D7
:1036500019F9F9E70020F7E7200000204C6A00087C
:10366000546A0008606A00080FB408B503A8009007
:103670000099029803F0CEF90020009001B05DF8A7
:1036800014FB2DE9F04104460E4617462546284610
:1036900000F05BF80021286902F06AFA3B463246E6
:1036A0000021686802F0E2FD0121286902F060FA59
:1036B0000020BDE8F0812DE9FC4704468846164607
:1036C0001F46DDF8289025460020019000902846EE
:1036D00000F03BF80021286902F04AFA3346002244
:1036E0004146686802F0C2FD0121286902F040FAF3
:1036F000284600F02AF80021286902F039FA01234F
:103700006A4601A9686802F0B1FD4B463A460021BD
:10371000686802F0ABFD0121286902F029FA002057
:1037200000F000B80CBCBDE8F08770B50446254633
:103730000021E86902F01CFA0120FDF766FF012173
:10374000E86902F015FA002070BD38B50446254638
:1037500000BF6946686C02F019F99DF80000012865
:10376000F7D038BD2DE9F0470446884616461F4677
:10377000DDF8209025462846FFF7E7FF002128695D
:1037800002F0F6F9334600224146686802F06EFD09
:103790004B4600223946686802F068FD012128691D
:1037A00002F0E6F90020BDE8F087000010B50446FD
:1037B00000234FF080420249204600F0F5FE10BD84
:1037C0005400F3007CB505460C4607A00068019044
:1037D0008DF8064000200346032201A900902846E8
:1037E000FFF7C0FF7CBD0000022700000146C803B0
:1037F0004FF47A72B0FBF2F07047000001460129E5
:1038000004D0022904D0032906D103E003A07047A5
:103810000AA0FCE712A0FAE718A0F8E74C523131F1
:1038200058585F524144494F5F46414C4C424143D6
:103830004B5F53544442595F524300004C52313164
:1038400058585F524144494F5F46414C4C424143B6
:103850004B5F53544442595F584F5343000000009C
:103860004C52313158585F524144494F5F46414CA8
:103870004C4241434B5F465300000000556E6B6E57
:103880006F776E00F0B506460C46304600F00AF839
:103890004FF47A7100FB01F725687819401EB0FBE0
:1038A000F5F0F0BD10B50146487920B1012804D0EB
:1038B000022806D103E0002205E0082203E00922E5
:1038C00001E0002010BD00BFC87907280FD2DFE853
:1038D00000F00604080E0A0E0C00002308E0012385
:1038E00006E0022304E0012302E0022300E00023BB
:1038F00088790C790CB1012400E00024204418449C
:103900000B881344CC78234403EBC000DAE70000B3
:1039100001460020102927D2DFE801F0260B1117FD
:103920001A1C1E26080E14262620222442F6B10058
:103930001AE043F6095017E045F2611014E047F62B
:10394000122011E04AF2C3200EE04FF224400BE0B7
:10395000064809E0064807E0064805E0064803E097
:10396000064801E0064800BF00BF704748E8010074
:1039700090D0030020A10700F8180300F0310600E2
:10398000E0630C00FEB506460C4611A000680290EC
:1039900000200190032001AB022202A900903046D2
:1039A000FFF789FE05468DB99DF80400401040429E
:1039B00040B220709DF8050040B2801C80106070FD
:1039C0009DF806004010404240B2A0702846FEBD5F
:1039D00002040000F0B506460C462146304600F0D1
:1039E0000DF84FF47A7100FB01F76078FFF790FF54
:1039F00005467819401EB0FBF5F0F0BD2DE9F04FFB
:103A000088B0804698F8030007900E7898F8020076
:103A1000012800D100E000200690062E01DC0120E4
:103A200000E0002007468878042801DD012000E03E
:103A30000020059098F80400012802D14FF0020AF6
:103A400001E04FF0000A07980AEB0002C87808B1BD
:103A5000012000E000204FF0020A0AFB10640598E4
:103A600000286BD04FF0040ACDF808A091F802A00E
:103A7000BAF1070F02D14FF0010B01E04FF0000B3C
:103A80000AEB0B00DDF818A0BAF1000F31D0A6F157
:103A9000020A4FF0020B0BFB07AACDF804A04FEA75
:103AA000C20A0AFB00FADDF804B0CBEBCB0B4FEAFD
:103AB0008B0BDA4508DC4FEAC20A0AFB00F9DDF895
:103AC00004A04FEA8A0513E0DDF804A04FEACA0A11
:103AD000CDF800A04FEA441A4FEAC20B0BFB00AB33
:103AE0004FF0040EDDF800A00EFB1AB9A50000BFD0
:103AF00023E04FEA860A0AEBC70AAAF11C0A2AF059
:103B000007034FEAC20A9A4509DDDDF81CA04FEA17
:103B1000CA0A9A4503DADDF81CA04FEACA03C3EBD0
:103B2000C20CBCF1000F01DA4FF0000C0CFB00FAE4
:103B30004FF0200B0BFB04A9A50010E0B00000EB38
:103B4000C700A0F10803069800B9143BC3EBC20CF0
:103B5000BCF1000F01DA4FF0000CE146A50009EBC3
:103B60000500401E90FBF5F00390059838B9887861
:103B7000001DDDF80CA000FB0AF008300390B8F837
:103B80000000001D4FF0020A0AFB070A0398504488
:103B9000049004988000401CA6F1020A4FF0010B2B
:103BA0000BFA0AFB00FB0BF0401E08B000F000B857
:103BB00030BCBDE8C08F0000FEB506460C460BA029
:103BC0000068029000200190022001AB024602A989
:103BD00000903046FFF76FFD05462DB99DF80400B3
:103BE00020709DF8050060702846FEBD02030000AD
:103BF0000146102921D2DFE801F0200A0E12141626
:103C00001820080C1020201A1C1E0DA0704712A0AE
:103C1000FCE717A0FAE71CA0F8E721A0F6E726A02A
:103C2000F4E72BA0F2E731A0F0E737A0EEE73DA0E4
:103C3000ECE743A0EAE749A0E8E74FA0E6E7000089
:103C40004C52313158585F524144494F5F4C4F52AA
:103C5000415F42575F3130004C52313158585F520A
:103C60004144494F5F4C4F52415F42575F313500ED
:103C70004C52313158585F524144494F5F4C4F527A
:103C8000415F42575F3230004C52313158585F52D9
:103C90004144494F5F4C4F52415F42575F333100BF
:103CA0004C52313158585F524144494F5F4C4F524A
:103CB000415F42575F3431004C52313158585F52A6
:103CC0004144494F5F4C4F52415F42575F3632008B
:103CD0004C52313158585F524144494F5F4C4F521A
:103CE000415F42575F313235000000004C523131A4
:103CF00058585F524144494F5F4C4F52415F4257C1
:103D00005F323530000000004C52313158585F525C
:103D10004144494F5F4C4F52415F42575F3530300D
:103D2000000000004C52313158585F524144494F15
:103D30005F4C4F52415F42575F323030000000000D
:103D40004C52313158585F524144494F5F4C4F52A9
:103D5000415F42575F343030000000004C52313137
:103D600058585F524144494F5F4C4F52415F425750
:103D70005F38303000000000556E6B6E6F776E005C
:103D80000146082915D2DFE801F00406080A0C0EE6
:103D9000101209A070470EA0FCE714A0FAE71AA0C1
:103DA000F8E720A0F6E726A0F4E72CA0F2E732A07F
:103DB000F0E738A0EEE700004C52313158585F521E
:103DC0004144494F5F4C4F52415F4E4F5F43520059
:103DD0004C52313158585F524144494F5F4C4F5219
:103DE000415F43525F345F35000000004C52313177
:103DF00058585F524144494F5F4C4F52415F4352C4
:103E00005F345F36000000004C52313158585F5229
:103E10004144494F5F4C4F52415F43525F345F37DB
:103E2000000000004C52313158585F524144494F14
:103E30005F4C4F52415F43525F345F3800000000D7
:103E40004C52313158585F524144494F5F4C4F52A8
:103E5000415F43525F4C495F345F35004C52313112
:103E600058585F524144494F5F4C4F52415F435253
:103E70005F4C495F345F36004C52313158585F52C5
:103E80004144494F5F4C4F52415F43525F4C495F41
:103E9000345F3800556E6B6E6F776E00014611B15E
:103EA000012904D101E003A0704709A0FCE70FA09D
:103EB000FAE700004C52313158585F524144494FA3
:103EC0005F4C4F52415F4352435F4F4646000000F4
:103ED0004C52313158585F524144494F5F4C4F5218
:103EE000415F4352435F4F4E00000000556E6B6EC2
:103EF0006F776E00014611B1012904D101E003A0E2
:103F000070470AA0FCE711A0FAE700004C523131DB
:103F100058585F524144494F5F4C4F52415F49519D
:103F20005F5354414E444152440000004C523131E1
:103F300058585F524144494F5F4C4F52415F49517D
:103F40005F494E564552544544000000556E6B6E15
:103F50006F776E00014611B1012904D101E003A081
:103F600070470AA0FCE711A0FAE700004C5231317B
:103F700058585F524144494F5F4C4F52415F504B3C
:103F8000545F4558504C4943495400004C5231311C
:103F900058585F524144494F5F4C4F52415F504B1C
:103FA000545F494D504C494349540000556E6B6E67
:103FB0006F776E000146481F082815D2DFE800F031
:103FC0000406080A0C0E101208A070470DA0FCE7AA
:103FD00012A0FAE717A0F8E71CA0F6E721A0F4E783
:103FE00026A0F2E72BA0F0E730A0EEE74C523131EB
:103FF00058585F524144494F5F4C4F52415F5346BE
:10400000350000004C52313158585F524144494FFD
:104010005F4C4F52415F5346360000004C523131E5
:1040200058585F524144494F5F4C4F52415F53468D
:10403000370000004C52313158585F524144494FCB
:104040005F4C4F52415F5346380000004C523131B3
:1040500058585F524144494F5F4C4F52415F53465D
:10406000390000004C52313158585F524144494F99
:104070005F4C4F52415F5346313000004C5231315A
:1040800058585F524144494F5F4C4F52415F53462D
:10409000313100004C52313158585F524144494F40
:1040A0005F4C4F52415F534631320000556E6B6E8C
:1040B0006F776E000146062910D2DFE801F0030594
:1040C00007090B0D06A070470BA0FCE711A0FAE74B
:1040D00017A0F8E71DA0F6E724A0F4E72AA0F2E76E
:1040E0004C52313158585F524144494F5F504B5404
:1040F0005F4E4F4E450000004C52313158585F52D0
:104100004144494F5F504B545F545950455F4746B7
:10411000534B00004C52313158585F524144494F83
:104120005F504B545F545950455F4C4F5241000013
:104130004C52313158585F524144494F5F504B54B3
:104140005F545950455F4250534B00004C5231313F
:1041500058585F524144494F5F504B545F54595037
:10416000455F4C525F464853530000004C5231317A
:1041700058585F524144494F5F504B545F54595017
:10418000455F5254544F4600556E6B6E6F776E000C
:1041900070B505460C462301F0220249284600F07E
:1041A00003FA70BD8C00F3003EB505460C460CA129
:1041B00003C9CDE9010120788DF8060060788DF8FB
:1041C0000700A0788DF80800E0788DF8090000203D
:1041D0000346062201A900902846FFF7C3FA3EBD18
:1041E000020F0000000000003EB505460C4610A17D
:1041F00003C9CDE90101208800128DF8060020785E
:104200008DF80700A0788DF80800E0788DF8090097
:1042100020798DF80A0060798DF80B0000200346A4
:10422000082201A900902846FFF79CFA3EBD000035
:1042300002100000000000007CB505460C4607A0F7
:10424000006801908DF8064000200346032201A972
:1042500000902846FFF786FA7CBD0000022B000084
:104260003EB505460C460CA103C9CDE901012078F5
:104270008DF8060060788DF80700A0788DF80800AA
:10428000E0788DF8090000200346062201A900907D
:104290002846FFF767FA3EBD021500000000000047
:1042A0007CB505460C4607A0006801908DF80640D5
:1042B00000200346032201A900902846FFF752FA86
:1042C0007CBD0000020E00003EB505460C460CA168
:1042D00003C9CDE90101200E8DF80600200C8DF8F0
:1042E0000700200A8DF80800E0B28DF809000020D0
:1042F0000346062201A900902846FFF733FA3EBD87
:10430000020B00000000000030B585B005460C46E9
:104310002DA30FCBCDE90323CDE90101607800F097
:104320000F01207861F31F108DF80600E07800F08F
:104330000F01A07861F31F108DF80700607900F07D
:104340000F01207961F31F108DF80800E07900F06B
:104350000F01A07961F31F108DF80900607A00F059
:104360000F01207A61F31F108DF80A00E07A00F047
:104370000F01A07A61F31F108DF80B00607B00F035
:104380000F01207B61F31F108DF80C00E07B00F023
:104390000F01A07B61F31F108DF80D00207C00F051
:1043A0000F008DF80E00608A000A8DF80F00A07CC7
:1043B0008DF81000002003460D2201A90090284628
:1043C000FFF7D0F905B030BD022900000000000061
:1043D000000000000000000070B505460C462046B5
:1043E000FFF704FA06463146284600F015F870BD7E
:1043F0007CB505460C4607A0006801908DF8064084
:1044000000200346032201A900902846FFF7AAF9DD
:104410007CBD00000213000070B504460D46032267
:104420002946204600F002F870BD0000FEB50746A0
:104430000C461546032617A103C9CDE90101200C3E
:104440008DF80600200A8DF80700E0B28DF808000C
:1044500000BF3846FFF7AAF9064606B116E000206D
:104460000346052201A900903846FFF77BF906466E
:1044700006B10BE0022D01D0012D06D129463846A8
:10448000FFF786FE064606B100E000BF00BF3046DB
:10449000FEBD0000020900000000000070B50546E6
:1044A0000C462046FFF7A2F906463146284600F0A2
:1044B00019F870BD7CB506460C46154608A0006884
:1044C0000190E0B28DF806008DF8075000200346F9
:1044D000042201A900903046FFF744F97CBD00009A
:1044E00002110000FEB506460C46032511A103C9C2
:1044F000CDE90101200C8DF80600200A8DF8070097
:10450000E0B28DF8080000BF3046FFF74FF90546CE
:1045100005B10BE000200346052201A900903046BA
:10452000FFF720F9054605B100E000BF00BF2846AF
:10453000FEBD0000020A0000000000000B12037024
:104540004170130E8370130CC370130A0371427110
:10455000704700002DE9FC4107460D4616461C46F3
:1045600007A0006801908DF806608DF807402B4683
:10457000042201A938460094FFF79DF8BDE8FC81AC
:10458000010A00007CB506460C46154605A00068E9
:1045900001902346022201A930460095FFF7E2F878
:1045A0007CBD000001090000F0B585B007460E464D
:1045B00014461D4632464FF4867101A8FFF7BEFF30
:1045C000200E8DF80A00200C8DF80B00200A8DF8C3
:1045D0000C00E0B28DF80D00280E8DF80E00280CAE
:1045E0008DF80F00280A8DF81000E8B28DF8110040
:1045F000002003460E2201A900903846FFF7B2F8CA
:1046000005B0F0BD7CB505460C4607A000680190DA
:104610008DF8064000200346032201A90090284699
:10462000FFF7A0F87CBD0000010F00007CB5064636
:104630000C46154607A00068019044EA85008DF8F5
:10464000060000200346032201A900903046FFF730
:1046500089F87CBD011600001CB5044605A0006861
:10466000019000200346022201A900902046FFF796
:1046700079F81CBD010E00003EB505460C460CA1A4
:1046800003C9CDE90101200E8DF80600200C8DF83C
:104690000700200A8DF80800E0B28DF8090000201C
:1046A0000346062201A900902846FFF75BF83EBDAD
:1046B000011400000000000021B100F001024A7066
:1046C00042100A70704739B100F001028A70C0F3DD
:1046D00042024A7002090A707047F8B506460C4655
:1046E000002000906F463B4600221146304600F005
:1046F0002DF8054635B9009820B130460099FFF7EE
:10470000BBFF054615B90CB1009820602846F8BDDE
:10471000FEB506460C460CA00068029000200190F1
:10472000022001AB024602A900903046FEF7C3FF0B
:10473000054635B99DF805009DF8041000EB0120F1
:1047400020802846FEBD0000010D00002DE9FC413F
:104750000746884615461C46002000900190062218
:1047600069463846FEF78DFF0646CEB99DF8000033
:104770004146FFF7A1FF9DF801002946FFF7A3FF7F
:1047800074B19DF8020000069DF8031000EB014093
:104790009DF8041000EB01209DF8051008442060EE
:1047A0003046BDE8FC810000FEB506460C460FA071
:1047B0000068029000200190042001AB022202A9AF
:1047C00000903046FEF777FF054665B99DF8040076
:1047D00020709DF8050060709DF807009DF8061098
:1047E00000EB012060802846FEBD000001010000B2
:1047F00010B504462046FEF798FF10BD7FB505466C
:104800000C4613A207CA01AB07C320788DF8060037
:1048100060788DF80700A0788DF80800E0788DF8B2
:10482000090020798DF80A0060798DF80B00A079D5
:104830008DF80C00E0798DF80D00002003460A2267
:1048400001A900902846FEF78DFF04B070BD00005E
:104850000112000000000000000000007FB50646C5
:104860000C46154612A207CA01AB07C3200E8DF8ED
:104870000600200C8DF80700200A8DF80800E0B231
:104880008DF80900280E8DF80A00280C8DF80B0011
:10489000280A8DF80C00E8B28DF80D0000200346C0
:1048A0000A2201A900903046FEF75CFF04B070BDFB
:1048B0000113000000000000000000007CB5054668
:1048C0000C4607A0006801908DF8064000200346C2
:1048D000032201A900902846FEF744FF7CBD00009A
:1048E00001100000FEB506460D4614460BA103C993
:1048F000CDE901018DF80650200C8DF80700200A43
:104900008DF80800E0B28DF8090000200346062269
:1049100001A900903046FEF725FFFEBD01170000FB
:104920000000000038B501F02DFBFEF79FFD01F0FF
:10493000E5FE00F03DF9FDF70DFD5A490860084617
:104940000068FEF701FC57480068FDF7A1FC5548D8
:104950000068FEF76FF90022534952480068FFF7DC
:104960007DFF0446002C14D0032C12D100BF4FA0B1
:10497000FEF77AFE4FA0FEF777FE50A09723544A29
:1049800054A1009057A0FEF76FFE5DA0FEF76CFEED
:1049900000BF5D4943480068FFF76EFE0446002CE7
:1049A00014D0032C12D100BF40A0FEF75DFE41A041
:1049B000FEF75AFE41A09823454A46A1009049A01F
:1049C000FEF752FE4EA0FEF74FFE00BF012002E0B0
:1049D0004E4A1054401C0728FADBFEF72BFE4C49C8
:1049E000096808444A490860FDF734FD48480168F1
:1049F0002C480068FFF7F0FC0446002C14D0032C70
:104A000012D100BF29A0FEF72FFE2AA0FEF72CFE30
:104A10002AA0A2232E4A2FA1009032A0FEF724FE46
:104A200037A0FEF721FE00BF3A483849491C0A6802
:104A300002608988818004E01B491A480068FDF7FC
:104A400029FD354800881428F6DB334800881428EF
:104A500004DD32480088401E304908802F48008815
:104A600064214843142190FBF1F0C0F16404214615
:104A70002BA0FEF7F9FD284801882CA0FEF7F4FDD5
:104A8000264801882FA0FEF7EFFD3648018836A0A2
:104A9000FEF7EAFD3C4801883CA0FEF7E5FD00205A
:104AA00038BD000054000020DC0400011B5B303BDB
:104AB00033316D004552524F523A20004C52313141
:104AC00058585F5354415455535F4552524F52000A
:104AD000E06B00082E2E5C6D61696E5F7065722E52
:104AE00063000000496E202573202D2025732028A7
:104AF0006C696E65202564293A2025730A00000040
:104B00001B5B306D00000000FCCFFF0B5800002045
:104B1000740000206D0000206A000020600000206A
:104B2000504552203D202564200A000046696E61F0
:104B30006C2050455220696E6465783A20256420C7
:104B40000A00000056616C696420726563657074C8
:104B5000696F6E20616D6F756E743A202564200A4E
:104B6000000000006200002054696D656F757420BC
:104B7000726563657074696F6E20616D6F756E74B8
:104B80003A202564200A000064000020435243209C
:104B90004572726F7220726563657074696F6E2002
:104BA000616D6F756E743A202564200A0000000064
:104BB00017E00C48007888B100200A4908700A48BC
:104BC0000088002807DD084801880848FBF7FCFD3D
:104BD0000648FBF765FF0020034908801420FCF716
:104BE00014FDE6E73600002038000020FC0100201C
:104BF000F0B50B30154D20F007010024144A0FE0EA
:104C000003688B420BD38B4205D95E1A4318476861
:104C1000C3E9006700E04368136002C004E0021DBE
:104C200010680028ECD12046002802D1286808B17D
:104C30000020F0BD064A07481060074A121A22F009
:104C40000702C0E9002401202860D7E78000002087
:104C50007C0000205C0500205807002010B500BF34
:104C600006A0FEF701FD07A0FEF7FEFC07A0FEF779
:104C7000FBFC0CA0FEF7F8FC00BF10BD1B5B303B3B
:104C800033326D00494E464F3A2000004E6F2049A6
:104C9000525120726F7574696E6520646566696E25
:104CA00065640A001B5B306D0000000010B500BF9A
:104CB00006A0FEF7D9FC07A0FEF7D6FC07A0FEF77A
:104CC000D3FC0CA0FEF7D0FC00BF10BD1B5B303B3B
:104CD00033326D00494E464F3A2000004E6F204956
:104CE000525120726F7574696E6520646566696ED5
:104CF00065640A001B5B306D0000000010B50248BF
:104D000000F052FB10BD00006600002010B500BF8F
:104D100006A0FEF7A9FC07A0FEF7A6FC07A0FEF779
:104D2000A3FC0CA0FEF7A0FC00BF10BD1B5B303B3A
:104D300033326D00494E464F3A2000004E6F2049F5
:104D4000525120726F7574696E6520646566696E74
:104D500065640A001B5B306D0000000010B500BFE9
:104D600006A0FEF781FC07A0FEF77EFC07A0FEF779
:104D70007BFC0CA0FEF778FC00BF10BD1B5B303B3A
:104D800033326D00494E464F3A2000004E6F2049A5
:104D9000525120726F7574696E6520646566696E24
:104DA00065640A001B5B306D0000000010B500BF99
:104DB00006A0FEF759FC07A0FEF756FC07A0FEF779
:104DC00053FC0CA0FEF750FC00BF10BD1B5B303B3A
:104DD00033326D00494E464F3A2000004E6F204955
:104DE000525120726F7574696E6520646566696ED4
:104DF00065640A001B5B306D0000000010B500BF49
:104E000006A0FEF731FC07A0FEF72EFC07A0FEF778
:104E10002BFC0CA0FEF728FC00BF10BD1B5B303B39
:104E200033326D00494E464F3A2000004E6F204904
:104E3000525120726F7574696E6520646566696E83
:104E400065640A001B5B306D0000000010B500BFF8
:104E500006A0FEF709FC07A0FEF706FC07A0FEF778
:104E600003FC0CA0FEF700FC00BF10BD1B5B303B39
:104E700033326D00494E464F3A2000004E6F2049B4
:104E8000525120726F7574696E6520646566696E33
:104E900065640A001B5B306D0000000010B500BFA8
:104EA00006A0FEF7E1FB07A0FEF7DEFB07A0FEF77A
:104EB000DBFB0CA0FEF7D8FB00BF10BD1B5B303B3B
:104EC00033326D00494E464F3A2000004E6F204964
:104ED000525120726F7574696E6520646566696EE3
:104EE00065640A001B5B306D0000000010B500BF58
:104EF00006A0FEF7B9FB07A0FEF7B6FB07A0FEF77A
:104F0000B3FB0CA0FEF7B0FB00BF10BD1B5B303B3A
:104F100033326D00494E464F3A2000004E6F204913
:104F2000525120726F7574696E6520646566696E92
:104F300065640A001B5B306D0000000010B500BF07
:104F400006A0FEF791FB07A0FEF78EFB07A0FEF779
:104F50008BFB0CA0FEF788FB00BF10BD1B5B303B3A
:104F600033326D00494E464F3A2000004E6F2049C3
:104F7000525120726F7574696E6520646566696E42
:104F800065640A001B5B306D0000000010B500BFB7
:104F900006A0FEF769FB07A0FEF766FB07A0FEF779
:104FA00063FB0CA0FEF760FB00BF10BD1B5B303B3A
:104FB00033326D00494E464F3A2000004E6F204973
:104FC000525120726F7574696E6520646566696EF2
:104FD00065640A001B5B306D0000000010B50248DC
:104FE00000F0E2F910BD0000640000201CB5FDF7E0
:104FF00011FA01AB07223B493B480068FDF7B8FFB7
:1050000006223A493748401CFBF723F9002842D1D1
:1050100037480078012825D1324800783549097889
:10502000401AC4B234480088401C334908803348D1
:105030000088204431490880012C0EDD00BF30A0DB
:10504000FEF712FB30A0FEF70FFB611E30A0FEF74B
:105050000BFB35A0FEF708FB00BF2248007825496E
:10506000087006E00120224908701E480078214996
:10507000087000BF2EA0FEF7F7FA2FA0FEF7F4FA93
:10508000184801781D4802882DA0FEF7EDFA26A0E9
:10509000FEF7EAFA00BF19480088142820DAFDF765
:1050A000D9F93048016810480068FFF795F90446BF
:1050B000002C14D0032C12D100BF2BA0FEF7D4FA81
:1050C0002BA0FEF7D1FA2CA0F023304A30A100909B
:1050D00033A0FEF7C9FA14A0FEF7C6FA00BF00BF5E
:1050E0001CBD000058000020540000206D0000206E
:1050F0006C00002068000020600000206A00002092
:105100001B5B303B33336D005741524E3A20000059
:105110002564207061636B6574287329206D697341
:105120007365640A000000001B5B306D0000000026
:105130001B5B303B33326D00494E464F3A20000036
:10514000436F756E7465722076616C75653A2025C3
:10515000642C2050455220696E6465783A2025649D
:105160000A000000740000201B5B303B33316D00EF
:105170004552524F523A20004C52313158585F53E9
:1051800054415455535F4552524F5200F06B000842
:105190002E2E5C6D61696E5F7065722E630000007B
:1051A000496E202573202D20257320286C696E659B
:1051B000202564293A2025730A00000010B5024812
:1051C00000F0F2F810BD00006200002010B500BF32
:1051D00006A0FEF749FA07A0FEF746FA07A0FEF779
:1051E00043FA0CA0FEF740FA00BF10BD1B5B303B3A
:1051F00033326D00494E464F3A2000004E6F204931
:10520000525120726F7574696E6520646566696EAF
:1052100065640A001B5B306D0000000038B5FDF7C7
:1052200009F94FF47A70FCF7F0F929480078401C2E
:105230002749087000BF27A0FEF716FA27A0FEF73F
:1052400013FA2348017827A0FEF70EFA2AA0FEF7EA
:105250000BFA00BF07221E4929480068FFF792F9A0
:105260000446002C14D0032C12D100BF25A0FEF759
:10527000FBF926A0FEF7F8F926A0CA232A4A2BA19B
:1052800000902EA0FEF7F0F91BA0FEF7EDF900BF8D
:10529000FDF7F0F800211A480068FFF7FFF8044610
:1052A000002C14D0032C12D100BF16A0FEF7DCF99D
:1052B00016A0FEF7D9F917A0CD231B4A1BA1009019
:1052C0001EA0FEF7D1F90CA0FEF7CEF900BF38BD45
:1052D000580000201B5B303B33326D00494E464F77
:1052E0003A200000436F756E7465722076616C75AC
:1052F000653A2025640A00001B5B306D0000000049
:10530000540000201B5B303B33316D004552524F3F
:10531000523A20004C52313158585F535441545541
:10532000535F4552524F5200E56B00082E2E5C6DC4
:1053300061696E5F7065722E63000000496E202502
:1053400073202D20257320286C696E652025642923
:105350003A2025730A00000010B500BF06A0FEF732
:1053600083F907A0FEF780F907A0FEF77DF90CA0EE
:10537000FEF77AF900BF10BD1B5B303B33326D0086
:10538000494E464F3A2000004E6F2049525120723C
:105390006F7574696E6520646566696E65640A0080
:1053A0001B5B306D0000000038B50446FDF732F895
:1053B00014480078012802D12088401C2080FDF785
:1053C00049F81148016811480068FFF705F80546DB
:1053D000002D15D0032D13D100BF0DA0FEF744F909
:1053E0000DA0FEF741F90EA04FF48773114A12A1E8
:1053F000009015A0FEF738F91AA0FEF735F900BFA6
:1054000038BD00006C000020740000205400002013
:105410001B5B303B33316D004552524F523A2000F6
:105420004C52313158585F5354415455535F455293
:10543000524F5200FB6B00082E2E5C6D61696E5F4F
:105440007065722E63000000496E202573202D20A8
:10545000257320286C696E65202564293A20257300
:105460000A0000001B5B306D0000000010B500BF9B
:1054700031A0FEF7F9F832A0FEF7F6F832A0FEF7F9
:10548000F3F836A0FEF7F0F800BF00BF2AA0FEF741
:10549000EBF82BA0FEF7E8F80220FEF70BFE04461F
:1054A000214630A0FEF7E0F82CA0FEF7DDF800BFA3
:1054B00000BF21A0FEF7D8F821A0FEF7D5F82F49AC
:1054C0002FA0FEF7D1F825A0FEF7CEF800BF00BF51
:1054D00019A0FEF7C9F81AA0FEF7C6F816212FA0EA
:1054E000FEF7C2F81DA0FEF7BFF800BF00BF12A074
:1054F000FEF7BAF812A0FEF7B7F80120FEF77EF922
:10550000044621462CA0FEF7AFF814A0FEF7ACF835
:1055100000BF00BF08A0FEF7A7F809A0FEF7A4F897
:105520002BA0FEF7A1F80DA0FEF79EF800BF1AA071
:10553000FEF79AF810BD00001B5B303B33326D0064
:10554000494E464F3A200000436F6D6D6F6E2070DC
:105550006172616D65746572733A0A001B5B306D30
:10556000000000002020205061636B657420747976
:1055700070652020203D2025730A0000C0CA8936AE
:105580002020205246206672657175656E63792011
:10559000203D20257520487A0A0000002020204F59
:1055A000757470757420706F77657220203D2025AA
:1055B000692064426D0A000020202046616C6C6204
:1055C00061636B206D6F6465203D2025730A0000C8
:1055D000202020527820626F6F73742064656163AD
:1055E000746976617465640A0000000010B500BF3C
:1055F00061A0FEF739F862A0FEF736F862A0FEF768
:1056000033F869A0FEF730F800BF00BF5AA0FEF7DC
:105610002BF85BA0FEF728F80720FEF7CBFC04462A
:10562000214663A0FEF720F85FA0FEF71DF800BF3B
:1056300000BF51A0FEF718F851A0FEF715F804209E
:10564000FEF7D6FA0446214660A0FEF70DF856A0F4
:10565000FEF70AF800BF00BF47A0FEF705F848A014
:10566000FEF702F80120FEF78BFB044621465EA000
:10567000FDF7FAFF4CA0FDF7F7FF00BF52A0FDF7C2
:10568000F3FF00BF3CA0FDF7EFFF3DA0FDF7ECFFEF
:105690005CA0FDF7E9FF44A0FDF7E6FF00BF00BFF7
:1056A00035A0FDF7E1FF36A0FDF7DEFF08215CA085
:1056B000FDF7DAFF3CA0FDF7D7FF00BF00BF2EA02B
:1056C000FDF7D2FF2EA0FDF7CFFF0020FEF742FC32
:1056D000044621465BA0FDF7C7FF33A0FDF7C4FFDA
:1056E00000BF00BF24A0FDF7BFFF25A0FDF7BCFF52
:1056F00007215BA0FDF7B8FF2BA0FDF7B5FF00BFAA
:1057000000BF1DA0FDF7B0FF1DA0FDF7ADFF0120FC
:10571000FEF7C4FB044621465AA0FDF7A5FF22A0D0
:10572000FDF7A2FF00BF00BF13A0FDF79DFF14A06F
:10573000FDF79AFF0020FEF7DDFB0446214658A046
:10574000FDF792FF18A0FDF78FFF00BF1EA0FDF729
:105750008BFF00BF08A0FDF787FF09A0FDF784FFBE
:10576000122156A0FDF780FF0FA0FDF77DFF00BFBF
:1057700015A0FDF779FF10BD1B5B303B33326D0088
:10578000494E464F3A2000004C6F5261206D6F64C5
:10579000756C6174696F6E20706172616D6574659E
:1057A00072733A0A000000001B5B306D00000000BD
:1057B000202020537072656164696E6720666163A2
:1057C000746F72203D2025730A00000020202042C3
:1057D000616E647769647468202020202020202076
:1057E0003D2025730A000000202020436F64696E6D
:1057F0006720726174652020202020203D202573C1
:105800000A0000004C6F5261207061636B65742068
:10581000706172616D65746572733A0A0000000010
:10582000202020507265616D626C65206C656E672A
:105830007468203D2025642073796D626F6C287335
:10584000290A0000202020486561646572206D6F80
:10585000646520202020203D2025730A00000000E0
:105860002020205061796C6F6164206C656E6774D4
:105870006820203D20256420627974652873290AF8
:1058800000000000202020435243206D6F646520FB
:10589000202020202020203D2025730A0000000029
:1058A000202020495120202020202020202020209E
:1058B0002020203D2025730A000000004C6F52611B
:1058C0002073796E63776F7264203D2030782530C5
:1058D00032580A000121014A117070472C00002043
:1058E00070B50446204600F039FB08B9022070BDAF
:1058F000207B012842D1207C00283FD1D4E9081028
:105900001F4AC3B252F8232022EA1042030C93FA32
:10591000A3F3B3FA83F301FA03F31A43184BC5B2A6
:1059200043F8252000BF94F82C1048B200280DDB66
:1059300000BF00BF00F01F02012191404209920008
:1059400002F1E022C2F8001100BF00BF00BF94F8CE
:105950002C2050B20021002804DB0A07130E094A4C
:10596000135406E00A07150E074A00F00F031B1F29
:10597000D55400BF012020740020B8E70220B6E70C
:105980000800014000E400E018ED00E02DE9F041DE
:1059900004460E46204600F0E1FA10B90220BDE8A8
:1059A000F081D4E901100A6890FAA0F3B3FA83F306
:1059B0005F000323BB401A4090FAA0F3B3FA83F3CD
:1059C0005B0022FA03F500BF012D0FD1D4E90110CD
:1059D0004A690240824201D1012200E00022012AEC
:1059E00001D1012000E00020307012E07DB9D4E93F
:1059F00001100A690240824201D1012200E0002226
:105A0000012A01D1012000E00020307001E00320D4
:105A1000C5E70020C3E700002DE9F0418EB007463E
:105A20000D4690460126384600F072FA18B1012062
:105A30000EB0BDE8F08100F03BFA04460CB901203D
:105A4000F6E7002020702073386860607868A060F6
:105A50001822254908A8FAF7B3FBA06808906068E7
:105A600000F0D0F806460EB13046E1E708A96068BC
:105A7000FBF704FB08B10120DAE7687870B303A9EB
:105A8000204600F00BF906460EB13046D0E76878A4
:105A900007A900F023FA06460EB13046C8E795E89C
:105AA0000E00C4E9062361610020207403A991E877
:105AB0000E10C4E90A3CC4E908120B4A183207CA9E
:105AC0008DE80700A06A00900798C0B28DF80A0020
:105AD0006846FBF70FFA0120207300BF01202070F9
