:020000040800F2
:10000000700C00209D010008A5010008A701000850
:10001000A9010008AB010008AD01000800000000C4
:10002000000000000000000000000000AF01000818
:10003000B101000800000000B3010008B50100088C
:10004000B7010008B7010008B7010008B7010008B0
:10005000B7010008B7010008B91F000871200008A7
:1000600089200008A1200008B9200008B701000875
:10007000B7010008B7010008B7010008B701000880
:10008000B7010008B7010008B7010008B701000870
:10009000B7010008B7010008B7010008D120000827
:1000A000B7010008B7010008B7010008B701000850
:1000B000B7010008B7010008B7010008B701000840
:1000C000B7010008B7010008B7010008B701000830
:1000D000B7010008B70100080D2C0008B70100089F
:1000E000D11F0008B7010008B7010008B7010008D8
:1000F000B7010008B7010008B7010008B701000800
:10010000B7010008B7010008B7010008B7010008EF
:10011000B7010008B7010008B7010008B7010008DF
:10012000B7010008B7010008B7010008B7010008CF
:10013000B7010008B7010008B7010008B7010008BF
:10014000B7010008A9290008B7010008B701000895
:10015000B7010008B7010008B7010008B70100089F
:10016000B7010008B7010008B7010008B70100088F
:10017000B7010008B7010008B7010008000000003F
:10018000B7010008B7010008DFF80CD000F0E8FB69
:10019000004800477D5E0008700C0020064880473C
:1001A00006480047FEE7FEE7FEE7FEE7FEE7FEE75C
:1001B000FEE7FEE7FEE7FEE7F92B000889010008ED
:1001C00040EA01039B0703D009E008C9121F08C0D9
:1001D000042AFAD203E011F8013B00F8013B521E59
:1001E000F9D27047D2B201E000F8012B491EFBD2D0
:1001F00070470022F6E710B513460A460446194632
:10020000FFF7F0FF204610BD30B505462A460B46E5
:1002100012F8010B13F8014B08B1A042F8D01CB141
:10022000002802D06D1CF1E7284630BD10B5044609
:1002300004E00B7800F8013B03B1491C521EF8D2D0
:10024000204610BD421C10F8011B0029FBD1801A6A
:100250007047000070B50F4D00B92868002412E007
:100260000A4602E09E4203D0521C1378002BF9D1BB
:10027000DAB2224305D02BB124B1002100F8011BD2
:1002800004E00446401C0678002EE9D12860204690
:1002900070BD0000080100202DE9F05F93460F4675
:1002A00080460446002602F0F9FCD0F80090824611
:1002B00014F8015B2DB100F037FA0068405DC0070B
:1002C000F6D12B2D02D02D2D1AD0641E0021CAF894
:1002D00000105A463946204600F02AFA014627B156
:1002E0003868A04201D1C7F80080DAF8000002287F
:1002F00009D0CAF80090700505D5484200F005B84D
:1003000046F48066E2E70846F8E730BCBDE8C09FE7
:1003100070B5064602F0C2FC046805460A220021B8
:10032000304600F057FA2C6070BD2DE9FE4F804634
:1003300081EA0300C00F0C46009021F0004123F039
:100340000045B8EB0200A94105D24046214690463F
:100350001C460B46024623F00040104347D0270DB1
:10036000C7F30A00C3F30A510290401A01904028D3
:100370006BDAC3F3130040F4801B0098924620B15F
:100380000023D2EB030A63EB0B0B01985946C0F133
:100390004002504600F0A6F906460D465046594622
:1003A000019A00F0AEF910EB08006141002487EAE1
:1003B000115284EAE7731A4340D0009A62B3019A5B
:1003C000012A4FEA075215DC001B61EB02014FF0D6
:1003D000004202EA0752CDE90042001C41F58011BB
:1003E00032462B4600F03DFA03B000F045B84046D7
:1003F0002146F9E7001B61EB0201001C41F5801367
:1004000000185B412018A2F5001747EB030140EAF2
:10041000D570B6196D4111E06D084FEA360645EA10
:10042000C0754FEA0752001B61EB0201001C41F549
:10043000801149084FEA30000019514132462B46DD
:1004400003B000F01CB800F0FDB900980122400094
:100450000023D0EB020263EBE073009821464FEAE1
:10046000E074B8EB000061EB0401E9E783F00043BE
:100470005BE781F0004158E730BCBDE8C08F30BC7D
:10048000BDE8C04FFFF7DFBF2DE9FE4F81EA03044F
:1004900004F0004421F0004100944FF0000B23F0E1
:1004A000004350EA01045ED052EA03045BD0C3F378
:1004B0000A54C1F30A552C44A4F2F3340194A0FB6E
:1004C0000254C1F3130141F48011C3F3130343F445
:1004D000801301FB024400FB034E840A970A44EA9E
:1004E000815447EA8357A4FB076802958D0A05FBF0
:1004F00007854FEA932C04FB0C542705029D4FEA15
:10050000065847EA1637B5EB08056EEB070C870E61
:10051000920E47EA811742EA8312A7FB0201B6EB6B
:100520000B0164EB00042B0D43EA0C335E1844EB23
:100530001C50DA465146E7FB0201C5F313044FEAAB
:100540000B3343EA14534FEA0432019C43EA060397
:10055000A4F10C040294009CCDE900B400F081F9F0
:1005600003B000F003B800200146F9E730BCBDE855
:10057000C08F2DE9F04D81EA030404F0004B21F017
:10058000004514464FF0000A23F0004150EA0502EE
:1005900020D054EA01021DD0C5F30A570246C5F324
:1005A0001303C1F31300C1F30A5640F4801543F45A
:1005B0008013A7EB0608101BD64608F2FD3873EB34
:1005C000050002D308F1010801E092185B41B8F17F
:1005D000000F03DA00200146BDE8F08D00204FF443
:1005E0008011064684460EE0171B73EB050705D302
:1005F000121B63EB050306434CEA010C49084FEA62
:10060000300092185B4150EA0107EDD152EA030035
:1006100012D082EA040083EA0501084305D0101BCA
:10062000AB4106D20122002306E000224FF0004336
:1006300002E06FF0010253101AEB06004CEB085178
:1006400010EB0A0041EB0B01BDE8F04D00F0FAB8E9
:1006500030B50B46014600202022012409E021FA92
:1006600002F59D4205D303FA02F5491B04FA02F58F
:100670002844151EA2F10102F1DC30BD2DE9F05F26
:100680000546002092469B46884606468146402401
:100690001BE0284641464746224600F073F9534680
:1006A0005A46C01A914110D311461846224600F00E
:1006B00019F82D1A67EB01084F4622460120002148
:1006C00000F010F817EB00094E41201EA4F10104C0
:1006D000DFDC484631462A46434600F000B830BCCD
:1006E000BDE8C09F202A04DB203A00FA02F1002076
:1006F00070479140C2F1200320FA03F31943904060
:100700007047202A06DBCB17203A41FA02F043EA71
:10071000E07306E041FA02F3D040C2F120029140BA
:100720000843194670470000004870470C8A0008CB
:100730002DE9F05F82460078002715468B460AF1C6
:100740000104B946302801D09DB113E014F8010B23
:100750000127782803D0582801D045B10AE00DB10F
:10076000102D07D10027102514F8010B02E00825F1
:1007700000E00A250026B0460EE005FB080005FB58
:1007800006F1012701EB10461FFA80F8B6F5803F0D
:1007900000D3B94614F8010B294600F003F90028EC
:1007A000EBDABBF1000F05D00FB1641E00E0544638
:1007B000CBF80040B9F1000F06D002F06FFA022129
:1007C0000160C81E00F003B848EA0640FAE730BCF2
:1007D000BDE8C09F2DE9F04791460F46804604468C
:1007E000002614F8015B2DB1FFF79EFF0068405D05
:1007F000C007F6D12B2D02D02D2D18D0641E4A46ED
:1008000039462046FFF794FF27B13968A14201D14C
:10081000C7F8008071054FF002040BD54042002854
:1008200003DD02F03BFA0460A007BDE8F08746F460
:100830008066E4E70028F8DA02F030FA04606FF02E
:100840000040F2E710B5141E73F1000408DA401CF2
:1008500041F1000192185B411A4301D120F00100DF
:1008600010BD2DE9F04D92469B4611B1B1FA81F2CF
:1008700002E0B0FA80F220329046FFF733FF0446E0
:100880000F4640EA0A0041EA0B0153465A46084324
:1008900013D0114653EA010019D0C8F14002504666
:1008A00000F070F805460E46504659464246FFF79E
:1008B00019FF084305D0012004E020463946BDE871
:1008C000F08D0020054346EAE0762C4337430A9832
:1008D0006305E40AA0EB08000022FD0A44EA47543D
:1008E0000A3002D500200146E9E7010510196941E7
:1008F000DDE9084500196941BDE8F04DA2E7C1F303
:100900000A52C1F3130140F2FF3341F480119A42BD
:1009100002DA00200146704740F233439A42A2F2C5
:10092000334202DC524200F02DB8FFF7DBBE00007C
:1009300030B5041E71F1000404DB4FF00044404266
:1009400064EB0101141E73F1000405DB1C464FF03B
:100950000043524263EB0403994208BF904230BD0A
:10096000064C074D06E0E06840F0010394E80700FC
:1009700098471034AC42F6D3FFF70AFCE48C000829
:10098000048D0008202A04DB203A21FA02F000211D
:10099000704721FA02F3D040C2F12002914008438F
:1009A000194670473A2800D2303820F02002412AF8
:1009B00001D3A2F13700884201D34FF0FF307047D6
:1009C00070B504460D46A08AE18A401AA84215DA9D
:1009D00000BF10A004F0B2F810A004F0AFF8A08A95
:1009E000E18A421A29460F4804F0A8F80EA004F044
:1009F000A5F800BFA08AE18A401A85B2E38AE269BD
:100A0000D0182A46A169FFF7DBFBE08A2844E08280
:100A100070BD00001B5B303B33336D005741524EBD
:100A20003A2000000C8C00081B5B306D00000000B9
:100A30002DE9F04104460E4615461F4604B186B91D
:100A400000BF2CA004F07AF82CA004F077F82DA0B9
:100A500004F074F835A004F071F800BF0020BDE880
:100A6000F08120212046FFF7C4FB2660072239468B
:100A7000201DFFF7DBFB284605F026FCA061284679
:100A800005F022FCE061A06908B1E069A8B900BFE7
:100A900018A004F053F819A004F050F825A004F0B1
:100AA0004DF822A004F04AF800BFA06904F004F851
:100AB000E06904F001F80020D1E72946A069FFF7BA
:100AC00098FB2946E069FFF794FBA582002020618E
:100AD000E06000BF22A004F031F823A004F02EF85B
:100AE000394623A004F02AF810A004F027F800BF2C
:100AF0000120B4E71B5B303B33316D004552524F50
:100B0000523A20004154435F496E6974206661691E
:100B10006C65643A20696E76616C696420706172FC
:100B2000616D65746572732E0A0000001B5B306D89
:100B3000000000004154435F496E6974206661699A
:100B40006C65643A206D656D6F727920616C6C6FB5
:100B5000636174696F6E206661696C65642E0A005A
:100B60001B5B303B33326D00494E464F3A2000004C
:100B700041544320696E697469616C697A656420C7
:100B80006F6E2025730A00002DE9F0470446E08AC5
:100B900000283CDD002531E0E26852F83510E069BC
:100BA000FFF732FB064646B3E06800EBC50040683D
:100BB00018B30027B846E16851F83500FFF742FB4B
:100BC000305C3D2811D1E16851F83500FFF73AFB60
:100BD000304400F101090FA14846FFF73BFB0746EF
:100BE0000CA10020FFF736FB8046E06800EBC50053
:100BF000414642683846904700BF6D1C2069A842B4
:100C0000CAD80020E082A18AE069FFF7F2FABDE8C5
:100C1000F08700002C00000070B506460D4606B1B6
:100C20000DB9002070BD002400E0641C55F83400AC
:100C300020B105EBC40040680028F6D1F5603461AE
:100C400000BF08A003F07AFF08A003F077FF214659
:100C500008A003F073FF10A003F070FF00BF012095
:100C6000E0E700001B5B303B33326D00494E464FDE
:100C70003A200000415443206576656E747320630A
:100C80006F6E666967757265642E20546F74616C4F
:100C90003A2025640A0000001B5B306D0000000054
:100CA00070B504460E46002C76D02046FFF730FB88
:100CB000054600BF40A003F041FF41A003F03EFF06
:100CC000294641A003F03AFF45A003F037FF00BFDB
:100CD0007D2D37D00EDC1F2D28D006DC0A2D19D033
:100CE0000F2D1BD0142D45D11CE0292D22D03E2DD7
:100CF00040D123E0B5F5C87F34D004DCC82D2DD019
:100D0000FA2D37D122E0B5F5FA7F23D0B5F5487F2B
:100D100030D12BE00820344908603BE00120324903
:100D2000086037E009203049086033E002202E498E
:100D300008602FE00A202C4908602BE003202A4994
:100D4000086027E004202849086023E005202649A0
:100D500008601FE00620244908601BE00D2022499E
:100D6000086017E00E202049086013E00F201E499C
:100D700008600FE000BF10A003F0E0FE10A003F039
:100D8000DDFE1AA003F0DAFE15A003F0D7FE00BFC7
:100D900070BD01E000BF0DE000BF07A003F0CEFE74
:100DA00007A003F0CBFE18A003F0C8FE0CA003F0D0
:100DB000C5FE00BF00BFEBE71B5B303B33326D006D
:100DC000494E464F3A20000042616E6420776964C4
:100DD00074682073657420746F3A2025640A0000DB
:100DE0001B5B306D00000000EC000020496E766156
:100DF0006C696420706172616D65746572207661E2
:100E00006C75652E0A000000496E76616C6964207D
:100E1000706172616D657465722E0A0070B5054669
:100E20000E46002D4BD02846FFF772FA044600BF4D
:100E30002BA003F083FE2CA003F080FE21462CA003
:100E400003F07CFE30A003F079FE00BF082C25D211
:100E5000DFE804F004080C1014181C2000202C49B2
:100E600008602AE001202A49086026E0022028497B
:100E7000086022E00320264908601EE0042024497F
:100E800008601AE005202249086016E00620204983
:100E9000086012E007201E4908600EE000BF10A0A5
:100EA00003F04CFE10A003F049FE1AA003F046FE2A
:100EB00015A003F043FE00BF70BD00BF0DE000BFF2
:100EC00007A003F03BFE08A003F038FE18A003F0D3
:100ED00035FE0DA003F032FE00BF00BFECE70000BE
:100EE0001B5B303B33326D00494E464F3A200000C9
:100EF000506172616D657465722073657420746FE2
:100F00003A2025640A0000001B5B306D00000000E1
:100F1000F0000020496E76616C6964207061726136
:100F20006D657465722076616C75652E0A0000002F
:100F3000496E76616C696420706172616D6574657B
:100F4000722E0A0070B504460E46ACB12046FFF77B
:100F5000DFF9054600BF10A003F0F0FD10A003F07C
:100F6000EDFD294610A003F0E9FD15A003F0E6FD14
:100F700000BF154805600DE000BF07A003F0DEFDCF
:100F800007A003F0DBFD11A003F0D8FD0CA003F0D7
:100F9000D5FD00BF70BD00001B5B303B33326D00E0
:100FA000494E464F3A2000004357205377697463F7
:100FB000682073657420746F3A2025640A0000006D
:100FC0001B5B306D00000000F4000020496E76616C
:100FD0006C696420706172616D657465722E0A00BF
:100FE000F8B504460E46002C28D00A226946204651
:100FF000FFF752F905460098007868B100BF17A0C6
:1010000003F09CFD17A003F099FD18A003F096FDD6
:1010100025A003F093FD10E000BF10A003F08EFDAB
:1010200010A003F08BFD294621A003F087FD1EA030
:1010300003F084FD00BF254805600DE000BF07A058
:1010400003F07CFD07A003F079FD21A003F076FDFD
:1010500015A003F073FD00BFF8BD00001B5B303B23
:1010600033326D00494E464F3A200000496E76619A
:101070006C6964206672657175656E637920706154
:1010800072616D657465723A206E6F6E2D6E756D4E
:10109000657269632063686172616374657220665A
:1010A0006F756E642E0A00001B5B306D000000003F
:1010B0004672657175656E63792073657420746F0F
:1010C0003A20257520487A0A00000000E000002040
:1010D000496E76616C6964206672657175656E63D0
:1010E0007920706172616D657465722E0A0000006E
:1010F00070B504460D4600BFE3A003F01FFDE4A059
:1011000003F01CFDE4A003F019FDE8A003F016FDB8
:1011100000BF00BFDCA003F011FDDDA003F00EFD59
:10112000E44803F00BFDE1A003F008FD00BF00BFA1
:10113000D5A003F003FDD6A003F000FDDEA003F070
:10114000FDFCDAA003F0FAFC00BF00BFCEA003F064
:10115000F5FCCFA003F0F2FCE74803F0EFFCD3A0CE
:1011600003F0ECFC00BF00BFC7A003F0E7FCC8A081
:1011700003F0E4FCE14803F0E1FCCCA003F0DEFC6A
:1011800000BF00BFC0A003F0D9FCC1A003F0D6FC93
:10119000DBA003F0D3FCC5A003F0D0FC00BF00BF70
:1011A000B9A003F0CBFCBAA003F0C8FCDCA003F0AC
:1011B000C5FCBEA003F0C2FC00BF00BFB2A003F09C
:1011C000BDFCB3A003F0BAFCE5A003F0B7FCB7A0E8
:1011D00003F0B4FC00BF00BFABA003F0AFFCACA0B9
:1011E00003F0ACFCEE4803F0A9FCB0A003F0A6FCB1
:1011F00000BF00BFA4A003F0A1FCA5A003F09EFCCB
:10120000E8A003F09BFCA9A003F098FC00BF00BF7E
:101210009DA003F093FC9EA003F090FCEEA003F0D1
:101220008DFCA2A003F08AFC00BF00BF96A003F0D3
:1012300085FC97A003F082FCF3A003F07FFC9BA049
:1012400003F07CFC00BF00BF8FA003F077FC90A0F0
:1012500003F074FCF5A003F071FC94A003F06EFCA5
:1012600000BF00BF88A003F069FC89A003F066FC02
:10127000F5A003F063FC8DA003F060FC00BF00BF8D
:1012800081A003F05BFC82A003F058FCF5A003F002
:1012900055FC86A003F052FC00BF00BF7AA003F00B
:1012A0004DFC7BA003F04AFCF5A003F047FC7FA0B7
:1012B00003F044FC00BF00BF73A003F03FFC74A028
:1012C00003F03CFCF5A003F039FC78A003F036FCF9
:1012D00000BF00BF6CA003F031FC6DA003F02EFC3A
:1012E000F5A003F02BFC71A003F028FC00BF00BFA9
:1012F00065A003F023FC66A003F020FCF6A003F039
:101300001DFC6AA003F01AFC00BF00BF5EA003F042
:1013100015FC5FA003F012FCF7A003F00FFC63A024
:1013200003F00CFC00BF00BF57A003F007FC58A05F
:1013300003F004FCF8A003F001FC5CA003F0FEFB4A
:1013400000BF00BF50A003F0F9FB51A003F0F6FB73
:10135000F8A003F0F3FB55A003F0F0FB00BF00BFC3
:1013600049A003F0EBFB4AA003F0E8FBF5A003F073
:10137000E5FB4EA003F0E2FB00BF00BF42A003F07C
:10138000DDFB43A003F0DAFBF2A003F0D7FB47A09C
:1013900003F0D4FB00BF00BF3BA003F0CFFB3CA099
:1013A00003F0CCFBEFA003F0C9FB40A003F0C6FBA9
:1013B00000BF00BF34A003F0C1FB35A003F0BEFBAB
:1013C000ECA003F0BBFB39A003F0B8FB00BF00BFEB
:1013D0002DA003F0B3FB2EA003F0B0FBE9A003F0B7
:1013E000ADFB32A003F0AAFB00BF00BF26A003F0B4
:1013F000A5FB27A003F0A2FBE6A003F09FFB2BA018
:1014000003F09CFB00BF00BF1FA003F097FB20A0D0
:1014100003F094FBE3A003F091FB24A003F08EFB08
:1014200000BF00BF18A003F089FB19A003F086FBE2
:10143000E0A003F083FB1DA003F080FB00BF00BF12
:1014400011A003F07BFB12A003F078FBDDA003F0FA
:1014500075FB16A003F072FB00BF00BF0AA003F0EB
:101460006DFB0BA003F06AFBE5A003F067FB0FA088
:1014700003F064FB00BF00BF03A003F05FFB04A008
:1014800003F05CFBDAE100001B5B303B33326D00A4
:10149000494E464F3A20000041542B48454C5020BD
:1014A00072656365697665642E0A00001B5B306DAA
:1014B00000000000EC8A000841542B504F57455261
:1014C0003D3C706F7765723E203A205365742074FE
:1014D000686520706F77657220696E2064426D20A8
:1014E00028652E672E2C2041542B504F5745523DD6
:1014F0003134290A00000000808B0008C88B0008E6
:1015000041542B5354415254203A20537461727405
:1015100020746865206F7065726174696F6E0A006F
:1015200041542B53463D3C53463E203A205365746C
:101530002074686520537072656164696E67204627
:101540006163746F722028652E672E2C2041542B06
:1015500053463D3720666F7220534637290A0000F4
:1015600041542B42573D3C42573E203A205365742C
:10157000207468652042616E64776964746820280D
:10158000652E672E2C2041542B42573D3132352099
:10159000666F7220313235206B487A290A000000CC
:1015A000388B000841542B545253573D3C706172A4
:1015B000616D3E203A20536574207468652054584C
:1015C0002F52582073776974636820706172616D5F
:1015D000657465720A00000041542B435753573D10
:1015E0003C706172616D3E203A20536574207468CE
:1015F0006520435720737769746368207061726156
:101600006D657465720A0000417661696C61626C97
:101610006520537072656164696E6720466163740A
:101620006F727320285346293A0A00002020353A69
:10163000204C52313158585F524144494F5F4C4F12
:1016400052415F5346350A002020363A204C523131
:101650003158585F524144494F5F4C4F52415F539C
:1016600046360A002020373A204C52313158585F14
:10167000524144494F5F4C4F52415F5346370A0035
:101680002020383A204C52313158585F5241444959
:101690004F5F4C4F52415F5346380A002020393A81
:1016A000204C52313158585F524144494F5F4C4FA2
:1016B00052415F5346390A002031303A204C5231B2
:1016C0003158585F524144494F5F4C4F52415F532C
:1016D0004631300A000000002031313A204C5231AE
:1016E0003158585F524144494F5F4C4F52415F530C
:1016F0004631310A000000002031323A204C52318C
:101700003158585F524144494F5F4C4F52415F53EB
:101710004631320A00000000417661696C61626CFA
:10172000652042616E64776964746873202842574B
:10173000293A0A0020202031302E3432206B487A9A
:101740000A00000020202031352E3633206B487AE5
:101750000A00000020202032302E3833206B487AD7
:101760000A00000020202033312E3235206B487AC9
:101770000A000000202034312E3637206B487A0AC8
:101780000000000020202036322E3530206B487AB1
:101790000A0000002020203132352E3030206B48E6
:1017A0007A0A00002020203235302E3030206B485D
:1017B0007A0A00002020203530302E3030206B484F
:1017C0007A0A000020203230332E3030206B487AE5
:1017D000202832473420616E6420636F6D7061741D
:1017E00069626C652077697468204C5231313278B7
:1017F000206368697073206F6E6C79290A0000009D
:1018000020203430362E3030206B487A2028324762
:101810003420616E6420636F6D70617469626C6501
:101820002077697468204C523131327820636869BE
:101830007073206F6E6C79290A00000050A003F0CD
:101840007DF9AFF2983003F079F900BF00BFAFF235
:10185000C83003F073F9AFF2C83003F06FF957A046
:1018600003F06CF9AFF2BC3003F068F900BF00BFC1
:10187000AFF2EC3003F062F9AFF2EC3003F05EF956
:1018800056A003F05BF9AFF2DC3003F057F900BF6C
:1018900000BFAFF20C4003F051F9AFF20C4003F07F
:1018A0004DF954A003F04AF9AFF2004003F046F9B5
:1018B00000BF00BFAFF2304003F040F9AFF230405C
:1018C00003F03CF94EA003F039F9AFF2204003F0E9
:1018D00035F900BF00BFAFF2504003F02FF9AFF26F
:1018E000504003F02BF949A003F028F9AFF244402F
:1018F00003F024F900BF00BFAFF2744003F01EF9FB
:10190000AFF2744003F01AF943A003F017F9AFF2F5
:10191000644003F013F900BF00BFAFF2944003F03E
:101920000DF9AFF2944003F009F93EA003F006F977
:10193000AFF2884003F002F900BF00BFAFF2B84039
:1019400003F0FCF8AFF2B84003F0F8F839A003F068
:10195000F5F8AFF2A84003F0F1F800BF00BFAFF216
:10196000D84003F0EBF8AFF2D84003F0E7F835A029
:1019700003F0E4F8AFF2CC4003F0E0F800BF70BD34
:1019800020203831322E3030206B487A20283247E0
:101990003420616E6420636F6D70617469626C6580
:1019A0002077697468204C5231313278206368693D
:1019B0007073206F6E6C79290A00000041766169AE
:1019C0006C61626C6520436F64696E67205261745C
:1019D000657320284352293A0A0000002020303A3B
:1019E000204E6F20636F64696E6720726174650AB0
:1019F000000000002020313A20342F350A0000007A
:101A00002020323A20342F360A0000002020333ABA
:101A100020342F370A0000002020343A20342F3899
:101A20000A0000002020353A204C4920342F350A86
:101A3000000000002020363A204C4920342F360A7E
:101A4000000000002020373A204C4920342F380A6B
:101A50000000000070B504460E46ACB12046FEF70B
:101A600057FC054600BF10A003F068F810A003F073
:101A700065F8294610A003F061F815A003F05EF8A0
:101A800000BF154805600DE000BF07A003F056F841
:101A900007A003F053F811A003F050F80CA003F0D6
:101AA0004DF800BF70BD00001B5B303B33326D0052
:101AB000494E464F3A2000004E425F4652414D4546
:101AC0002073657420746F3A2025640A00000000BA
:101AD0001B5B306D00000000F8000020496E76614D
:101AE0006C696420706172616D657465722E0A00A4
:101AF00070B504460E469CB12046FEF709FC05462B
:101B000000BF0FA003F01AF80FA003F017F8294642
:101B10000FA003F013F814A003F010F800BF0DE0BD
:101B200000BF07A003F00AF807A003F007F810A011
:101B300003F004F80CA003F001F800BF70BD000032
:101B40001B5B303B33326D00494E464F3A2000005C
:101B5000506172616D657465722073657420746F75
:101B60003A2025640A0000001B5B306D0000000075
:101B7000496E76616C696420706172616D6574652F
:101B8000722E0A0070B504460E46ACB12046FEF730
:101B9000BFFB054600BF10A002F0D0FF10A002F06E
:101BA000CDFF294610A002F0C9FF15A002F0C6FF24
:101BB00000BF154805600DE000BF07A002F0BEFFA2
:101BC00007A002F0BBFF11A002F0B8FF0CA002F0CA
:101BD000B5FF00BF70BD00001B5B303B33326D00B2
:101BE000494E464F3A200000506F7765722073656A
:101BF0007420746F3A2025642064426D0A0000004E
:101C00001B5B306D00000000DC000020496E766137
:101C10006C696420706F77657220706172616D65A8
:101C20007465722E0A00000070B504460E46ACB111
:101C30002046FEF76DFB054600BF10A002F07EFFB8
:101C400010A002F07BFF294610A002F077FF16A03B
:101C500002F074FF00BF164805600DE000BF07A04A
:101C600002F06CFF07A002F069FF12A002F066FF0D
:101C70000DA002F063FF00BF70BD00001B5B303B96
:101C800033326D00494E464F3A20000052585F42B1
:101C90004F4F5354205377697463682073657420E1
:101CA000746F3A2025640A001B5B306D0000000051
:101CB000FC000020496E76616C696420706172617D
:101CC0006D657465722E0A0070B504460E46002CD0
:101CD0004CD02046FEF71CFB054600BF2BA002F0AF
:101CE0002DFF2CA002F02AFF29462CA002F026FF8F
:101CF00030A002F023FF00BF681F082825D2DFE8CC
:101D000000F004080C1014181C2005202B49086052
:101D10002AE006202949086026E0072027490860B4
:101D200022E00820254908601EE0092023490860B8
:101D30001AE00A202149086016E00B201F490860BC
:101D400012E00C201D4908600EE000BF0FA002F059
:101D5000F5FE10A002F0F2FE19A002F0EFFE15A0B1
:101D600002F0ECFE00BF70BD00BF0DE000BF07A099
:101D700002F0E4FE07A002F0E1FE18A002F0DEFE91
:101D80000CA002F0DBFE00BF00BFECE71B5B303BAA
:101D900033326D00494E464F3A2000005061726167
:101DA0006D657465722073657420746F3A202564C4
:101DB0000A0000001B5B306D00000000E8000020FE
:101DC000496E76616C696420706172616D657465DD
:101DD000722076616C75652E0A000000496E76618E
:101DE0006C696420706172616D657465722E0A00A1
:101DF00070B504460E46ACB12046FEF789FA05469A
:101E000000BF10A002F09AFE10A002F097FE294633
:101E100010A002F093FE15A002F090FE00BF15483E
:101E200005600DE000BF07A002F088FE07A002F0E9
:101E300085FE11A002F082FE0CA002F07FFE00BF22
:101E400070BD00001B5B303B33326D00494E464F86
:101E50003A200000534C4545502054696D6520736D
:101E6000657420746F3A2025640A00001B5B306D96
:101E70000000000000010020496E76616C6964205A
:101E8000706172616D657465722E0A0070B50446EA
:101E90000D4600BF0FA002F051FE10A002F04EFE52
:101EA00010A002F04BFE14A002F048FE00BF00BFDD
:101EB00008A002F043FE09A002F040FE10A002F0CC
:101EC0003DFE0DA002F03AFE00BF0120124908605D
:101ED00070BD00001B5B303B33326D00494E464FF6
:101EE0003A20000041542B535441525420726563F0
:101EF00065697665642E0A001B5B306D000000008A
:101F0000537461727420746865206F7065726174B7
:101F1000696F6E2E2E2E0A004000002070B5044618
:101F20000E46ACB12046FEF7F3F9054600BF10A0FF
:101F300002F004FE10A002F001FE294610A002F0FB
:101F4000FDFD15A002F0FAFD00BF154805600DE08B
:101F500000BF07A002F0F2FD07A002F0EFFD11A004
:101F600002F0ECFD0CA002F0E9FD00BF70BD000026
:101F70001B5B303B33326D00494E464F3A20000028
:101F8000506172616D657465722073657420746F41
:101F90003A2025640A0000001B5B306D0000000041
:101FA000E4000020496E76616C69642070617261A2
:101FB0006D657465722E0A0010B5012000F00AFAF2
:101FC00028B1012000F0E8F8012005F0ABFA10BDBF
:101FD00010B54FF4806000F0FDF938B14FF4806027
:101FE00000F0DAF84FF4806005F09CFA4FF40060DE
:101FF00000F0F0F938B14FF4006000F0CDF84FF484
:10200000006005F08FFA4FF4805000F0E3F938B12A
:102010004FF4805000F0C0F84FF4805005F082FA81
:102020004FF4005000F0D6F938B14FF4005000F0F2
:10203000B3F84FF4005005F075FA4FF4804000F00B
:10204000C9F938B14FF4804000F0A6F84FF4804051
:1020500005F068FA4FF4004000F0BCF938B14FF4D5
:10206000004000F099F84FF4004005F05BFA10BD15
:1020700010B5022000F0AEF928B1022000F08CF873
:10208000022005F04FFA10BD10B5042000F0A2F9AF
:1020900028B1042000F080F8042005F043FA10BDB8
:1020A00010B5082000F096F928B1082000F074F867
:1020B000082005F037FA10BD10B5102000F08AF99D
:1020C00028B1102000F068F8102005F02BFA10BDA0
:1020D00010B5202000F07EF928B1202000F05CF837
:1020E000202005F01FFA402000F074F928B14020AC
:1020F00000F052F8402005F015FA802000F06AF94F
:1021000028B1802000F048F8802005F00BFA4FF449
:10211000807000F05FF938B14FF4807000F03CF847
:102120004FF4807005F0FEF94FF4007000F052F9A2
:1021300038B14FF4007000F02FF84FF4007005F044
:10214000F1F910BD08B50549C96C0143034AD164D2
:102150001146C96C0140009100BF08BD001002404B
:1021600008B50549C96C0143034AD1641146C96CDD
:102170000140009100BF08BD0010024008B50549AC
:10218000C96C0143034AD1641146C96C01400091F6
:1021900000BF08BD00100240014908607047000000
:1021A00014040140024909688143014A11607047E3
:1021B00004040140024909688143014A11607047E3
:1021C00024040140024909688143014A11607047B3
:1021D00000040140024909688143014A11607047C7
:1021E00020040140024909680143014A1160704717
:1021F00004040140024909680143014A1160704723
:1022000024040140024909680143014A11607047F2
:102210000C040140024909680143014A11607047FA
:102220002C040140024909680143014A11607047CA
:1022300000040140024909680143014A11607047E6
:1022400020040140024909680143014A11607047B6
:1022500008040140024909680143014A11607047BE
:102260002804014070B504460025207A00287BD060
:10227000206800284BD0607A20B1012809D00228BC
:1022800015D10DE02068FFF78DFF2068FFF7CAFF2A
:102290000FE02068FFF796FF2068FFF7A3FF08E034
:1022A0002068FFF7BFFF2068FFF79CFF01E00125D2
:1022B00000BF00BFA07A50B3A07A012804D0022842
:1022C0000DD003281FD117E02068414909688143D8
:1022D0003F4A116000BF2068FFF7B4FF16E0206896
:1022E0003B49091F09688143394A121F116000BF29
:1022F0002068FFF787FF09E02068FFF7A3FF206849
:10230000FFF780FF02E045F0020500BF00BF6068F4
:1023100000285AD0607A20B1012809D0022815D1AE
:102320000DE06068FFF746FF6068FFF783FF10E08D
:102330006068FFF74FFF6068FFF75CFF09E06068C7
:10234000FFF778FF6068FFF755FF02E045F00405EE
:1023500000BF00BFA07A58B3A07A012805D0022898
:1023600010D0032822D11AE023E0606818492031F8
:1023700009688143164A2032116000BF6068FFF788
:1023800069FF15E0606812491C3109688143104AF1
:102390001C32116000BF6068FFF73CFF08E0606816
:1023A000FFF758FF6068FFF735FF01E0012500BF28
:1023B0000BE02068FFF706FF2068FFF7F3FE606878
:1023C000FFF708FF6068FFF7F5FE284670BD0000C4
:1023D0000C0401400146044800680840884201D1CD
:1023E000012070470020FCE714040140F0B50246CC
:1023F0000B46186890FAA0F0B0FA80F487E001204C
:10240000A0401D6805EA000100297FD05868012816
:1024100002D0586802281DD19868956891FAA1F6F3
:10242000B6FA86F677000326BE40B54391FAA1F6C8
:10243000B6FA86F6760000FA06F63543956000BFD8
:10244000DD6818685668864300FB05F73E43566012
:1024500000BF00BF1869D56891FAA1F6B6FA86F6F2
:1024600077000326BE40B54391FAA1F6B6FA86F688
:10247000760000FA06F63543D56000BF586802289A
:102480002DD1FF2914D85869156A91FAA1F6B6FA28
:1024900086F6B7000F26BE40B54391FAA1F6B6FA0C
:1024A00086F6B60000FA06F63543156200BF16E060
:1024B0005869556A0E0A96FAA6F6B6FA86F6B70075
:1024C0000F26BE40B5430E0A96FAA6F6B6FA86F671
:1024D000B60000FA06F63543556200BF00BF5868E3
:1024E000156891FAA1F6B6FA86F677000326BE4083
:1024F000B54391FAA1F6B6FA86F6760000FA06F62A
:102500003543156000BF00E000E000BF641C1868A0
:10251000E04000287FF473AFF0BD4FF47A71B0FB58
:10252000F1F2521E4FF0E0235A6100229A61052217
:102530001A6100BF704700002DE9F04104460025F4
:10254000C02C29D1204600F05DF8B0F5400F17D01F
:10255000A0F54000403820B1402806D0802819D18D
:1025600008E000F081FA054615E000F0EDF800B152
:10257000224D10E000F0F0F808B14FF400450AE0F9
:1025800000F072FA074600F03BFA064600F048FAFF
:10259000054600E000BF00BFB4F5407F2AD12046C9
:1025A00000F030F8B0F1407F18D01549084430B140
:1025B000B0F5807F07D0B0F5007F19D108E000F0BA
:1025C00053FA054615E000F0BFF800B10B4D10E0DE
:1025D00000F0C2F808B14FF400450AE000F044FAF8
:1025E000074600F00DFA064600F01AFA054600E02C
:1025F00000BF00BF2846BDE8F08100000024F400C1
:1026000000FFFFFC014603480068084040EA014023
:1026100070470000881002402DE9F0410446002573
:10262000032C29D1204600F085F8B0F5403F17D0A3
:102630006FF44031084420B1012806D0022819D196
:1026400008E000F011FA054615E000F07DF800B151
:10265000374D10E000F080F808B14FF400450AE073
:1026600000F002FA074600F0CBF9064600F0EAF95E
:10267000054600E000BF57E00C2C29D1204600F0B1
:1026800059F8B0F5402F17D0A0F54020001F20B119
:10269000042806D0082819D108E000F0E5F905461D
:1026A00015E000F051F800B1214D10E000F054F8B1
:1026B00008B14FF400450AE000F0D6F9074600F0F3
:1026C0009FF9064600F0ACF9054600E000BF2BE09C
:1026D000302C29D1204600F02DF8B0F5401F17D03E
:1026E000A0F54010103820B1102806D0202819D1AC
:1026F00008E000F0B9F9054615E000F025F800B152
:102700000B4D10E000F028F808B14FF400450AE046
:1027100000F0AAF9074600F073F9064600F080F9C8
:10272000054600E000BF00BF2846BDE8F08100007C
:102730000024F400014603480068084040EA0140D4
:10274000704700008810024002480068C0F38020F3
:10275000704700000010024002480068C0F34000CB
:1027600070470000901002400248006800F0F0003E
:1027700070470000001002400248006800F47060DA
:10278000704700009410024002480068C0F3C00087
:1027900070470000001002400248C06800F070005E
:1027A00070470000001002400248C06800F00300BB
:1027B00070470000001002400248C068C0F30620C5
:1027C000704700000010024030B50246012300BFF0
:1027D0001068C0F38010A0BBD1E900042043CC688E
:1027E00020430C6920434C6920438C692043CC6909
:1027F00020430C6A204314684FF6BF75AC43204356
:1028000010604C69886840EA1440546840F60475CA
:10281000AC43204350608868B0F5006F07D21803BE
:10282000546824F480540443546000BF00BF086A15
:10283000B0F5005F04D1486A84B2146100BF00BFE4
:102840000023184630BD00000149086070470000B1
:10285000040100202DE9F04104460D460127002621
:10286000204600F080F8002868D1E96868680843CD
:1028700029690843A96908432168324A114008437D
:102880002060A868616821F440510143616000BF85
:102890006869A16821F440710143A16000BF2A4822
:1028A000844204D10320FFF7B7FE06461FE0274805
:1028B000844204D10C20FFF7AFFE064617E02448FF
:1028C000844204D13020FFF7A7FE06460FE02148DE
:1028D000844204D1C020FFF72FFE064607E01E48C1
:1028E000844204D14FF44070FFF726FE06462EB313
:1028F000286818B300273146AB692868B3F5004F44
:1029000012D14FEA410808EB5008B8FBF0F81FFA63
:1029100088F24FF6F07802EA080CC2F342084CEA5B
:10292000080CC4F80CC007E001EB5008B8FBF0F845
:102930001FFA88F8C4F80C8000BF00BF3846BDE815
:10294000F0810000F369FFEF0038014000440040CF
:1029500000480040004C0040005000400146C8695B
:10296000C0F3401070470146086800F0010070474E
:102970000146086800F00100704708B501464FF0B5
:10298000E02212690092084600BF421C02B1401CBE
:1029900006E04FF0E022126902F4803202B1401EDC
:1029A0000028F6D108BD000010B500BF124800682D
:1029B000C0F34000F0B100BF0F48406840F0020093
:1029C0000D49486000BF002412E00C4800EB0410E1
:1029D0004068094988420AD1084800EB0410C068E1
:1029E00028B1064901EB0411C868804710BD641C7A
:1029F000012CEADB00BFF9E7007C00403C06002028
:102A0000014600BF0448806800F0F0000009034A56
:102A1000125C21FA02F07047001002405085000855
:102A2000014600BF0548806800F4E060044A02EBFC
:102A30001020027821FA02F07047000000100240D6
:102A400060850008014600BF0548806800F46050BA
:102A5000044A02EBD020027821FA02F0704700000D
:102A6000001002406085000810B500BF294880684A
:102A700000F00C0030B1042822D0082822D00C2805
:102A800026D121E0FFF780FE60B9FFF77DFE10B18F
:102A9000FFF76AFE01E0FFF76FFE000A1E4951F8DA
:102AA00020000BE0FFF770FE10B1FFF75DFE01E0C4
:102AB000FFF762FE0009184951F82000044625E09E
:102AC000164C23E0164C21E000F02CF804461DE0E3
:102AD000FFF75AFE60B9FFF757FE10B1FFF744FE4B
:102AE00001E0FFF749FE000A0B4951F820000BE016
:102AF000FFF74AFE10B1FFF737FE01E0FFF73CFE9B
:102B00000009054951F82000044600BF00BF2046D7
:102B100010BD000000100240688500080024F40089
:102B200000127A0070B5FFF73FFE0546012D04D074
:102B3000022D20D0032D22D11FE0FFF725FE60B922
:102B4000FFF722FE10B1FFF70FFE01E0FFF714FEC2
:102B5000000A254951F820000BE0FFF715FE10B1DF
:102B6000FFF702FE01E0FFF707FE00091E4951F8DA
:102B70002000044621E01D4C1FE01D4C1DE0FFF726
:102B800003FE60B9FFF700FE10B1FFF7EDFD01E0B5
:102B9000FFF7F2FD000A144951F820000BE0FFF79F
:102BA000F3FD10B1FFF7E0FD01E0FFF7E5FD0009DF
:102BB0000D4951F82000044600BF00BFFFF7ECFDAF
:102BC000012101EB1010B4FBF0F6FFF7F5FD4643D1
:102BD0000848C06800F0C060012101EB506040006F
:102BE000B6FBF0F070BD0000688500080024F4001A
:102BF00000127A00001002400348006840F47000A0
:102C0000014908607047000088ED00E070B5184881
:102C1000FFF7A4FE50B300BF15480068C0F3401092
:102C200020B300BF1248808CC0B20546002419E0D2
:102C300004EB44000F4901EB800040680C498842D6
:102C40000FD104EB44000B4901EB8000806838B1E0
:102C500004EB44000A4602EB80008168284688475E
:102C600002E0641C012CE3DB00BF00BF70BD00006C
:102C7000004400403006002037B514460846064B95
:102C80006A46214600F0E4F804466946002000F058
:102C900079FC20463EBD000085350008004870479D
:102CA0001401002002E008C8121F08C1002AFAD14E
:102CB00070477047002001E001C1121F002AFBD1BC
:102CC000704700002DE9FF5F82B00021DDE904308C
:102CD000020DDDF840B0034318D044F61050A2F2C4
:102CE000FF3242431514119801281FD0A5EB0B00A9
:102CF000401C5FEA000A4FF000064E4FDFF83891A3
:102D0000B046504615D5CAF1000413E011980124CD
:102D10004AA3012801D16FEA0B010298119AC0E978
:102D20000031C0E9024206B000F08EB8CBF10000DD
:102D3000DFE704460021404A491842EB0450CDE940
:102D4000001012E0E00707D032463B4640464946B5
:102D5000FDF79AFB8046894632463B4610461946A7
:102D6000FDF792FB06460F466410002CEAD1DDE920
:102D70000401DDE90023BAF1000F06DAFDF784FB58
:102D800042464B46FDF780FB05E0FDF7F2FB42466D
:102D90004B46FDF7EEFB04460E460022284BFDF79E
:102DA000C7FD03D84FF0FF30014607E00022254B56
:102DB00020463146FDF7B9FAFDF7A1FD102409E0E0
:102DC000002C0ADB0A220023FDF758FC039B30325B
:102DD0001A55641E50EA0102F2D1641C039AC4F130
:102DE00011031444119A012A03D0012208430DD182
:102DF0000AE0084304D000204FF0110B119072E755
:102E0000A3EB0B056D1E0DE05B4504DD4FF00002EA
:102E100005F1010504E003DA4FF00002A5F1010518
:102E2000002AECD002981199C0E90231C0E90045AE
:102E300079E70000000014400000F03F300000007F
:102E40000000F0430000E03F30BCBDE8C09F000040
:102E50002DE9FF4F95B09B468946064600250FE2B7
:102E6000252877D100242746F84A0121059400E05F
:102E7000044316F8013F203B01FA03F01042F7D15A
:102E800030782A2811D06FF02F033078A0F130026B
:102E9000092A16D8059A44F0020402EB820203EBD9
:102EA00042021044761C0590EFE759F8042B059276
:102EB000002A03DA504244F40054059044F002041E
:102EC000761C30782E2816D116F8010F44F0040431
:102ED0002A280DD06FF02F023078A0F13003092B93
:102EE00009D807EB870302EB4303C718761CF3E707
:102EF00059F8047B761C30786C280FD006DC4C28FF
:102F000017D068280DD06A2814D104E0742810D096
:102F10007A280FD10DE044F400140AE044F4801440
:102F200001E044F440147278824202D104F5801426
:102F3000761C761C307866280BD013DC582877D0A6
:102F400009DC002875D04528F6D04628F4D047285B
:102F50001AD19DE118E0632835D0642879D065281E
:102F600012D195E1702873D008DC6728F1D0692868
:102F70006FD06E280DD06F2806D1B5E073282CD005
:102F8000752875D0782874D05A46179990476D1CCB
:102F900075E1C4F30250022809D003280DD0D9F8F6
:102FA000001004280DD00D6009F1040967E1D9F87B
:102FB0000010EA17C1E90052F6E7D9F800100D80B9
:102FC000F2E70D70F0E719F8041B8DF800100020EF
:102FD0008DF80100EA46012003E059F804AB4FF0F8
:102FE000FF3061074FF0000102D40DE008F101014C
:102FF0008846B9420FDA8045F8DB1AF80810002934
:10300000F4D108E008F1010188468142FADB1AF8A0
:1030100008100029F6D105985B46A0EB0807214669
:103020003846179A00F097FA284400EB080507E0A5
:103030004DE029E10DE01AF8010B5A461799904727
:10304000B8F10108F7D25B4621463846179A13E1DA
:1030500042E00A220092C4F302524FF0000A022A10
:1030600008D059F804CB032A4FEAEC710AD00DE0DE
:1030700029E02AE009F1070121F00702F2E802C184
:10308000914609E00FFA8CFC4FEAEC71042A03D157
:103090004FFA8CFC4FEAEC71002907DA0A4600214E
:1030A000DCF1000C61EB02012D2202E0220504D5C7
:1030B0002B228DF80420012203E0E20701D0202218
:1030C000F7E7904659E00A2102E010220DE01021B6
:1030D0004FF0000A00910BE010224FF0000A44F07C
:1030E00004040827009203E008224FF0000A00922F
:1030F000C4F30252022A05D059F804CB0021032A56
:1031000008D009E009F1070121F00702F2E802C145
:10311000914605E01FFA8CFC042A01D10CF0FF0C4B
:103120004FF00008220728D5702806D0009B83F0B6
:10313000100353EA0A0305D00EE040228DF8042064
:10314000012208E05CEA010206D030228DF804205A
:103150008DF8050002229046009B83F0080353EA95
:103160000A030AD15CEA010201D1620705D53022C7
:103170008DF804204FF001087F1E582804D034A099
:1031800003900EA802900DE036A0F9E75346604682
:10319000009AFDF773FA84460398825C0298401EF9
:1031A000029002705CEA0100F0D1029806A9081AA8
:1031B00000F1200A600702D524F4803400E00127E2
:1031C000574502DDA7EB0A0000E0002000EB0A01F2
:1031D000009005984144401A0590E00306D45B46F0
:1031E0002146179A059800F0B6F90544002706E035
:1031F00001A85A46C05D179990476D1C7F1C474532
:10320000F6DBE0030CD55B462146179A059800F0E3
:10321000A2F9054404E030205A46179990476D1CE6
:103220000099481E00900029F5DC08E002980299F8
:103230005A460078491C0291179990476D1CBAF1C3
:103240000001AAF1010AF1DC65E100000928010092
:10325000303132333435363738396162636465660C
:1032600000000000303132333435363738394142CE
:10327000434445460000000000F05BF90544761C1D
:10328000307800287FF4ECAD19B0284600F04EB934
:10329000620700D4062709F1070222F0070CFCE8B8
:1032A0000223E14603F000485FEA080C02D00FF267
:1032B000702C0DE05FEA045C02D50FF2682C07E089
:1032C0005FEAC47C02D00FF2602C01E0AFF2700C18
:1032D0004FF0FF3823F00043CDF850C065280CD0E4
:1032E00006DC452809D046281DD047283DD13DE0C1
:1032F000662818D067287ED138E00021112F01DB25
:10330000112000E0781CCDE9000106A90EA8FFF706
:10331000D9FCDDE90F010E9A03910021009207F11B
:10332000010A04914DE04FF000400097CDE90110F3
:1033300006A90EA8FFF7C6FCDDE90F0203920E9B5B
:1033400011990022DDF80CA00093049211B9791CA8
:1033500000EB010AB7EB0A0004D4C0F1FF3007F11B
:10336000010A0490AAEB0700019044E0012F00DA63
:1033700001270021112F01DD112000E03846CDE9A1
:10338000000106A90EA8FFF79DFCDDE90F010E9ACA
:103390000391002104910092BA4621070CD40399AD
:1033A000514500DA8A46BAF1010F05DD009AAAF10B
:1033B0000101515C302908D0B84202DA10F1040F43
:1033C00006DA0121CDE9011015E0AAF10101E9E7D2
:1033D000002805DC049901440491AAEB000102E0F5
:1033E000411C514500DD8A460499401A401C019059
:1033F0004FF000400290200704D40198504501DBB3
:10340000CDF8048000208DF84F0002980DF14F0791
:10341000B0F1004F25D02B200E9002984FF00208FB
:1034200000280CDA404202902D200E9007E00A217D
:103430000298FDF70DF93031029007F8011DB8F13F
:103440000001A8F10108F2DC02980028EFD1791EF2
:103450000E980870307800F0200040F0450007F822
:10346000020D12A8C01B00F107081498007800B1E3
:10347000012000EB0A01019801EBE071059841443D
:10348000401A401E0590E00306D45B462146179A79
:10349000059800F060F805441498007818B15A4671
:1034A000179990476D1CE00324D55B462146179A77
:1034B000059800F050F805441CE00498002807DB4C
:1034C000DDE90301884203DD0098405C179901E0C3
:1034D000179930205A469047049805F10105401C81
:1034E00004900198401E019004D12E205A4617994D
:1034F00090476D1CBAF10001AAF1010ADDDC05E07C
:1035000017F8010B5A46179990476D1CB8F1000146
:10351000A8F10108F4DC5B462146179A0598ABE652
:103520002D0000002B0000002000000030BCBDE892
:10353000C08F2DE9F041044600251E461746880439
:1035400004D405E039462020B0476D1C641EF9D52F
:103550002846BDE8F0812DE9F041044600251E46CD
:103560009046C80301D5302700E02027880404D501
:1035700005E041463846B0476D1C641EF9D5284623
:10358000BDE8F0810A68531C0B601070704702465A
:10359000102937D2DFE801F03633311B130A083621
:1035A0003432253636121110002070470C2A01D112
:1035B0000120FAE70020F8E700BF00BF00BF0C2A97
:1035C00001D00B2A01D10120EFE70020EDE70C2A02
:1035D00003D00B2A01D00A2A01D10120E5E70020FF
:1035E000E3E70C2A05D00B2A03D00A2A01D0092AC6
:1035F00001D10120D9E70020D7E700BF00BF00BFFD
:103600000120D2E70020D0E738B5044669462046BD
:1036100000F004F8684600F0C5FB38BDF8B5054673
:103620000E463146284602F03FFB0446002C15D0DA
:10363000032C13D100BF0AA001F080FA0AA001F008
:103640007DFA0BA04FF4C1730E4A0FA1009016A093
:1036500001F074FA1BA001F071FA00BFF8BD000080
:103660001B5B303B33316D004552524F523A2000C4
:103670004C52313158585F5354415455535F455261
:10368000524F5200C38300082E2E5C2E2E5C2E2E2D
:103690005C636F6D6D6F6E5C617070735F636F6D97
:1036A0006D6F6E2E63000000496E202573202D2063
:1036B000257320286C696E65202564293A202573BE
:1036C0000A0000001B5B306D0000000010B50320F5
:1036D00004F0CCFC2A4948630021294880F83810BE
:1036E00080F83910C163052004F0C0FC2449086249
:1036F0000021234880F82410012180F82510214959
:1037000081620021C162072004F0B0FC1C4988607E
:1037100001211B48017302214173102004F0A6FC13
:103720001749486101211648017602214176164861
:103730001349086001F14402486B383103F02AFE56
:103740000F4901F13002086A243103F023FE0C49CD
:1037500001F1100288680C3103F086FE084901F17E
:103760001C024869183103F07FFE0549086B03F01D
:1037700075FD0349091D081F04F0AAF9004810BD92
:1037800018010020517200080030014010B50548B2
:1037900000688079162804D003498868002103F066
:1037A000A5FE10BD300000206C01002010B50548BA
:1037B00000684079162804D003498868002103F086
:1037C00095FE10BD300000206001002010B50548B6
:1037D00000688079162804D003498868012103F025
:1037E00085FE10BD300000206C01002010B505489A
:1037F00000684079162804D003498868012103F045
:1038000075FE10BD300000206001002038B505466F
:103810000C46E548007801287DD10020E249087077
:103820006946284602F0D9F900BFE0A001F086F908
:10383000E0A001F083F9E1A0009901F07FF9E6A092
:1038400001F07CF900BF00982040009000BFD7A095
:1038500001F074F9D7A001F071F9E1A0009901F02D
:103860006DF9DDA001F06AF900BF009800F00400D6
:1038700004280FD100BFCDA001F060F9CDA001F068
:103880005DF9E2A001F05AF9D3A001F057F900BFA9
:1038900003F02AF9009800F0100010280FD100BFA3
:1038A000C2A001F04BF9C3A001F048F9DAA001F081
:1038B00045F9C9A001F042F900BF02F041FE0098AD
:1038C00000F0400040280FD100BFD8A001F036F929
:1038D000D8A001F033F9D9A001F030F9BEA001F071
:1038E0002DF900BF02F0C8FD009800F0200020284C
:1038F0000FD100BFADA001F021F9AEA001F01EF97B
:10390000D2A001F01BF9B4A001F018F900BF03F038
:10391000B5F8009800E045E100F0080008283CD127
:10392000009800F08000802810D100BFBFA001F0F7
:1039300005F9C0A001F002F9CBA001F0FFF8A6A0A4
:1039400001F0FCF800BF02F033FF26E0009800F021
:103950008070B0F1807F10D100BFB4A001F0EEF80C
:10396000B4A001F0EBF8C3A001F0E8F89AA001F0D0
:10397000E5F800BF02F046FD0FE000BF8BA001F0AC
:10398000DDF88CA001F0DAF8BFA001F0D7F892A022
:1039900001F0D4F800BF02F013FF009800F480702B
:1039A000B0F5807F34D100BF80A001F0C7F881A0BE
:1039B00001F0C4F8B7A001F0C1F887A001F0BEF88B
:1039C00000BF009800F40070B0F5007F10D100BF78
:1039D00076A001F0B3F877A001F0B0F8B0A001F044
:1039E000ADF87DA001F0AAF800BF02F0A3FC0FE043
:1039F00000BF6EA001F0A2F86EA001F09FF8AFA08A
:103A000001F09CF874A001F099F800BF02F0C6FC28
:103A1000009800F48060B0F5806F0FD100BFAFA0B8
:103A200001F08CF8AFA001F089F8B0A001F086F8A1
:103A300069A001F083F800BF03F018F8009800F0C7
:103A40000060B0F1006F0FD100BF58A001F076F810
:103A500058A001F073F8A8A001F070F85EA001F082
:103A60006DF800BF02F038FD009800F48040B0F51A
:103A7000804F0FD100BF4DA001F060F84DA001F0C4
:103A80005DF8A2A001F05AF853A001F057F800BF6A
:103A900002F0F4FD009800F40040B0F5004F0FD1A3
:103AA00000BF42A001F04AF842A001F047F89DA0F3
:103AB00001F044F848A001F041F800BF02F0A8FD71
:103AC000009800F48030B0F5803F0FD100BF37A0E0
:103AD00001F034F837A001F031F899A001F02EF888
:103AE0003DA001F02BF800BF02F0FCFD009800F4AF
:103AF0000030B0F5003F0FD100BF2CA001F01EF840
:103B00002CA001F01BF894A001F018F832A001F0ED
:103B100015F800BF02F048FD009800F48020B0F5D1
:103B2000802F0FD100BF21A001F008F821A001F0E3
:103B300005F88FA001F002F827A000F0FFFF00BFFA
:103B400002F004FE009800F48010B0F5801F0FD141
:103B500000BF16A000F0F2FF16A000F0EFFF88A053
:103B600000F0ECFF1CA000F0E9FF00BF03F05AF8E2
:103B7000009800F40020B0F5002F0FD100BF0BA07B
:103B800000F0DCFF0BA000F0D9FF82A000F0D6FF10
:103B900011A000F0D3FF00BF02F03CFC0DA000F02C
:103BA000CDFF00BF38BD00002C0000201B5B303B68
:103BB00033326D00494E464F3A200000496E74651D
:103BC000727275707420666C616773203D20307866
:103BD000253038580A0000001B5B306D00000000E3
:103BE000496E7465727275707420666C61677320BB
:103BF0002861667465722066696C746572696E67A7
:103C000029203D203078253038580A005478206427
:103C10006F6E650A00000000507265616D626C6530
:103C20002064657465637465640A00001B5B303B47
:103C300033316D004552524F523A2000486561645D
:103C40006572206572726F720A00000053796E63AC
:103C5000776F7264206F7220686561646572207688
:103C6000616C69640A000000435243206572726F00
:103C7000720A000046534B206C656E6774682065BD
:103C800072726F720A000000527820646F6E650ACB
:103C90000000000043414420646F6E650A0000008C
:103CA0004368616E6E656C206163746976697479CE
:103CB0002064657465637465640A00004E6F206358
:103CC00068616E6E656C20616374697669747920D1
:103CD00064657465637465640A0000001B5B303BB7
:103CE00033336D005741524E3A2000005278207411
:103CF000696D656F75740A004C6F526120527820AF
:103D000074696D657374616D700A00005254546F6C
:103D10004620726571756573742076616C69640AFA
:103D2000000000005254546F46207265717565732F
:103D300074206469736361726465640A0000000042
:103D40005254546F4620726573706F6E73652064B1
:103D50006F6E650A000000005254546F462065786B
:103D60006368616E67652076616C69640A000000B3
:103D70005254546F462074696D656F75740A000063
:103D800057692D4669207363616E20646F6E650A02
:103D900000000000474E5353207363616E20646F30
:103DA0006E650A0010B5044600BF43A000F0C6FED1
:103DB00043A000F0C3FE44A000F0C0FE48A000F005
:103DC000BDFE00BF00BF3CA000F0B8FE3CA000F06C
:103DD000B5FE618844A000F0B1FE41A000F0AEFE47
:103DE00000BF00BF34A000F0A9FE35A000F0A6FE81
:103DF000217843A000F0A2FE39A000F09FFE00BF92
:103E000000BF2DA000F09AFE2DA000F097FE617873
:103E1000414800F093FE32A000F090FE00BF6078B1
:103E2000012815D1608840F20141884210D000BFBE
:103E30003AA000F083FE3BA000F080FE618840F2D3
:103E400001423A4800F07AFE25A000F077FE00BF5C
:103E50006078022814D1608840F2012188420FD096
:103E600000BF2EA000F06AFE2EA000F067FE40F218
:103E700001212FA000F062FE19A000F05FFE00BF3C
:103E80006078032814D1608840F2031188420FD073
:103E900000BF22A000F052FE22A000F04FFE40F230
:103EA000031132A000F04AFE0DA000F047FE00BF53
:103EB0003DA000F043FE10BD1B5B303B33326D0074
:103EC000494E464F3A2000004C52313178782069F3
:103ED0006E666F726D6174696F6E3A0A0000000061
:103EE0001B5B306D0000000020202D204669726DA4
:103EF00077617265203D203078253034580A000003
:103F000020202D204861726477617265203D203049
:103F100078253032580A0000548A00081B5B303B79
:103F200033336D005741524E3A200000A08A0008FA
:103F30004C523131323020646F65736E27742075B6
:103F40007365206C6174657374206669726D776146
:103F500072652076657273696F6E20776869636831
:103F6000206973203078253032580A004C523131A4
:103F7000323120646F65736E277420757365206C11
:103F80006174657374206669726D776172652076FD
:103F9000657273696F6E2077686963682069732042
:103FA0003078253032580A000A000000F8B506467D
:103FB000AE48007842B2AE480168AE4804F02CF832
:103FC00005467DB900BFACA000F0B8FDACA000F084
:103FD000B5FDADA000F0B2FDB6A000F0AFFD00BF92
:103FE00000BFFEE702F0B0FE0221304601F0C8FB40
:103FF0000446002C15D0032C13D100BF9EA000F066
:104000009DFD9FA000F09AFDACA040F2B513B04A10
:10401000B0A10090B7A000F091FDA6A000F08EFD29
:1040200000BF93480168304601F0BEFB0446002CF7
:1040300015D0032C13D100BF8FA000F07FFD90A0FE
:1040400000F07CFD9DA040F2B713A14AA1A1009011
:10405000A8A000F073FD97A000F070FD00BF844899
:104060000168844803F0E1FF07463946304601F015
:10407000BBFB0446002C15D0032C13D100BF7EA03F
:1040800000F05CFD7EA000F059FD8CA04FF4DD73C4
:104090008F4A90A1009097A000F050FD85A000F0FD
:1040A0004DFD00BF691C304601F04AFB0446002C60
:1040B00015D0032C13D100BF6FA000F03FFD70A0FE
:1040C00000F03CFD7DA04FF4DE73814A81A1009099
:1040D00088A000F033FD77A000F030FD00BF95F917
:1040E00000100222304601F065FC0446002C15D079
:1040F000032C13D100BF60A000F020FD60A000F0F1
:104100001DFD6EA040F2BD13714A72A1009079A00E
:1041100000F014FD67A000F011FD00BF0121304642
:1041200001F0D6FB0446002C15D0032C13D100BFA0
:1041300051A000F003FD52A000F000FD5FA04FF47D
:10414000DF73634A63A100906AA000F0F7FC59A0F6
:1041500000F0F4FC00BF6E48006808B1012000E0E8
:1041600000200146304600F09DFD0446ACB1032C12
:1041700013D100BF40A000F0E1FC41A000F0DEFC44
:104180004EA040F2BF13524A52A1009059A000F035
:10419000D5FC48A000F0D2FC00BF02F0DBFE5D4879
:1041A00000785D4908705D48007848705C48007888
:1041B00088705A4A1178574A1078FFF7E8F956493B
:1041C000C870304601F060FA0446ACB1032C13D13C
:1041D00000BF29A000F0B2FC29A000F0AFFC37A07E
:1041E00040F2C9133A4A3BA1009042A000F0A6FC5D
:1041F00030A000F0A3FC00BF4A49304601F064FA49
:104200000446ACB1032C13D100BF1BA000F096FCF8
:104210001BA000F093FC29A04FF4E5732C4A2DA1BC
:10422000009034A000F08AFC22A000F087FC00BFC0
:104230001221304601F070FA0446ACB1032C13D1C0
:1042400000BF0DA000F07AFC0DA000F077FC1BA0D1
:1042500040F2CB131E4A1FA1009026A000F06EFC76
:1042600014A000F06BFC00BFF8BD0000DC000020D3
:10427000E0000020000000201B5B303B33316D006C
:104280004552524F523A2000496E76616C69642063
:10429000746172676574206672657175656E6379A5
:1042A000206F7220706F776572206C6576656C0A7E
:1042B000000000001B5B306D000000004C523131EB
:1042C00058585F5354415455535F4552524F520012
:1042D000E48300082E2E5C2E2E5C2E2E5C636F6D08
:1042E0006D6F6E5C617070735F636F6D6D6F6E2E5E
:1042F00063000000496E202573202D20257320289F
:104300006C696E65202564293A2025730A00000037
:10431000FC000020E800002020000020EC0000202D
:10432000F00000207C8300082DE9FC4180460E4609
:1043300017461C4600BF4FA000F000FC4FA000F045
:10434000FDFB50A000F0FAFB58A000F0F7FB00BF07
:1043500001A9404600F0A0FE9DF8040020702078DE
:10436000B84211DD00BF53A000F0E8FB53A000F0FD
:10437000E5FB21783A46534800F0E0FB4BA000F003
:10438000DDFB00BFBDE8FC819DF804309DF80520F1
:104390003146404601F05EFB00BF22784AA14EA0A4
:1043A00000F0CCFB00250BE005F00F0018B915B1AB
:1043B0004EA000F0C3FB715D4DA000F0BFFB6D1C73
:1043C0002078A842F0D849A000F0B8FB00BF00BF99
:1043D00028A000F0B3FB29A000F0B0FB46A000F03D
:1043E000ADFB32A000F0AAFB00BF6946404600F0DA
:1043F00039FD00BF1FA000F0A1FB20A000F09EFB34
:104400009DF9001040A000F099FB28A000F096FB59
:1044100000BF00BF17A000F091FB18A000F08EFBBA
:104420009DF902103FA000F089FB20A000F086FB60
:1044300000BF00BF0FA000F081FB10A000F07EFBCA
:104440009DF9011040A000F079FB18A000F076FB68
:1044500000BF00BF07A000F071FB08A000F06EFBDA
:104460003FA000F06BFB11A000F068FB00BF00BF95
:1044700088E700001B5B303B33326D00494E464FEE
:104480003A200000456E746572696E672061707035
:10449000735F636F6D6D6F6E5F6C72313178785FD3
:1044A000726563656976650A000000001B5B306D0C
:1044B000000000001B5B303B33316D004552524F12
:1044C000523A2000108A00085061636B65742063C3
:1044D0006F6E74656E7400002573202D2028256C86
:1044E00075206279746573293A0A00000A00000099
:1044F00020253032580000005061636B65742073D2
:1045000074617475733A0A0020202D205253534968
:10451000207061636B6574203D2025692064426DC5
:104520000A00000020202D205369676E616C205224
:10453000535349207061636B6574203D20256920C9
:1045400064426D0A0000000020202D20534E5220AE
:104550007061636B6574203D2025692064420A0008
:1045600045786974696E6720617070735F636F6D01
:104570006D6F6E5F6C72313178785F7265636569FB
:1045800076650A002DE9FC478146484601F0B0FBFC
:104590008046B8F1000F16D0B8F1030F13D100BF59
:1045A000A2A000F0CBFAA3A000F0C8FAA3A040F2AA
:1045B0005D13A74AA7A10090AEA000F0BFFAB4A077
:1045C00000F0BCFA00BF00BFB349C8688047064688
:1045D0003146484601F0F2FB8046B8F1000F16D094
:1045E000B8F1030F13D100BF90A000F0A7FA91A07B
:1045F00000F0A4FA91A040F26113954A95A10090B1
:104600009CA000F09BFAA2A000F098FA00BF00BFA7
:10461000A1498868804707463946484601F06EFB45
:104620008046B8F1000F16D0B8F1030F13D100BFC8
:104630007EA000F083FA7FA000F080FA7FA04FF404
:10464000B273834A83A100908AA000F077FA90A009
:1046500000F074FA00BF00BF8F4908698047044624
:1046600000BF2078012820D161784846626801F0B7
:10467000E5FB8046B8F1000F16D0B8F1030F13D157
:1046800000BF6AA000F05AFA6AA000F057FA6BA0C7
:1046900040F269136E4A6FA1009076A000F04EFAC6
:1046A0007BA000F04BFA00BF00BF00BF7A49486909
:1046B000804705466A782978484601F037FA8046EF
:1046C000B8F1000F16D0B8F1030F13D100BF57A0F7
:1046D00000F034FA57A000F031FA58A040F26D1300
:1046E0005B4A5CA1009063A000F028FA68A000F08B
:1046F00025FA00BF484601F02FFA8046B8F1000FB6
:1047000016D0B8F1030F13D100BF48A000F016FA7D
:1047100048A000F013FA49A040F26F134C4A4DA193
:10472000009054A000F00AFA59A000F007FA00BF68
:104730003F21484601F0E6F98046B8F1000F16D057
:10474000B8F1030F13D100BF38A000F0F7F939A07A
:1047500000F0F4F939A04FF4B8733D4A3DA1009040
:1047600044A000F0EBF94AA000F0E8F900BF01A96D
:10477000484601F04DFA8046B8F1000F16D0B8F166
:10478000030F13D100BF29A000F0D8F929A000F031
:10479000D5F92AA040F273132D4A2EA1009035A01E
:1047A00000F0CCF93AA000F0C9F900BF484601F08A
:1047B000D3F98046B8F1000F16D0B8F1030F13D12A
:1047C00000BF1AA000F0BAF91AA000F0B7F91BA0B8
:1047D0004FF4BA731E4A1FA1009026A000F0AEF954
:1047E0002BA000F0ABF900BF2C49484601F0C4F9FA
:1047F0008046B8F1000F16D0B8F1030F13D100BFF7
:104800000AA000F09BF90BA000F098F90BA040F271
:1048100075130F4A0FA1009016A000F08FF91CA08D
:1048200000F08CF900BF00F03BB800001B5B303B90
:1048300033316D004552524F523A20004C523131C3
:1048400058585F5354415455535F4552524F52008C
:10485000A48300082E2E5C2E2E5C2E2E5C636F6DC2
:104860006D6F6E5C617070735F636F6D6D6F6E2ED8
:1048700063000000496E202573202D202573202819
:104880006C696E65202564293A2025730A000000B2
:104890001B5B306D0000000000000020FCCFFF0B10
:1048A0000CBCBDE8F087000010B500F0DBF802F0AA
:1048B00023FB00BF06A000F041F907A000F03EF97D
:1048C00007A000F03BF907A000F038F900BF10BDC9
:1048D0001B5B303B33326D00494E464F3A2000009F
:1048E0000A0000001B5B306D0000000010B500BF27
:1048F0003249886980473249086008460068407933
:10490000162811D00968487903F0B0FB2D490860DA
:104910000020087102212B484171014601F1080273
:104920000868091D02F0A0FD254800688079162856
:1049300012D023490968887903F098FB224908605E
:1049400000200871022120484171014601F108024E
:104950000868091D02F088FD19480068C07916280A
:1049600012D017490968C87903F080FB174908601D
:1049700000200871022115484171014601F1080229
:104980000868091D02F070FD0D48006800791628BE
:1049900012D00B490968087903F068FB0C490860DC
:1049A0000020087102210A484171014601F1080204
:1049B0000868091D02F058FD10BD0000000000202D
:1049C00030000020600100206C01002078010020F0
:1049D0008401002010B5044600BF0EA000F0AEF820
:1049E0000EA000F0ABF821460EA000F0A7F813A02F
:1049F00000F0A4F800BF00BF06A000F09FF807A0D9
:104A000000F09CF80FA000F099F80CA000F096F8C8
:104A100000BF10BD1B5B303B33326D00494E464F2B
:104A20003A20000041542B5045522072656365695D
:104A30007665643A2025730A000000001B5B306D28
:104A400000000000526573657474696E67205045FC
:104A500052206D6561737572656D656E742E2E2EB4
:104A60000A00000010B500BF07A000F067F808A01A
:104A700000F064F80848016808A000F05FF80CA096
:104A800000F05CF800BF10BD1B5B303B33326D00A3
:104A9000494E464F3A2000003400002053444B203A
:104AA00076657273696F6E3A2025730A0000000004
:104AB0001B5B306D0000000010B5002821D0114BA9
:104AC0000022001F196803E0814203D80A464968A2
:104AD0000029F9D152B11368841A9C4204D10068AC
:104AE00018441060104602E0506000E0186039B1D0
:104AF00002680B1A934203D10B681A44026049689A
:104B0000416010BD0C01002010B50220012806D024
:104B1000022809D10549064800F0CCF910BD054925
:104B2000054800F01FF9F9E70020F7E72000002012
:104B30007C83000884830008908300080FB408B5C4
:104B400003A800900099029803F0FCFB002000905D
:104B500001B05DF814FB000000A0704776322E34DF
:104B60002E3100002DE9F04104460E461746254639
:104B7000284600F05BF80021286902F0B7FC3B46AC
:104B800032460021686803F02FF80121286902F0FD
:104B9000ADFC0020BDE8F0812DE9FC4704468846C5
:104BA00016461F46DDF8289025460020019000900B
:104BB000284600F03BF80021286902F097FC3346B4
:104BC00000224146686803F00FF80121286902F0CD
:104BD0008DFC284600F02AF80021286902F086FCA6
:104BE00001236A4601A9686802F0FEFF4B463A4677
:104BF0000021686802F0F8FF0121286902F076FCC4
:104C0000002000F000B80CBCBDE8F08770B5044689
:104C100025460021E86902F069FC0120FDF7ADFEA0
:104C20000121E86902F062FC002070BD38B504463D
:104C3000254600BF6946686C02F066FB9DF80000DF
:104C40000128F7D038BD2DE9F047044688461646BE
:104C50001F46DDF8209025462846FFF7E7FF002194
:104C6000286902F043FC334600224146686802F09E
:104C7000BBFF4B4600223946686802F0B5FF0121B0
:104C8000286902F033FC0020BDE8F08710B5044627
:104C900000234FF080420249204600F005FF10BD7E
:104CA0005400F3007CB505460C4607A0006801904F
:104CB0008DF8064000200346032201A900902846F3
:104CC000FFF7C1FF7CBD0000022700000146C803BA
:104CD0004FF47A72B0FBF2F07047000001460129F0
:104CE00004D0022904D0032906D103E003A07047B1
:104CF0000AA0FCE712A0FAE718A0F8E74C523131FD
:104D000058585F524144494F5F46414C4C424143E1
:104D10004B5F53544442595F524300004C5231316F
:104D200058585F524144494F5F46414C4C424143C1
:104D30004B5F53544442595F584F534300000000A7
:104D40004C52313158585F524144494F5F46414CB3
:104D50004C4241434B5F465300000000556E6B6E62
:104D60006F776E00F0B506460C46304600F00AF844
:104D70004FF47A7100FB01F725687819401EB0FBEB
:104D8000F5F0F0BD10B50146487920B1012804D0F6
:104D9000022806D103E0002205E0082203E00922F0
:104DA00001E0002010BD00BFC87907280FD2DFE85E
:104DB00000F00604080E0A0E0C00002308E0012390
:104DC00006E0022304E0012302E0022300E00023C6
:104DD00088790C790CB1012400E0002420441844A7
:104DE0000B881344CC78234403EBC000DAE70000BF
:104DF00001460020102927D2DFE801F0260B111709
:104E00001A1C1E26080E14262620222442F6B10063
:104E10001AE043F6095017E045F2611014E047F636
:104E2000122011E04AF2C3200EE04FF224400BE0C2
:104E3000064809E0064807E0064805E0064803E0A2
:104E4000064801E0064800BF00BF704748E801007F
:104E500090D0030020A10700F8180300F0310600ED
:104E6000E0630C00FEB506460C4611A000680290F7
:104E700000200190032001AB022202A900903046DD
:104E8000FFF78AFE05468DB99DF8040040104042A8
:104E900040B220709DF8050040B2801C8010607008
:104EA0009DF806004010404240B2A0702846FEBD6A
:104EB00002040000F0B506460C462146304600F0DC
:104EC0000DF84FF47A7100FB01F76078FFF790FF5F
:104ED00005467819401EB0FBF5F0F0BD2DE9F04F06
:104EE00088B0804698F8030007900E7898F8020082
:104EF000012800D100E000200690062E01DC0120F0
:104F000000E0002007468878042801DD012000E049
:104F10000020059098F80400012802D14FF0020A01
:104F200001E04FF0000A07980AEB0002C87808B1C8
:104F3000012000E000204FF0020A0AFB10640598EF
:104F400000286BD04FF0040ACDF808A091F802A019
:104F5000BAF1070F02D14FF0010B01E04FF0000B47
:104F60000AEB0B00DDF818A0BAF1000F31D0A6F162
:104F7000020A4FF0020B0BFB07AACDF804A04FEA80
:104F8000C20A0AFB00FADDF804B0CBEBCB0B4FEA08
:104F90008B0BDA4508DC4FEAC20A0AFB00F9DDF8A0
:104FA00004A04FEA8A0513E0DDF804A04FEACA0A1C
:104FB000CDF800A04FEA441A4FEAC20B0BFB00AB3E
:104FC0004FF0040EDDF800A00EFB1AB9A50000BFDB
:104FD00023E04FEA860A0AEBC70AAAF11C0A2AF064
:104FE00007034FEAC20A9A4509DDDDF81CA04FEA23
:104FF000CA0A9A4503DADDF81CA04FEACA03C3EBDC
:10500000C20CBCF1000F01DA4FF0000C0CFB00FAEF
:105010004FF0200B0BFB04A9A50010E0B00000EB43
:10502000C700A0F10803069800B9143BC3EBC20CFB
:10503000BCF1000F01DA4FF0000CE146A50009EBCE
:105040000500401E90FBF5F00390059838B988786C
:10505000001DDDF80CA000FB0AF008300390B8F842
:105060000000001D4FF0020A0AFB070A0398504493
:10507000049004988000401CA6F1020A4FF0010B36
:105080000BFA0AFB00FB0BF0401E08B000F000B862
:1050900030BCBDE8C08F0000FEB506460C460BA034
:1050A0000068029000200190022001AB024602A994
:1050B00000903046FFF770FD05462DB99DF80400BD
:1050C00020709DF8050060702846FEBD02030000B8
:1050D0000146102921D2DFE801F0200A0E12141631
:1050E0001820080C1020201A1C1E0DA0704712A0BA
:1050F000FCE717A0FAE71CA0F8E721A0F6E726A036
:10510000F4E72BA0F2E731A0F0E737A0EEE73DA0EF
:10511000ECE743A0EAE749A0E8E74FA0E6E7000094
:105120004C52313158585F524144494F5F4C4F52B5
:10513000415F42575F3130004C52313158585F5215
:105140004144494F5F4C4F52415F42575F313500F8
:105150004C52313158585F524144494F5F4C4F5285
:10516000415F42575F3230004C52313158585F52E4
:105170004144494F5F4C4F52415F42575F333100CA
:105180004C52313158585F524144494F5F4C4F5255
:10519000415F42575F3431004C52313158585F52B1
:1051A0004144494F5F4C4F52415F42575F36320096
:1051B0004C52313158585F524144494F5F4C4F5225
:1051C000415F42575F313235000000004C523131AF
:1051D00058585F524144494F5F4C4F52415F4257CC
:1051E0005F323530000000004C52313158585F5268
:1051F0004144494F5F4C4F52415F42575F35303019
:10520000000000004C52313158585F524144494F20
:105210005F4C4F52415F42575F3230300000000018
:105220004C52313158585F524144494F5F4C4F52B4
:10523000415F42575F343030000000004C52313142
:1052400058585F524144494F5F4C4F52415F42575B
:105250005F38303000000000556E6B6E6F776E0067
:105260000146082915D2DFE801F00406080A0C0EF1
:10527000101209A070470EA0FCE714A0FAE71AA0CC
:10528000F8E720A0F6E726A0F4E72CA0F2E732A08A
:10529000F0E738A0EEE700004C52313158585F5229
:1052A0004144494F5F4C4F52415F4E4F5F43520064
:1052B0004C52313158585F524144494F5F4C4F5224
:1052C000415F43525F345F35000000004C52313182
:1052D00058585F524144494F5F4C4F52415F4352CF
:1052E0005F345F36000000004C52313158585F5235
:1052F0004144494F5F4C4F52415F43525F345F37E7
:10530000000000004C52313158585F524144494F1F
:105310005F4C4F52415F43525F345F3800000000E2
:105320004C52313158585F524144494F5F4C4F52B3
:10533000415F43525F4C495F345F35004C5231311D
:1053400058585F524144494F5F4C4F52415F43525E
:105350005F4C495F345F36004C52313158585F52D0
:105360004144494F5F4C4F52415F43525F4C495F4C
:10537000345F3800556E6B6E6F776E00014611B169
:10538000012904D101E003A0704709A0FCE70FA0A8
:10539000FAE700004C52313158585F524144494FAE
:1053A0005F4C4F52415F4352435F4F4646000000FF
:1053B0004C52313158585F524144494F5F4C4F5223
:1053C000415F4352435F4F4E00000000556E6B6ECD
:1053D0006F776E00014611B1012904D101E003A0ED
:1053E00070470AA0FCE711A0FAE700004C523131E7
:1053F00058585F524144494F5F4C4F52415F4951A9
:105400005F5354414E444152440000004C523131EC
:1054100058585F524144494F5F4C4F52415F495188
:105420005F494E564552544544000000556E6B6E20
:105430006F776E00014611B1012904D101E003A08C
:1054400070470AA0FCE711A0FAE700004C52313186
:1054500058585F524144494F5F4C4F52415F504B47
:10546000545F4558504C4943495400004C52313127
:1054700058585F524144494F5F4C4F52415F504B27
:10548000545F494D504C494349540000556E6B6E72
:105490006F776E000146481F082815D2DFE800F03C
:1054A0000406080A0C0E101208A070470DA0FCE7B5
:1054B00012A0FAE717A0F8E71CA0F6E721A0F4E78E
:1054C00026A0F2E72BA0F0E730A0EEE74C523131F6
:1054D00058585F524144494F5F4C4F52415F5346C9
:1054E000350000004C52313158585F524144494F09
:1054F0005F4C4F52415F5346360000004C523131F1
:1055000058585F524144494F5F4C4F52415F534698
:10551000370000004C52313158585F524144494FD6
:105520005F4C4F52415F5346380000004C523131BE
:1055300058585F524144494F5F4C4F52415F534668
:10554000390000004C52313158585F524144494FA4
:105550005F4C4F52415F5346313000004C52313165
:1055600058585F524144494F5F4C4F52415F534638
:10557000313100004C52313158585F524144494F4B
:105580005F4C4F52415F534631320000556E6B6E97
:105590006F776E000146062910D2DFE801F003059F
:1055A00007090B0D06A070470BA0FCE711A0FAE756
:1055B00017A0F8E71DA0F6E724A0F4E72AA0F2E779
:1055C0004C52313158585F524144494F5F504B540F
:1055D0005F4E4F4E450000004C52313158585F52DB
:1055E0004144494F5F504B545F545950455F4746C3
:1055F000534B00004C52313158585F524144494F8F
:105600005F504B545F545950455F4C4F524100001E
:105610004C52313158585F524144494F5F504B54BE
:105620005F545950455F4250534B00004C5231314A
:1056300058585F524144494F5F504B545F54595042
:10564000455F4C525F464853530000004C52313185
:1056500058585F524144494F5F504B545F54595022
:10566000455F5254544F4600556E6B6E6F776E0017
:1056700070B505460C462301F0220249284600F089
:1056800013FA70BD8C00F3003EB505460C460CA124
:1056900003C9CDE9010120788DF8060060788DF806
:1056A0000700A0788DF80800E0788DF80900002048
:1056B0000346062201A900902846FFF7C4FA3EBD22
:1056C000020F0000000000003EB505460C4610A188
:1056D00003C9CDE90101208800128DF80600207869
:1056E0008DF80700A0788DF80800E0788DF80900A3
:1056F00020798DF80A0060798DF80B0000200346B0
:10570000082201A900902846FFF79DFA3EBD00003F
:1057100002100000000000007CB505460C4607A002
:10572000006801908DF8064000200346032201A97D
:1057300000902846FFF787FA7CBD0000022B00008E
:105740003EB505460C460CA103C9CDE90101207800
:105750008DF8060060788DF80700A0788DF80800B5
:10576000E0788DF8090000200346062201A9009088
:105770002846FFF768FA3EBD021500000000000051
:105780007CB505460C4607A0006801908DF80640E0
:1057900000200346032201A900902846FFF753FA90
:1057A0007CBD0000020E00003EB505460C460CA173
:1057B00003C9CDE90101200E8DF80600200C8DF8FB
:1057C0000700200A8DF80800E0B28DF809000020DB
:1057D0000346062201A900902846FFF734FA3EBD91
:1057E000020B00000000000030B585B005460C46F5
:1057F0002DA30FCBCDE90323CDE90101607800F0A3
:105800000F01207861F31F108DF80600E07800F09A
:105810000F01A07861F31F108DF80700607900F088
:105820000F01207961F31F108DF80800E07900F076
:105830000F01A07961F31F108DF80900607A00F064
:105840000F01207A61F31F108DF80A00E07A00F052
:105850000F01A07A61F31F108DF80B00607B00F040
:105860000F01207B61F31F108DF80C00E07B00F02E
:105870000F01A07B61F31F108DF80D00207C00F05C
:105880000F008DF80E00608A000A8DF80F00A07CD2
:105890008DF81000002003460D2201A90090284633
:1058A000FFF7D1F905B030BD02290000000000006B
:1058B000000000000000000070B505460C462046C0
:1058C000FFF704FA06463146284600F015F870BD89
:1058D0007CB505460C4607A0006801908DF806408F
:1058E00000200346032201A900902846FFF7ABF9E8
:1058F0007CBD00000213000070B504460D46032273
:105900002946204600F002F870BD0000FEB50746AB
:105910000C461546032617A103C9CDE90101200C49
:105920008DF80600200A8DF80700E0B28DF8080017
:1059300000BF3846FFF7AAF9064606B116E0002078
:105940000346052201A900903846FFF77CF9064678
:1059500006B10BE0022D01D0012D06D129463846B3
:10596000FFF786FE064606B100E000BF00BF3046E6
:10597000FEBD0000020900000000000070B50546F1
:105980000C462046FFF7A2F906463146284600F0AD
:1059900029F870BD1CB5044605A0006801900020E0
:1059A0000346022201A900902046FFF74CF91CBDD6
:1059B000021900007CB506460C46154608A0006892
:1059C0000190E0B28DF806008DF8075000200346E4
:1059D000042201A900903046FFF735F97CBD000094
:1059E00002110000FEB506460C46032511A103C9AD
:1059F000CDE90101200C8DF80600200A8DF8070082
:105A0000E0B28DF8080000BF3046FFF73FF90546C9
:105A100005B10BE000200346052201A900903046A5
:105A2000FFF711F9054605B100E000BF00BF2846A9
:105A3000FEBD0000020A0000000000000B1203700F
:105A40004170130E8370130CC370130A03714271FB
:105A5000704700002DE9FC4107460D4616461C46DE
:105A600007A0006801908DF806608DF807402B466E
:105A7000042201A938460094FFF78EF8BDE8FC81A6
:105A8000010A00007CB506460C46154605A00068D4
:105A900001902346022201A930460095FFF7D3F872
:105AA0007CBD000001090000F0B585B007460E4638
:105AB00014461D4632464FF4867101A8FFF7BEFF1B
:105AC000200E8DF80A00200C8DF80B00200A8DF8AE
:105AD0000C00E0B28DF80D00280E8DF80E00280C99
