:020000040800F2
:10000000D80B00209D010008A5010008A7010008E9
:10001000A9010008AB010008AD01000800000000C4
:10002000000000000000000000000000AF01000818
:10003000B101000800000000B3010008B50100088C
:10004000B7010008B7010008B7010008B7010008B0
:10005000B7010008B7010008191D0008D11D0008EC
:10006000E91D0008011E0008191E0008B70100085C
:10007000B7010008B7010008B7010008B701000880
:10008000B7010008B7010008B7010008B701000870
:10009000B7010008B7010008B7010008311E0008C9
:1000A000B7010008B7010008B7010008B701000850
:1000B000B7010008B7010008B7010008B701000840
:1000C000B7010008B7010008B7010008B701000830
:1000D000B7010008B70100086D290008B701000842
:1000E000311D0008B7010008B7010008B70100087A
:1000F000B7010008B7010008B7010008B701000800
:10010000B7010008B7010008B7010008B7010008EF
:10011000B7010008B7010008B7010008B7010008DF
:10012000B7010008B7010008B7010008B7010008CF
:10013000B7010008B7010008B7010008B7010008BF
:10014000B701000809270008B7010008B701000837
:10015000B7010008B7010008B7010008B70100089F
:10016000B7010008B7010008B7010008B70100088F
:10017000B7010008B7010008B7010008000000003F
:10018000B7010008B7010008DFF80CD000F060FBF1
:1001900000480047F15A0008D80B00200648804765
:1001A00006480047FEE7FEE7FEE7FEE7FEE7FEE75C
:1001B000FEE7FEE7FEE7FEE759290008890100088F
:1001C00040EA01039B0703D009E008C9121F08C0D9
:1001D000042AFAD203E011F8013B00F8013B521E59
:1001E000F9D27047D2B201E000F8012B491EFBD2D0
:1001F00070470022F6E710B513460A460446194632
:10020000FFF7F0FF204610BD30B505462A460B46E5
:1002100012F8010B13F8014B08B1A042F8D01CB141
:10022000002802D06D1CF1E7284630BD10B5044609
:1002300004E00B7800F8013B03B1491C521EF8D2D0
:10024000204610BD421C10F8011B0029FBD1801A6A
:10025000704730B504460020034600E05B1C934223
:1002600003D2E05CCD5C401BF8D030BD70B50F4DC3
:1002700000B92868002412E00A4602E09E4203D03A
:10028000521C1378002BF9D1DAB2224305D02BB1DE
:1002900024B1002100F8011B04E00446401C06784C
:1002A000002EE9D12860204670BD0000F00000203B
:1002B00070B5064602F0A2FB046805460A2200213A
:1002C000304600F000FA2C6070BD2DE9FE4F8046EC
:1002D00081EA0300C00F0C46009021F0004123F09A
:1002E0000045B8EB0200A94105D2404621469046A0
:1002F0001C460B46024623F00040104347D0270D12
:10030000C7F30A00C3F30A510290401A0190402833
:100310006BDAC3F3130040F4801B0098924620B1BF
:100320000023D2EB030A63EB0B0B01985946C0F193
:100330004002504600F0A6F906460D465046594682
:10034000019A00F0AEF910EB08006141002487EA41
:10035000115284EAE7731A4340D0009A62B3019ABB
:10036000012A4FEA075215DC001B61EB02014FF036
:10037000004202EA0752CDE90042001C41F580111B
:1003800032462B4600F0E6F903B000F045B840468F
:100390002146F9E7001B61EB0201001C41F58013C7
:1003A00000185B412018A2F5001747EB030140EA53
:1003B000D570B6196D4111E06D084FEA360645EA71
:1003C000C0754FEA0752001B61EB0201001C41F5AA
:1003D000801149084FEA30000019514132462B463E
:1003E00003B000F01CB800F0A6B90098012240004C
:1003F0000023D0EB020263EBE073009821464FEA42
:10040000E074B8EB000061EB0401E9E783F000431E
:100410005BE781F0004158E730BCBDE8C08F30BCDD
:10042000BDE8C04FFFF7DFBF2DE9FE4F81EA0304AF
:1004300004F0004421F0004100944FF0000B23F041
:10044000004350EA01045ED052EA03045BD0C3F3D8
:100450000A54C1F30A552C44A4F2F3340194A0FBCE
:100460000254C1F3130141F48011C3F3130343F4A5
:10047000801301FB024400FB034E840A970A44EAFE
:10048000815447EA8357A4FB076802958D0A05FB50
:1004900007854FEA932C04FB0C542705029D4FEA75
:1004A000065847EA1637B5EB08056EEB070C870EC2
:1004B000920E47EA811742EA8312A7FB0201B6EBCC
:1004C0000B0164EB00042B0D43EA0C335E1844EB84
:1004D0001C50DA465146E7FB0201C5F313044FEA0C
:1004E0000B3343EA14534FEA0432019C43EA0603F8
:1004F000A4F10C040294009CCDE900B400F02AF9A8
:1005000003B000F003B800200146F9E730BCBDE8B5
:10051000C08F2DE9F04D81EA030404F0004B21F077
:10052000004514464FF0000A23F0004150EA05024E
:1005300020D054EA01021DD0C5F30A570246C5F384
:100540001303C1F31300C1F30A5640F4801543F4BA
:100550008013A7EB0608101BD64608F2FD3873EB94
:10056000050002D308F1010801E092185B41B8F1DF
:10057000000F03DA00200146BDE8F08D00204FF4A3
:100580008011064684460EE0171B73EB050705D362
:10059000121B63EB050306434CEA010C49084FEAC2
:1005A000300092185B4150EA0107EDD152EA030096
:1005B00012D082EA040083EA0501084305D0101B2B
:1005C000AB4106D20122002306E000224FF0004397
:1005D00002E06FF0010253101AEB06004CEB0851D9
:1005E00010EB0A0041EB0B01BDE8F04D00F0A3B8A1
:1005F00030B50B46014600202022012409E021FAF3
:1006000002F59D4205D303FA02F5491B04FA02F5EF
:100610002844151EA2F10102F1DC30BD2DE9F05F86
:100620000546002092469B46884606468146402461
:100630001BE0284641464746224600F01BF9534638
:100640005A46C01A914110D311461846224600F06E
:1006500019F82D1A67EB01084F46224601200021A8
:1006600000F010F817EB00094E41201EA4F1010420
:10067000DFDC484631462A46434600F000B830BC2D
:10068000BDE8C09F202A04DB203A00FA02F10020D6
:1006900070479140C2F1200320FA03F319439040C0
:1006A0007047202A06DBCB17203A41FA02F043EAD2
:1006B000E07306E041FA02F3D040C2F1200291401B
:1006C0000843194670472DE9F04791460F4680468A
:1006D0000446002614F8015B2DB100F0DBF8006839
:1006E000405DC007F6D12B2D02D02D2D18D0641EF1
:1006F0004A463946204600F0D1F827B13968A14270
:1007000001D1C7F8008071054FF002040BD54042BB
:10071000002803DD02F072F90460A007BDE8F0874D
:1007200046F48066E4E70028F8DA02F067F904602E
:100730006FF00040F2E710B5141E73F1000408DA00
:10074000401C41F1000192185B411A4301D120F095
:10075000010010BD2DE9F04D92469B4611B1B1FA52
:1007600081F202E0B0FA80F220329046FFF78AFF71
:1007700004460F4640EA0A0041EA0B0153465A4636
:10078000084313D0114653EA010019D0C8F14002C2
:10079000504600F06FF805460E4650465946424610
:1007A000FFF770FF084305D0012004E020463946DA
:1007B000BDE8F08D0020054346EAE0762C43374340
:1007C0000A986305E40AA0EB08000022FD0A44EA47
:1007D00047540A3002D500200146E9E70105101907
:1007E0006941DDE9084500196941BDE8F04DA2E71E
:1007F000C1F30A52C1F3130140F2FF3341F48011F7
:100800009A4202DA00200146704740F233439A428E
:10081000A2F2334202DC524200F02CB8FFF732BFA2
:1008200030B5041E71F1000404DB4FF00044404277
:1008300064EB0101141E73F1000405DB1C464FF04C
:100840000043524263EB0403994208BF904230BD1B
:10085000064C074D06E0E06840F0010394E807000D
:1008600098471034AC42F6D3FFF792FCD0860008CC
:10087000F0860008202A04DB203A21FA02F0002149
:10088000704721FA02F3D040C2F1200291400843A0
:1008900019467047004870471C8400082DE9F05F36
:1008A00082460078002715468B460AF10104B946B6
:1008B000302801D09DB113E014F8010B01277828EE
:1008C00003D0582801D045B10AE00DB1102D07D151
:1008D0000027102514F8010B02E0082500E00A2586
:1008E0000026B0460EE005FB080005FB06F10127D7
:1008F00001EB10461FFA80F8B6F5803F00D3B946E9
:1009000014F8010B294600F01BF80028EBDABBF1C4
:10091000000F05D00FB1641E00E05446CBF8004034
:10092000B9F1000F06D002F069F802210160C81E7B
:1009300000F003B848EA0640FAE730BCBDE8C09FC3
:100940003A2800D2303820F02002412A01D3A2F107
:100950003700884201D34FF0FF30704770B504462E
:100960000D46A08AE18A401AA84215DA00BF10A0FD
:1009700003F04AFF10A003F047FFA08AE18A421A61
:1009800029460F4803F040FF0EA003F03DFF00BFD3
:10099000A08AE18A401A85B2E38AE269D0182A4621
:1009A000A169FFF70DFCE08A2844E08270BD0000D9
:1009B0001B5B303B33336D005741524E3A200000F1
:1009C0001C8600081B5B306D000000002DE9F04123
:1009D00004460E4615461F4604B186B900BF2CA03A
:1009E00003F012FF2CA003F00FFF2DA003F00CFF6B
:1009F00035A003F009FF00BF0020BDE8F0812021F1
:100A00002046FFF7F6FB266007223946201DFFF738
:100A10000DFC284605F07AFAA061284605F076FA22
:100A2000E061A06908B1E069A8B900BF18A003F0AF
:100A3000EBFE19A003F0E8FE25A003F0E5FE22A0DE
:100A400003F0E2FE00BFA06903F09CFEE06903F042
:100A500099FE0020D1E72946A069FFF7CAFB294685
:100A6000E069FFF7C6FBA58200202061E06000BFBF
:100A700022A003F0C9FE23A003F0C6FE394623A03E
:100A800003F0C2FE10A003F0BFFE00BF0120B4E7D8
:100A90001B5B303B33316D004552524F523A2000C0
:100AA0004154435F496E6974206661696C65643ABC
:100AB00020696E76616C696420706172616D657425
:100AC0006572732E0A0000001B5B306D0000000091
:100AD0004154435F496E6974206661696C65643A8C
:100AE000206D656D6F727920616C6C6F63617469E4
:100AF0006F6E206661696C65642E0A001B5B303B7B
:100B000033326D00494E464F3A2000004154432095
:100B1000696E697469616C697A6564206F6E2025FD
:100B2000730A00002DE9F0470446E08A00283CDD06
:100B3000002531E0E26852F83510E069FFF764FB08
:100B4000064646B3E06800EBC500406818B30027CE
:100B5000B846E16851F83500FFF774FB305C3D287A
:100B600011D1E16851F83500FFF76CFB304400F11A
:100B700001090FA14846FFF779FB07460CA10020A9
:100B8000FFF774FB8046E06800EBC5004146426811
:100B90003846904700BF6D1C2069A842CAD8002083
:100BA000E082A18AE069FFF724FBBDE8F08700003E
:100BB0002C00000070B506460D4606B10DB90020A8
:100BC00070BD002400E0641C55F8340020B105EB32
:100BD000C40040680028F6D1F560346100BF08A069
:100BE00003F012FE08A003F00FFE214608A003F058
:100BF0000BFE10A003F008FE00BF0120E0E700009C
:100C00001B5B303B33326D00494E464F3A200000AB
:100C1000415443206576656E747320636F6E666918
:100C200067757265642E20546F74616C3A20256478
:100C30000A0000001B5B306D0000000070B5044628
:100C40000E46002C76D02046FFF732FB054600BF4B
:100C500040A003F0D9FD41A003F0D6FD294641A0F4
:100C600003F0D2FD45A003F0CFFD00BF7D2D37D0AE
:100C70000EDC1F2D28D006DC0A2D19D00F2D1BD01D
:100C8000142D45D11CE0292D22D03E2D40D123E04A
:100C9000B5F5C87F34D004DCC82D2DD0FA2D37D15E
:100CA00022E0B5F5FA7F23D0B5F5487F30D12BE0AF
:100CB0000820344908603BE001203249086037E0F1
:100CC00009203049086033E002202E4908602FE0F7
:100CD0000A202C4908602BE003202A49086027E0FD
:100CE00004202849086023E00520264908601FE009
:100CF0000620244908601BE00D202249086017E007
:100D00000E202049086013E00F201E4908600FE004
:100D100000BF10A003F078FD10A003F075FD1AA02D
:100D200003F072FD15A003F06FFD00BF70BD01E080
:100D300000BF0DE000BF07A003F066FD07A003F0B1
:100D400063FD18A003F060FD0CA003F05DFD00BF83
:100D500000BFEBE71B5B303B33326D00494E464F23
:100D60003A20000042616E642077696474682073E1
:100D7000657420746F3A2025640A00001B5B306D97
:100D800000000000E0000020496E76616C6964207C
:100D9000706172616D657465722076616C75652E27
:100DA0000A000000496E76616C69642070617261AE
:100DB0006D657465722E0A0070B505460E46002DED
:100DC0004BD02846FFF774FA044600BF2BA003F06F
:100DD0001BFD2CA003F018FD21462CA003F014FDF0
:100DE00030A003F011FD00BF082C25D2DFE804F08D
:100DF00004080C1014181C2000202C4908602AE05C
:100E000001202A49086026E002202849086022E0E3
:100E10000320264908601EE00420244908601AE0E7
:100E200005202249086016E006202049086012E0EB
:100E300007201E4908600EE000BF10A003F0E4FC8C
:100E400010A003F0E1FC1AA003F0DEFC15A003F0F3
:100E5000DBFC00BF70BD00BF0DE000BF07A003F0CA
:100E6000D3FC08A003F0D0FC18A003F0CDFC0DA02B
:100E700003F0CAFC00BF00BFECE700001B5B303B87
:100E800033326D00494E464F3A2000005061726186
:100E90006D657465722073657420746F3A202564E3
:100EA0000A0000001B5B306D00000000E400002021
:100EB000496E76616C696420706172616D657465FC
:100EC000722076616C75652E0A000000496E7661AD
:100ED0006C696420706172616D657465722E0A00C0
:100EE00070B504460E46ACB12046FFF7E1F9054661
:100EF00000BF10A003F088FC10A003F085FC294679
:100F000010A003F081FC15A003F07EFC00BF154883
:100F100005600DE000BF07A003F076FC07A003F01A
:100F200073FC11A003F070FC0CA003F06DFC00BF7B
:100F300070BD00001B5B303B33326D00494E464FA5
:100F40003A20000043572053776974636820736523
:100F50007420746F3A2025640A0000001B5B306D1A
:100F600000000000E8000020496E76616C69642092
:100F7000706172616D657465722E0A0070B5044609
:100F80000E46ACB12046FFF793F9054600BF10A00E
:100F900003F03AFC10A003F037FC294610A003F040
:100FA00033FC16A003F030FC00BF164805600DE0CE
:100FB00000BF07A003F028FC07A003F025FC12A047
:100FC00003F022FC0DA003F01FFC00BF70BD000069
:100FD0001B5B303B33326D00494E464F3A200000D8
:100FE0004672657175656E63792073657420746FE0
:100FF0003A20256420487A0A000000001B5B306D0F
:1010000000000000D4000020496E76616C69642005
:101010006672657175656E637920706172616D6568
:101020007465722E0A00000070B504460D4600BFBC
:10103000E3A003F0E9FBE4A003F0E6FBE4A003F087
:10104000E3FBE8A003F0E0FB00BF00BFDCA003F07F
:10105000DBFBDDA003F0D8FBE44803F0D5FBE1A007
:1010600003F0D2FB00BF00BFD5A003F0CDFBD6A09C
:1010700003F0CAFBDEA003F0C7FBDAA003F0C4FB59
:1010800000BF00BFCEA003F0BFFBCFA003F0BCFBAE
:10109000E74803F0B9FBD3A003F0B6FB00BF00BFE5
:1010A000C7A003F0B1FBC8A003F0AEFBE14803F01A
:1010B000ABFBCCA003F0A8FB00BF00BFC0A003F0B7
:1010C000A3FBC1A003F0A0FBDBA003F09DFBC5A028
:1010D00003F09AFB00BF00BFB9A003F095FBBAA0D4
:1010E00003F092FBDCA003F08FFBBEA003F08CFBAF
:1010F00000BF00BFB2A003F087FBB3A003F084FBE6
:10110000E5A003F081FBB7A003F07EFB00BF00BFAA
:10111000ABA003F079FBACA003F076FBEE4803F044
:1011200073FBB0A003F070FB00BF00BFA4A003F0EE
:101130006BFBA5A003F068FBE8A003F065FBA9A08A
:1011400003F062FB00BF00BF9DA003F05DFB9EA00B
:1011500003F05AFBEEA003F057FBA2A003F054FBF0
:1011600000BF00BF96A003F04FFB97A003F04CFB1D
:10117000F3A003F049FB9BA003F046FB00BF00BFB8
:101180008FA003F041FB90A003F03EFBF5A003F01D
:101190003BFB94A003F038FB00BF00BF88A003F026
:1011A00033FB89A003F030FBF5A003F02DFB8DA0ED
:1011B00003F02AFB00BF00BF81A003F025FB82A043
:1011C00003F022FBF5A003F01FFB86A003F01CFB3D
:1011D00000BF00BF7AA003F017FB7BA003F014FB55
:1011E000F5A003F011FB7FA003F00EFB00BF00BFD2
:1011F00073A003F009FB74A003F006FBF5A003F055
:1012000003FB78A003F000FB00BF00BF6CA003F05D
:10121000FBFA6DA003F0F8FAF5A003F0F5FA71A05F
:1012200003F0F2FA00BF00BF65A003F0EDFA66A07C
:1012300003F0EAFAF6A003F0E7FA6AA003F0E4FA92
:1012400000BF00BF5EA003F0DFFA5FA003F0DCFA8E
:10125000F7A003F0D9FA63A003F0D6FA00BF00BFED
:1012600057A003F0D1FA58A003F0CEFAF8A003F08B
:10127000CBFA5CA003F0C8FA00BF00BF50A003F097
:10128000C3FA51A003F0C0FAF8A003F0BDFA55A0CC
:1012900003F0BAFA00BF00BF49A003F0B5FA4AA0B4
:1012A00003F0B2FAF5A003F0AFFA4EA003F0ACFAE7
:1012B00000BF00BF42A003F0A7FA43A003F0A4FAC6
:1012C000F2A003F0A1FA47A003F09EFA00BF00BF0E
:1012D0003BA003F099FA3CA003F096FAEFA003F0CC
:1012E00093FA40A003F090FA00BF00BF34A003F0CF
:1012F0008BFA35A003F088FAECA003F085FA39A048
:1013000003F082FA00BF00BF2DA003F07DFA2EA0EB
:1013100003F07AFAE9A003F077FA32A003F074FA46
:1013200000BF00BF26A003F06FFA27A003F06CFAFD
:10133000E6A003F069FA2BA003F066FA00BF00BF35
:101340001FA003F061FA20A003F05EFAE3A003F00F
:101350005BFA24A003F058FA00BF00BF18A003F006
:1013600053FA19A003F050FAE0A003F04DFA1DA0C3
:1013700003F04AFA00BF00BF11A003F045FA12A023
:1013800003F042FADDA003F03FFA16A003F03CFAA6
:1013900000BF00BF0AA003F037FA0BA003F034FA35
:1013A000E5A003F031FA0FA003F02EFA00BF00BF52
:1013B00003A003F029FA04A003F026FADAE1000002
:1013C0001B5B303B33326D00494E464F3A200000E4
:1013D00041542B48454C50207265636569766564BD
:1013E0002E0A00001B5B306D00000000FC8400082A
:1013F00041542B504F5745523D3C706F7765723EBC
:10140000203A205365742074686520706F77657288
:1014100020696E2064426D2028652E672E2C2041A5
:10142000542B504F5745523D3134290A00000000DB
:1014300090850008D885000841542B5354415254DC
:10144000203A20537461727420746865206F70654F
:10145000726174696F6E0A0041542B53463D3C53D0
:10146000463E203A2053657420746865205370729C
:10147000656164696E6720466163746F72202865D8
:101480002E672E2C2041542B53463D3720666F7219
:1014900020534637290A000041542B42573D3C4215
:1014A000573E203A20536574207468652042616E6F
:1014B0006477696474682028652E672E2C20415457
:1014C0002B42573D31323520666F72203132352044
:1014D0006B487A290A0000004885000841542B54C3
:1014E0005253573D3C706172616D3E203A20536506
:1014F00074207468652054582F525820737769748B
:10150000636820706172616D657465720A00000025
:1015100041542B435753573D3C706172616D3E20DF
:101520003A205365742074686520435720737769A7
:1015300074636820706172616D657465720A000081
:10154000417661696C61626C65205370726561649B
:10155000696E6720466163746F7273202853462951
:101560003A0A00002020353A204C52313158585F59
:10157000524144494F5F4C4F52415F5346350A0038
:101580002020363A204C52313158585F524144495C
:101590004F5F4C4F52415F5346360A002020373A86
:1015A000204C52313158585F524144494F5F4C4FA3
:1015B00052415F5346370A002020383A204C5231BE
:1015C0003158585F524144494F5F4C4F52415F532D
:1015D00046380A002020393A204C52313158585FA1
:1015E000524144494F5F4C4F52415F5346390A00C4
:1015F0002031303A204C52313158585F52414449E1
:101600004F5F4C4F52415F534631300A000000009B
:101610002031313A204C52313158585F52414449BF
:101620004F5F4C4F52415F534631310A000000007A
:101630002031323A204C52313158585F524144499E
:101640004F5F4C4F52415F534631320A0000000059
:10165000417661696C61626C652042616E64776994
:101660006474687320284257293A0A0020202031E8
:10167000302E3432206B487A0A00000020202031BE
:10168000352E3633206B487A0A00000020202032A5
:10169000302E3833206B487A0A0000002020203397
:1016A000312E3235206B487A0A0000002020343178
:1016B0002E3637206B487A0A0000000020202036A2
:1016C000322E3530206B487A0A000000202020316D
:1016D00032352E3030206B487A0A0000202020322C
:1016E00035302E3030206B487A0A0000202020351B
:1016F00030302E3030206B487A0A00002020323003
:10170000332E3030206B487A202832473420616EE7
:101710006420636F6D70617469626C6520776974B1
:1017200068204C5231313278206368697073206FC1
:101730006E6C79290A00000020203430362E3030BB
:10174000206B487A202832473420616E6420636F12
:101750006D70617469626C652077697468204C52A1
:1017600031313278206368697073206F6E6C79292B
:101770000A00000050A003F047F8AFF2983003F0E1
:1017800043F800BF00BFAFF2C83003F03DF8AFF23E
:10179000C83003F039F857A003F036F8AFF2BC3088
:1017A00003F032F800BF00BFAFF2EC3003F02CF8CA
:1017B000AFF2EC3003F028F856A003F025F8AFF2B2
:1017C000DC3003F021F800BF00BFAFF20C4003F0A3
:1017D0001BF8AFF20C4003F017F854A003F014F814
:1017E000AFF2004003F010F800BF00BFAFF230408E
:1017F00003F00AF8AFF2304003F006F84EA003F011
:1018000003F8AFF2204002F0FFFF00BF00BFAFF2CD
:10181000504002F0F9FFAFF2504002F0F5FF49A04E
:1018200002F0F2FFAFF2444002F0EEFF00BF00BF53
:10183000AFF2744002F0E8FFAFF2744002F0E4FF50
:1018400043A002F0E1FFAFF2644002F0DDFF00BF11
:1018500000BFAFF2944002F0D7FFAFF2944002F025
:10186000D3FF3EA002F0D0FFAFF2884002F0CCFFE1
:1018700000BF00BFAFF2B84002F0C6FFAFF2B84001
:1018800002F0C2FF39A002F0BFFFAFF2A84002F0A1
:10189000BBFF00BF00BFAFF2D84002F0B5FFAFF210
:1018A000D84002F0B1FF35A002F0AEFFAFF2CC405D
:1018B00002F0AAFF00BF70BD20203831322E303038
:1018C000206B487A202832473420616E6420636F91
:1018D0006D70617469626C652077697468204C5220
:1018E00031313278206368697073206F6E6C7929AA
:1018F0000A000000417661696C61626C6520436F8B
:1019000064696E6720526174657320284352293AD6
:101910000A0000002020303A204E6F20636F646977
:101920006E6720726174650A000000002020313A61
:1019300020342F350A0000002020323A20342F3680
:101940000A0000002020333A20342F370A0000001C
:101950002020343A20342F380A0000002020353A65
:10196000204C4920342F350A000000002020363A50
:10197000204C4920342F360A000000002020373A3E
:10198000204C4920342F380A0000000070B504466E
:101990000E469CB12046FEF78BFC054600BF0FA00B
:1019A00002F032FF0FA002F02FFF29460FA002F035
:1019B0002BFF14A002F028FF00BF0DE000BF07A01E
:1019C00002F022FF07A002F01FFF10A002F01CFF90
:1019D0000CA002F019FF00BF70BD00001B5B303B84
:1019E00033326D00494E464F3A200000506172611B
:1019F0006D657465722073657420746F3A20256478
:101A00000A0000001B5B306D00000000496E76612B
:101A10006C696420706172616D657465722E0A0074
:101A200070B504460E46ACB12046FEF741FC0546B3
:101A300000BF10A002F0E8FE10A002F0E5FE29466B
:101A400010A002F0E1FE15A002F0DEFE00BF154876
:101A500005600DE000BF07A002F0D6FE07A002F06F
:101A6000D3FE11A002F0D0FE0CA002F0CDFE00BF0C
:101A700070BD00001B5B303B33326D00494E464F5A
:101A80003A200000506F7765722073657420746F80
:101A90003A2025642064426D0A0000001B5B306D13
:101AA00000000000D0000020496E76616C6964205F
:101AB000706F77657220706172616D657465722EEA
:101AC0000A00000070B504460E46002C4CD020469B
:101AD000FEF7EEFB054600BF2BA002F095FE2CA002
:101AE00002F092FE29462CA002F08EFE30A002F0F9
:101AF0008BFE00BF681F082825D2DFE800F004082D
:101B00000C1014181C2005202B4908602AE0062020
:101B10002949086026E007202749086022E00820BC
:101B2000254908601EE00920234908601AE00A20C0
:101B30002149086016E00B201F49086012E00C20C4
:101B40001D4908600EE000BF0FA002F05DFE10A06E
:101B500002F05AFE19A002F057FE15A002F054FE42
:101B600000BF70BD00BF0DE000BF07A002F04CFE3B
:101B700007A002F049FE18A002F046FE0CA002F0F9
:101B800043FE00BF00BFECE71B5B303B33326D0010
:101B9000494E464F3A200000506172616D65746590
:101BA000722073657420746F3A2025640A00000067
:101BB0001B5B306D00000000DC000020496E766188
:101BC0006C696420706172616D6574657220766104
:101BD0006C75652E0A000000496E76616C696420A0
:101BE000706172616D657465722E0A0070B504468D
:101BF0000D4600BF0FA002F007FE10A002F004FE89
:101C000010A002F001FE14A002F0FEFD00BF00BF14
:101C100008A002F0F9FD09A002F0F6FD10A002F004
:101C2000F3FD0DA002F0F0FD00BF01201249086095
:101C300070BD00001B5B303B33326D00494E464F98
:101C40003A20000041542B53544152542072656392
:101C500065697665642E0A001B5B306D000000002C
:101C6000537461727420746865206F70657261745A
:101C7000696F6E2E2E2E0A004000002070B50446BB
:101C80000E46ACB12046FEF713FB054600BF10A080
:101C900002F0BAFD10A002F0B7FD294610A002F034
:101CA000B3FD15A002F0B0FD00BF154805600DE0C2
:101CB00000BF07A002F0A8FD07A002F0A5FD11A03B
:101CC00002F0A2FD0CA002F09FFD00BF70BD00005D
:101CD0001B5B303B33326D00494E464F3A200000CB
:101CE000506172616D657465722073657420746FE4
:101CF0003A2025640A0000001B5B306D00000000E4
:101D0000D8000020496E76616C6964207061726150
:101D10006D657465722E0A0010B5012000F00AFA94
:101D200028B1012000F0E8F8012005F007F910BD06
:101D300010B54FF4806000F0FDF938B14FF48060C9
:101D400000F0DAF84FF4806005F0F8F84FF4006026
:101D500000F0F0F938B14FF4006000F0CDF84FF426
:101D6000006005F0EBF84FF4805000F0E3F938B173
:101D70004FF4805000F0C0F84FF4805005F0DEF8CA
:101D80004FF4005000F0D6F938B14FF4005000F095
:101D9000B3F84FF4005005F0D1F84FF4804000F054
:101DA000C9F938B14FF4804000F0A6F84FF48040F4
:101DB00005F0C4F84FF4004000F0BCF938B14FF41E
:101DC000004000F099F84FF4004005F0B7F810BD5E
:101DD00010B5022000F0AEF928B1022000F08CF816
:101DE000022005F0ABF810BD10B5042000F0A2F9F8
:101DF00028B1042000F080F8042005F09FF810BD01
:101E000010B5082000F096F928B1082000F074F809
:101E1000082005F093F810BD10B5102000F08AF9E5
:101E200028B1102000F068F8102005F087F810BDE8
:101E300010B5202000F07EF928B1202000F05CF8D9
:101E4000202005F07BF8402000F074F928B14020F4
:101E500000F052F8402005F071F8802000F06AF997
:101E600028B1802000F048F8802005F067F84FF492
:101E7000807000F05FF938B14FF4807000F03CF8EA
:101E80004FF4807005F05AF84FF4007000F052F9EA
:101E900038B14FF4007000F02FF84FF4007005F0E7
:101EA0004DF810BD08B50549C96C0143034AD1641A
:101EB0001146C96C0140009100BF08BD00100240EE
:101EC00008B50549C96C0143034AD1641146C96C80
:101ED0000140009100BF08BD0010024008B505494F
:101EE000C96C0143034AD1641146C96C0140009199
:101EF00000BF08BD001002400149086070470000A3
:101F000014040140024909688143014A1160704785
:101F100004040140024909688143014A1160704785
:101F200024040140024909688143014A1160704755
:101F300000040140024909688143014A1160704769
:101F400020040140024909680143014A11607047B9
:101F500004040140024909680143014A11607047C5
:101F600024040140024909680143014A1160704795
:101F70000C040140024909680143014A116070479D
:101F80002C040140024909680143014A116070476D
:101F900000040140024909680143014A1160704789
:101FA00020040140024909680143014A1160704759
:101FB00008040140024909680143014A1160704761
:101FC0002804014070B504460025207A00287BD003
:101FD000206800284BD0607A20B1012809D002285F
:101FE00015D10DE02068FFF78DFF2068FFF7CAFFCD
:101FF0000FE02068FFF796FF2068FFF7A3FF08E0D7
:102000002068FFF7BFFF2068FFF79CFF01E0012574
:1020100000BF00BFA07A50B3A07A012804D00228E4
:102020000DD003281FD117E020684149096881437A
:102030003F4A116000BF2068FFF7B4FF16E0206838
:102040003B49091F09688143394A121F116000BFCB
:102050002068FFF787FF09E02068FFF7A3FF2068EB
:10206000FFF780FF02E045F0020500BF00BF606897
:1020700000285AD0607A20B1012809D0022815D151
:102080000DE06068FFF746FF6068FFF783FF10E030
:102090006068FFF74FFF6068FFF75CFF09E060686A
:1020A000FFF778FF6068FFF755FF02E045F0040591
:1020B00000BF00BFA07A58B3A07A012805D002283B
:1020C00010D0032822D11AE023E06068184920319B
:1020D00009688143164A2032116000BF6068FFF72B
:1020E00069FF15E0606812491C3109688143104A94
:1020F0001C32116000BF6068FFF73CFF08E06068B9
:10210000FFF758FF6068FFF735FF01E0012500BFCA
:102110000BE02068FFF706FF2068FFF7F3FE60681A
:10212000FFF708FF6068FFF7F5FE284670BD000066
:102130000C0401400146044800680840884201D16F
:10214000012070470020FCE714040140F0B502466E
:102150000B46186890FAA0F0B0FA80F487E00120EE
:10216000A0401D6805EA000100297FD058680128B9
:1021700002D0586802281DD19868956891FAA1F696
:10218000B6FA86F677000326BE40B54391FAA1F66B
:10219000B6FA86F6760000FA06F63543956000BF7B
:1021A000DD6818685668864300FB05F73E435660B5
:1021B00000BF00BF1869D56891FAA1F6B6FA86F695
:1021C00077000326BE40B54391FAA1F6B6FA86F62B
:1021D000760000FA06F63543D56000BF586802283D
:1021E0002DD1FF2914D85869156A91FAA1F6B6FACB
:1021F00086F6B7000F26BE40B54391FAA1F6B6FAAF
:1022000086F6B60000FA06F63543156200BF16E002
:102210005869556A0E0A96FAA6F6B6FA86F6B70017
:102220000F26BE40B5430E0A96FAA6F6B6FA86F613
:10223000B60000FA06F63543556200BF00BF586885
:10224000156891FAA1F6B6FA86F677000326BE4025
:10225000B54391FAA1F6B6FA86F6760000FA06F6CC
:102260003543156000BF00E000E000BF641C186843
:10227000E04000287FF473AFF0BD4FF47A71B0FBFB
:10228000F1F2521E4FF0E0235A6100229A610522BA
:102290001A6100BF704700002DE9F0410446002597
:1022A000C02C29D1204600F05DF8B0F5400F17D0C2
:1022B000A0F54000403820B1402806D0802819D130
:1022C00008E000F081FA054615E000F0EDF800B1F5
:1022D000224D10E000F0F0F808B14FF400450AE09C
:1022E00000F072FA074600F03BFA064600F048FAA2
:1022F000054600E000BF00BFB4F5407F2AD120466C
:1023000000F030F8B0F1407F18D01549084430B1E2
:10231000B0F5807F07D0B0F5007F19D108E000F05C
:1023200053FA054615E000F0BFF800B10B4D10E080
:1023300000F0C2F808B14FF400450AE000F044FA9A
:10234000074600F00DFA064600F01AFA054600E0CE
:1023500000BF00BF2846BDE8F08100000024F40063
:1023600000FFFFFC014603480068084040EA0140C6
:1023700070470000881002402DE9F0410446002516
:10238000032C29D1204600F085F8B0F5403F17D046
:102390006FF44031084420B1012806D0022819D139
:1023A00008E000F011FA054615E000F07DF800B1F4
:1023B000374D10E000F080F808B14FF400450AE016
:1023C00000F002FA074600F0CBF9064600F0EAF901
:1023D000054600E000BF57E00C2C29D1204600F054
:1023E00059F8B0F5402F17D0A0F54020001F20B1BC
:1023F000042806D0082819D108E000F0E5F90546C0
:1024000015E000F051F800B1214D10E000F054F853
:1024100008B14FF400450AE000F0D6F9074600F095
:102420009FF9064600F0ACF9054600E000BF2BE03E
:10243000302C29D1204600F02DF8B0F5401F17D0E0
:10244000A0F54010103820B1102806D0202819D14E
:1024500008E000F0B9F9054615E000F025F800B1F4
:102460000B4D10E000F028F808B14FF400450AE0E9
:1024700000F0AAF9074600F073F9064600F080F96B
:10248000054600E000BF00BF2846BDE8F08100001F
:102490000024F400014603480068084040EA014077
:1024A000704700008810024002480068C0F3802096
:1024B000704700000010024002480068C0F340006E
:1024C00070470000901002400248006800F0F000E1
:1024D00070470000001002400248006800F470607D
:1024E000704700009410024002480068C0F3C0002A
:1024F00070470000001002400248C06800F0700001
:1025000070470000001002400248C06800F003005D
:1025100070470000001002400248C068C0F3062067
:10252000704700000010024030B50246012300BF92
:102530001068C0F38010A0BBD1E900042043CC6830
:1025400020430C6920434C6920438C692043CC69AB
:1025500020430C6A204314684FF6BF75AC432043F8
:1025600010604C69886840EA1440546840F604756D
:10257000AC43204350608868B0F5006F07D2180361
:10258000546824F480540443546000BF00BF086AB8
:10259000B0F5005F04D1486A84B2146100BF00BF87
:1025A0000023184630BD0000014908607047000054
:1025B000EC0000202DE9F04104460D4601270026DD
:1025C000204600F080F8002868D1E9686868084370
:1025D00029690843A96908432168324A1140084320
:1025E0002060A868616821F440510143616000BF28
:1025F0006869A16821F440710143A16000BF2A48C5
:10260000844204D10320FFF7B7FE06461FE02748A7
:10261000844204D10C20FFF7AFFE064617E02448A1
:10262000844204D13020FFF7A7FE06460FE0214880
:10263000844204D1C020FFF72FFE064607E01E4863
:10264000844204D14FF44070FFF726FE06462EB3B5
:10265000286818B300273146AB692868B3F5004FE6
:1026600012D14FEA410808EB5008B8FBF0F81FFA06
:1026700088F24FF6F07802EA080CC2F342084CEAFE
:10268000080CC4F80CC007E001EB5008B8FBF0F8E8
:102690001FFA88F8C4F80C8000BF00BF3846BDE8B8
:1026A000F0810000F369FFEF003801400044004072
:1026B00000480040004C0040005000400146C869FE
:1026C000C0F3401070470146086800F001007047F1
:1026D0000146086800F00100704708B501464FF058
:1026E000E02212690092084600BF421C02B1401C61
:1026F00006E04FF0E022126902F4803202B1401E7F
:102700000028F6D108BD000010B500BF12480068CF
:10271000C0F34000F0B100BF0F48406840F0020035
:102720000D49486000BF002412E00C4800EB041083
:102730004068094988420AD1084800EB0410C06883
:1027400028B1064901EB0411C868804710BD641C1C
:10275000012CEADB00BFF9E7007C0040A405002063
:10276000014600BF0448806800F0F0000009034AF9
:10277000125C21FA02F0704700100240607F0008EE
:10278000014600BF0548806800F4E060044A02EB9F
:102790001020027821FA02F0704700000010024079
:1027A000707F0008014600BF0548806800F4605053
:1027B000044A02EBD020027821FA02F070470000B0
:1027C00000100240707F000810B500BF29488068E3
:1027D00000F00C0030B1042822D0082822D00C28A8
:1027E00026D121E0FFF780FE60B9FFF77DFE10B132
:1027F000FFF76AFE01E0FFF76FFE000A1E4951F87D
:1028000020000BE0FFF770FE10B1FFF75DFE01E066
:10281000FFF762FE0009184951F82000044625E040
:10282000164C23E0164C21E000F02CF804461DE085
:10283000FFF75AFE60B9FFF757FE10B1FFF744FEED
:1028400001E0FFF749FE000A0B4951F820000BE0B8
:10285000FFF74AFE10B1FFF737FE01E0FFF73CFE3D
:102860000009054951F82000044600BF00BF20467A
:1028700010BD000000100240787F00080024F40022
:1028800000127A0070B5FFF73FFE0546012D04D017
:10289000022D20D0032D22D11FE0FFF725FE60B9C5
:1028A000FFF722FE10B1FFF70FFE01E0FFF714FE65
:1028B000000A254951F820000BE0FFF715FE10B182
:1028C000FFF702FE01E0FFF707FE00091E4951F87D
:1028D0002000044621E01D4C1FE01D4C1DE0FFF7C9
:1028E00003FE60B9FFF700FE10B1FFF7EDFD01E058
:1028F000FFF7F2FD000A144951F820000BE0FFF742
:10290000F3FD10B1FFF7E0FD01E0FFF7E5FD000981
:102910000D4951F82000044600BF00BFFFF7ECFD51
:10292000012101EB1010B4FBF0F6FFF7F5FD464373
:102930000848C06800F0C060012101EB5060400011
:10294000B6FBF0F070BD0000787F00080024F400B2
:1029500000127A00001002400348006840F4700042
:10296000014908607047000088ED00E070B5184824
:10297000FFF7A4FE50B300BF15480068C0F3401035
:1029800020B300BF1248808CC0B20546002419E075
:1029900004EB44000F4901EB800040680C49884279
:1029A0000FD104EB44000B4901EB8000806838B183
:1029B00004EB44000A4602EB800081682846884701
:1029C00002E0641C012CE3DB00BF00BF70BD00000F
:1029D000004400409805002037B514460846064BD1
:1029E0006A46214600F0E4F804466946002000F0FB
:1029F00079FC20463EBD0000E532000800487047E3
:102A0000FC00002002E008C8121F08C1002AFAD109
:102A100070477047002001E001C1121F002AFBD15E
:102A2000704700002DE9FF5F82B00021DDE904302E
:102A3000020DDDF840B0034318D044F61050A2F266
:102A4000FF3242431514119801281FD0A5EB0B004B
:102A5000401C5FEA000A4FF000064E4FDFF8389145
:102A6000B046504615D5CAF1000413E01198012470
:102A70004AA3012801D16FEA0B010298119AC0E91B
:102A80000031C0E9024206B000F08EB8CBF1000080
:102A9000DFE704460021404A491842EB0450CDE9E3
:102AA000001012E0E00707D032463B464046494658
:102AB000FDF7BAFC8046894632463B461046194629
:102AC000FDF7B2FC06460F466410002CEAD1DDE9A2
:102AD0000401DDE90023BAF1000F06DAFDF7A4FCDA
:102AE00042464B46FDF7A0FC05E0FDF712FD4246CD
:102AF0004B46FDF70EFD04460E460022284BFDF71F
:102B00008FFE03D84FF0FF30014607E00022254B2F
:102B100020463146FDF7D9FBFDF76AFE102409E097
:102B2000002C0ADB0A220023FDF778FD039B3032DC
:102B30001A55641E50EA0102F2D1641C039AC4F1D2
:102B400011031444119A012A03D0012208430DD124
:102B50000AE0084304D000204FF0110B119072E7F7
:102B6000A3EB0B056D1E0DE05B4504DD4FF000028D
:102B700005F1010504E003DA4FF00002A5F10105BB
:102B8000002AECD002981199C0E90231C0E9004551
:102B900079E70000000014400000F03F3000000022
:102BA0000000F0430000E03F30BCBDE8C09F0000E3
:102BB0002DE9FF4F95B09B468946064600250FE25A
:102BC000252877D100242746F84A0121059400E002
:102BD000044316F8013F203B01FA03F01042F7D1FD
:102BE00030782A2811D06FF02F033078A0F130020E
:102BF000092A16D8059A44F0020402EB820203EB7C
:102C000042021044761C0590EFE759F8042B059218
:102C1000002A03DA504244F40054059044F00204C0
:102C2000761C30782E2816D116F8010F44F00404D3
:102C30002A280DD06FF02F023078A0F13003092B35
:102C400009D807EB870302EB4303C718761CF3E7A9
:102C500059F8047B761C30786C280FD006DC4C28A1
:102C600017D068280DD06A2814D104E0742810D039
:102C70007A280FD10DE044F400140AE044F48014E3
:102C800001E044F440147278824202D104F58014C9
:102C9000761C761C307866280BD013DC582877D049
:102CA00009DC002875D04528F6D04628F4D04728FE
:102CB0001AD19DE118E0632835D0642879D06528C1
:102CC00012D195E1702873D008DC6728F1D069280B
:102CD0006FD06E280DD06F2806D1B5E073282CD0A8
:102CE000752875D0782874D05A46179990476D1C6E
:102CF00075E1C4F30250022809D003280DD0D9F899
:102D0000001004280DD00D6009F1040967E1D9F81D
:102D10000010EA17C1E90052F6E7D9F800100D805B
:102D2000F2E70D70F0E719F8041B8DF80010002091
:102D30008DF80100EA46012003E059F804AB4FF09A
:102D4000FF3061074FF0000102D40DE008F10101EE
:102D50008846B9420FDA8045F8DB1AF808100029D6
:102D6000F4D108E008F1010188468142FADB1AF843
:102D700008100029F6D105985B46A0EB080721460C
:102D80003846179A00F097FA284400EB080507E048
:102D90004DE029E10DE01AF8010B5A4617999047CA
:102DA000B8F10108F7D25B4621463846179A13E17D
:102DB00042E00A220092C4F302524FF0000A022AB3
:102DC00008D059F804CB032A4FEAEC710AD00DE081
:102DD00029E02AE009F1070121F00702F2E802C127
:102DE000914609E00FFA8CFC4FEAEC71042A03D1FA
:102DF0004FFA8CFC4FEAEC71002907DA0A460021F1
:102E0000DCF1000C61EB02012D2202E0220504D569
:102E10002B228DF80420012203E0E20701D02022BA
:102E2000F7E7904659E00A2102E010220DE0102158
:102E30004FF0000A00910BE010224FF0000A44F01E
:102E400004040827009203E008224FF0000A0092D1
:102E5000C4F30252022A05D059F804CB0021032AF8
:102E600008D009E009F1070121F00702F2E802C1E8
:102E7000914605E01FFA8CFC042A01D10CF0FF0CEE
:102E80004FF00008220728D5702806D0009B83F059
:102E9000100353EA0A0305D00EE040228DF8042007
:102EA000012208E05CEA010206D030228DF80420FD
:102EB0008DF8050002229046009B83F0080353EA38
:102EC0000A030AD15CEA010201D1620705D530226A
:102ED0008DF804204FF001087F1E582804D034A03C
:102EE00003900EA802900DE036A0F9E75346604625
:102EF000009AFDF793FB84460398825C0298401E7B
:102F0000029002705CEA0100F0D1029806A9081A4A
:102F100000F1200A600702D524F4803400E0012784
:102F2000574502DDA7EB0A0000E0002000EB0A0194
:102F3000009005984144401A0590E00306D45B4692
:102F40002146179A059800F0B6F90544002706E0D7
:102F500001A85A46C05D179990476D1C7F1C4745D4
:102F6000F6DBE0030CD55B462146179A059800F086
:102F7000A2F9054404E030205A46179990476D1C89
:102F80000099481E00900029F5DC08E0029802999B
:102F90005A460078491C0291179990476D1CBAF166
:102FA0000001AAF1010AF1DC65E100000928010035
:102FB00030313233343536373839616263646566AF
:102FC0000000000030313233343536373839414271
:102FD000434445460000000000F05BF90544761CC0
:102FE000307800287FF4ECAD19B0284600F04EB9D7
:102FF000620700D4062709F1070222F0070CFCE85B
:103000000223E14603F000485FEA080C02D00FF209
:10301000702C0DE05FEA045C02D50FF2682C07E02B
:103020005FEAC47C02D00FF2602C01E0AFF2700CBA
:103030004FF0FF3823F00043CDF850C065280CD086
:1030400006DC452809D046281DD047283DD13DE063
:10305000662818D067287ED138E00021112F01DBC7
:10306000112000E0781CCDE9000106A90EA8FFF7A9
:10307000D9FCDDE90F010E9A03910021009207F1BE
:10308000010A04914DE04FF000400097CDE9011096
:1030900006A90EA8FFF7C6FCDDE90F0203920E9BFE
:1030A00011990022DDF80CA00093049211B9791C4B
:1030B00000EB010AB7EB0A0004D4C0F1FF3007F1BE
:1030C000010A0490AAEB0700019044E0012F00DA06
:1030D00001270021112F01DD112000E03846CDE944
:1030E000000106A90EA8FFF79DFCDDE90F010E9A6D
:1030F0000391002104910092BA4621070CD4039950
:10310000514500DA8A46BAF1010F05DD009AAAF1AD
:103110000101515C302908D0B84202DA10F1040FE5
:1031200006DA0121CDE9011015E0AAF10101E9E774
:10313000002805DC049901440491AAEB000102E097
:10314000411C514500DD8A460499401A401C0190FB
:103150004FF000400290200704D40198504501DB55
:10316000CDF8048000208DF84F0002980DF14F0734
:10317000B0F1004F25D02B200E9002984FF002089E
:1031800000280CDA404202902D200E9007E00A2120
:103190000298FDF72DFA3031029007F8011DB8F1C1
:1031A0000001A8F10108F2DC02980028EFD1791E95
:1031B0000E980870307800F0200040F0450007F8C5
:1031C000020D12A8C01B00F107081498007800B186
:1031D000012000EB0A01019801EBE07105984144E0
:1031E000401A401E0590E00306D45B462146179A1C
:1031F000059800F060F805441498007818B15A4614
:10320000179990476D1CE00324D55B462146179A19
:10321000059800F050F805441CE00498002807DBEE
:10322000DDE90301884203DD0098405C179901E065
:10323000179930205A469047049805F10105401C23
:1032400004900198401E019004D12E205A461799EF
:1032500090476D1CBAF10001AAF1010ADDDC05E01E
:1032600017F8010B5A46179990476D1CB8F10001E9
:10327000A8F10108F4DC5B462146179A0598ABE6F5
:103280002D0000002B0000002000000030BCBDE835
:10329000C08F2DE9F041044600251E4617468804DC
:1032A00004D405E039462020B0476D1C641EF9D5D2
:1032B0002846BDE8F0812DE9F041044600251E4670
:1032C0009046C80301D5302700E02027880404D5A4
:1032D00005E041463846B0476D1C641EF9D52846C6
:1032E000BDE8F0810A68531C0B60107070470246FD
:1032F000102937D2DFE801F03633311B130A0836C4
:103300003432253636121110002070470C2A01D1B4
:103310000120FAE70020F8E700BF00BF00BF0C2A39
:1033200001D00B2A01D10120EFE70020EDE70C2AA4
:1033300003D00B2A01D00A2A01D10120E5E70020A1
:10334000E3E70C2A05D00B2A03D00A2A01D0092A68
:1033500001D10120D9E70020D7E700BF00BF00BF9F
:103360000120D2E70020D0E738B504466946204660
:1033700000F004F8684600F0C5FB38BDF8B5054616
:103380000E463146284602F0F5FA0446002C15D0C8
:10339000032C13D100BF0AA001F036FA0AA001F0F5
:1033A00033FA0BA04FF4C1730E4A0FA1009016A080
:1033B00001F02AFA1BA001F027FA00BFF8BD0000B7
:1033C0001B5B303B33316D004552524F523A200067
:1033D0004C52313158585F5354415455535F455204
:1033E000524F5200D77D00082E2E5C2E2E5C2E2EC2
:1033F0005C636F6D6D6F6E5C617070735F636F6D3A
:103400006D6F6E2E63000000496E202573202D2005
:10341000257320286C696E65202564293A20257360
:103420000A0000001B5B306D0000000010B5032097
:1034300004F026FB2A4948630021294880F8381007
:1034400080F83910C163052004F01AFB2449086292
:103450000021234880F82410012180F825102149FB
:1034600081620021C162072004F00AFB1C498860C8
:1034700001211B48017302214173102004F000FB5D
:103480001749486101211648017602214176164804
:103490001349086001F14402486B383103F086FC9F
:1034A0000F4901F13002086A243103F07FFC0C4916
:1034B00001F1100288680C3103F0E2FC084901F1C7
:1034C0001C024869183103F0DBFC0549086B03F066
:1034D000D1FB0349091D081F04F006F8004810BD80
:1034E00000010020696C00080030014010B505485B
:1034F00000688079162804D003498868002103F009
:1035000001FD10BD300000205401002010B5054819
:1035100000684079162804D003498868002103F028
:10352000F1FC10BD300000204801002010B5054816
:1035300000688079162804D003498868012103F0C7
:10354000E1FC10BD300000205401002010B50548FA
:1035500000684079162804D003498868012103F0E7
:10356000D1FC10BD300000204801002038B50546D0
:103570000C46E548007801287DD10020E24908701A
:103580006946284602F08FF900BFE0A001F03CF93F
:10359000E0A001F039F9E1A0009901F035F9E6A0C9
:1035A00001F032F900BF00982040009000BFD7A082
:1035B00001F02AF9D7A001F027F9E1A0009901F064
:1035C00023F9DDA001F020F900BF009800F004000D
:1035D00004280FD100BFCDA001F016F9CDA001F055
:1035E00013F9E2A001F010F9D3A001F00DF900BF2A
:1035F00002F0A2FF009800F0100010280FD100BFC9
:10360000C2A001F001F9C3A001F0FEF8DAA001F0B8
:10361000FBF8C9A001F0F8F800BF02F07DFD0098AA
:1036200000F0400040280FD100BFD8A001F0ECF816
:10363000D8A001F0E9F8D9A001F0E6F8BEA001F0A9
:10364000E3F800BF02F018FD009800F020002028E9
:103650000FD100BFADA001F0D7F8AEA001F0D4F8B3
:10366000D2A001F0D1F8B4A001F0CEF800BF02F072
:103670003BFF009800E045E100F0080008283CD13D
:10368000009800F08000802810D100BFBFA001F09A
:10369000BBF8C0A001F0B8F8CBA001F0B5F8A6A027
:1036A00001F0B2F800BF02F027FE26E0009800F01B
:1036B0008070B0F1807F10D100BFB4A001F0A4F8F9
:1036C000B4A001F0A1F8C3A001F09EF89AA001F007
:1036D0009BF800BF02F0A0FC0FE000BF8BA001F040
:1036E00093F88CA001F090F8BFA001F08DF892A0A3
:1036F00001F08AF800BF02F007FE009800F4807025
:10370000B0F5807F34D100BF80A001F07DF881A0AA
:1037100001F07AF8B7A001F077F887A001F074F80B
:1037200000BF009800F40070B0F5007F10D100BF1A
:1037300076A001F069F877A001F066F8B0A001F07A
:1037400063F87DA001F060F800BF02F015FC0FE007
:1037500000BF6EA001F058F86EA001F055F8AFA0C0
:1037600001F052F874A001F04FF800BF02F02CFCF9
:10377000009800F48060B0F5806F0FD100BFAFA05B
:1037800001F042F8AFA001F03FF8B0A001F03CF822
:1037900069A001F039F800BF02F09EFE009800F029
:1037A0000060B0F1006F0FD100BF58A001F02CF8FD
:1037B00058A001F029F8A8A001F026F85EA001F0B9
:1037C00023F800BF02F080FC009800F48040B0F5C0
:1037D000804F0FD100BF4DA001F016F84DA001F0B1
:1037E00013F8A2A001F010F853A001F00DF800BFEB
:1037F00002F00AFD009800F40040B0F5004F0FD130
:1038000000BF42A001F000F842A000F0FDFF9DA023
:1038100000F0FAFF48A000F0F7FF00BF02F0CCFC78
:10382000009800F48030B0F5803F0FD100BF37A082
:1038300000F0EAFF37A000F0E7FF99A000F0E4FFF6
:103840003DA000F0E1FF00BF02F006FD009800F48B
:103850000030B0F5003F0FD100BF2CA000F0D4FF26
:103860002CA000F0D1FF94A000F0CEFF32A000F019
:10387000CBFF00BF02F078FC009800F48020B0F588
:10388000802F0FD100BF21A000F0BEFF21A000F0CB
:10389000BBFF8FA000F0B8FF27A000F0B5FF00BF6E
:1038A00002F002FD009800F48010B0F5801F0FD1E7
:1038B00000BF16A000F0A8FF16A000F0A5FF88A08A
:1038C00000F0A2FF1CA000F09FFF00BF02F0D2FE9C
:1038D000009800F40020B0F5002F0FD100BF0BA01E
:1038E00000F092FF0BA000F08FFF82A000F08CFF91
:1038F00011A000F089FF00BF02F096FB0DA000F0C0
:1039000083FF00BF38BD00002C0000201B5B303B54
:1039100033326D00494E464F3A200000496E7465BF
:10392000727275707420666C616773203D20307808
:10393000253038580A0000001B5B306D0000000085
:10394000496E7465727275707420666C616773205D
:103950002861667465722066696C746572696E6749
:1039600029203D203078253038580A0054782064CA
:103970006F6E650A00000000507265616D626C65D3
:103980002064657465637465640A00001B5B303BEA
:1039900033316D004552524F523A20004865616400
:1039A0006572206572726F720A00000053796E634F
:1039B000776F7264206F722068656164657220762B
:1039C000616C69640A000000435243206572726FA3
:1039D000720A000046534B206C656E677468206560
:1039E00072726F720A000000527820646F6E650A6E
:1039F0000000000043414420646F6E650A0000002F
:103A00004368616E6E656C20616374697669747970
:103A10002064657465637465640A00004E6F2063FA
:103A200068616E6E656C2061637469766974792073
:103A300064657465637465640A0000001B5B303B59
:103A400033336D005741524E3A20000052782074B3
:103A5000696D656F75740A004C6F52612052782051
:103A600074696D657374616D700A00005254546F0F
:103A70004620726571756573742076616C69640A9D
:103A8000000000005254546F4620726571756573D2
:103A900074206469736361726465640A00000000E5
:103AA0005254546F4620726573706F6E7365206454
:103AB0006F6E650A000000005254546F462065780E
:103AC0006368616E67652076616C69640A00000056
:103AD0005254546F462074696D656F75740A000006
:103AE00057692D4669207363616E20646F6E650AA5
:103AF00000000000474E5353207363616E20646FD3
:103B00006E650A0010B5044600BF43A000F07CFEBD
:103B100043A000F079FE44A000F076FE48A000F03B
:103B200073FE00BF00BF3CA000F06EFE3CA000F0A2
:103B30006BFE618844A000F067FE41A000F064FEC7
:103B400000BF00BF34A000F05FFE35A000F05CFEB7
:103B5000217843A000F058FE39A000F055FE00BFC8
:103B600000BF2DA000F050FE2DA000F04DFE6178AA
:103B7000414800F049FE32A000F046FE00BF6078E8
:103B8000012815D1608840F20141884210D000BF61
:103B90003AA000F039FE3BA000F036FE618840F20A
:103BA00001423A4800F030FE25A000F02DFE00BF93
:103BB0006078022814D1608840F2012188420FD039
:103BC00000BF2EA000F020FE2EA000F01DFE40F24F
:103BD00001212FA000F018FE19A000F015FE00BF73
:103BE0006078032814D1608840F2031188420FD016
:103BF00000BF22A000F008FE22A000F005FE40F267
:103C0000031132A000F000FE0DA000F0FDFD00BF8A
:103C10003DA000F0F9FD10BD1B5B303B33326D0061
:103C2000494E464F3A2000004C5231317878206995
:103C30006E666F726D6174696F6E3A0A0000000003
:103C40001B5B306D0000000020202D204669726D46
:103C500077617265203D203078253034580A0000A5
:103C600020202D204861726477617265203D2030EC
:103C700078253032580A0000648400081B5B303B12
:103C800033336D005741524E3A200000B084000893
:103C90004C523131323020646F65736E2774207559
:103CA0007365206C6174657374206669726D7761E9
:103CB00072652076657273696F6E207768696368D4
:103CC000206973203078253032580A004C52313147
:103CD000323120646F65736E277420757365206CB4
:103CE0006174657374206669726D776172652076A0
:103CF000657273696F6E20776869636820697320E5
:103D00003078253032580A000A000000F8B506461F
:103D1000AB48007842B2AB480168AB4803F086FE7E
:103D200004467CB900BFA9A000F06EFDA9A000F078
:103D30006BFDAAA000F068FDB3A000F065FD00BF18
:103D400000BFFEE702F020FD0221304601F07EFBBD
:103D50000546002D15D0032D13D100BF9BA000F008
:103D600053FD9CA000F050FDA9A040F2B513AD4A50
:103D7000ADA10090B4A000F047FDA3A000F044FD69
:103D800000BF90480168304601F074FB0546002DE5
:103D900015D0032D13D100BF8CA000F035FD8DA0F0
:103DA00000F032FD9AA040F2B7139E4A9EA1009007
:103DB000A5A000F029FD94A000F026FD00BF8148D9
:103DC0000168814803F03BFE07463946304601F062
:103DD00071FB0546002D15D0032D13D100BF7BA02C
:103DE00000F012FD7BA000F00FFD89A04FF4DD7301
:103DF0008C4A8DA1009094A000F006FD82A000F0F6
:103E000003FD00BF611C304601F000FB0546002D9C
:103E100015D0032D13D100BF6CA000F0F5FC6DA0F0
:103E200000F0F2FC7AA04FF4DE737E4A7EA100908F
:103E300085A000F0E9FC74A000F0E6FC00BF94F956
:103E400000100222304601F01BFC0546002D15D063
:103E5000032D13D100BF5DA000F0D6FC5DA000F0E3
:103E6000D3FC6BA040F2BD136E4A6FA1009076A008
:103E700000F0CAFC64A000F0C7FC00BF012130467E
:103E800001F08CFB0546002D15D0032D13D100BF8A
:103E90004EA000F0B9FC4FA000F0B6FC5CA04FF4BF
:103EA000DF73604A60A1009067A000F0ADFC56A0EF
:103EB00000F0AAFC00BF0021304600F059FD054685
:103EC000002D15D0032D13D100BF40A000F09CFCA5
:103ED00040A000F099FC4EA040F2BF13514A52A1FD
:103EE000009059A000F090FC47A000F08DFC00BFAE
:103EF00002F03CFD5B4800785B4908705B48007845
:103F000048705B4800788870584A1178554A107894
:103F1000FFF7EDF95449C870304601F01BFA054629
:103F2000ADB1032D13D100BF28A000F06DFC29A076
:103F300000F06AFC36A040F2C9133A4A3AA1009058
:103F400041A000F061FC30A000F05EFC00BF4949D8
:103F5000304601F01FFA0546ADB1032D13D100BF65
:103F60001AA000F051FC1BA000F04EFC28A04FF45A
:103F7000E5732C4A2CA1009033A000F045FC22A050
:103F800000F042FC00BF1221304601F02BFA05463A
:103F9000ADB1032D13D100BF0CA000F035FC0DA076
:103FA00000F032FC1AA040F2CB131E4A1EA1009072
:103FB00025A000F029FC14A000F026FC00BFF8BDED
:103FC000D0000020D4000020000000201B5B303B0C
:103FD00033316D004552524F523A2000496E76619E
:103FE0006C696420746172676574206672657175AE
:103FF000656E6379206F7220706F776572206C65D3
:1040000076656C0A000000001B5B306D000000004C
:104010004C52313158585F5354415455535F4552B7
:10402000524F5200F87D00082E2E5C2E2E5C2E2E54
:104030005C636F6D6D6F6E5C617070735F636F6DED
:104040006D6F6E2E63000000496E202573202D20B9
:10405000257320286C696E65202564293A20257314
:104060000A000000DC00002020000020E00000200A
:10407000E4000020907D00082DE9FC4180460E46BA
:1040800017461C4601A9404600F06CFE9DF804004E
:1040900020702078B84211DD00BF3CA000F0B4FBD6
:1040A0003CA000F0B1FB21783A463C4800F0ACFB64
:1040B0003BA000F0A9FB00BFBDE8FC819DF80430E7
:1040C0009DF805203146404601F02AFB00BF2278CA
:1040D00035A139A000F098FB00250BE005F00F009A
:1040E00018B915B139A000F08FFB715D38A000F050
:1040F0008BFB6D1C2078A842F0D834A000F084FB24
:1041000000BF00BF34A000F07FFB35A000F07CFBB7
:1041100035A000F079FB22A000F076FB00BF6946D5
:10412000404600F005FD00BF2BA000F06DFB2CA069
:1041300000F06AFB9DF900102FA000F065FB18A0AD
:1041400000F062FB00BF00BF23A000F05DFB24A0D5
:1041500000F05AFB9DF902102EA000F055FB10A0B4
:1041600000F052FB00BF00BF1BA000F04DFB1CA0E5
:1041700000F04AFB9DF901102FA000F045FB08A0BC
:1041800000F042FB00BF00BF96E700001B5B303B26
:1041900033316D004552524F523A200020840008BE
:1041A0001B5B306D000000005061636B6574206321
:1041B0006F6E74656E7400002573202D2028256CA9
:1041C00075206279746573293A0A00000A000000BC
:1041D00020253032580000001B5B303B33326D002D
:1041E000494E464F3A2000005061636B657420735E
:1041F00074617475733A0A0020202D20525353497C
:10420000207061636B6574203D2025692064426DD8
:104210000A00000020202D205369676E616C205237
:10422000535349207061636B6574203D20256920DC
:1042300064426D0A0000000020202D20534E5220C1
:104240007061636B6574203D2025692064420A001B
:104250002DE9FC478146484601F0B0FB8046B8F1A5
:10426000000F16D0B8F1030F13D100BFA2A000F0C9
:10427000CBFAA3A000F0C8FAA3A040F25D13A74AAE
:10428000A7A10090AEA000F0BFFAB4A000F0BCFA65
:1042900000BF00BFB349C86880470646314648465C
:1042A00001F0F2FB8046B8F1000F16D0B8F1030F11
:1042B00013D100BF90A000F0A7FA91A000F0A4FADB
:1042C00091A040F26113954A95A100909CA000F046
:1042D0009BFAA2A000F098FA00BF00BFA14988682D
:1042E000804707463946484601F06EFB8046B8F1E4
:1042F000000F16D0B8F1030F13D100BF7EA000F05D
:1043000083FA7FA000F080FA7FA04FF4B273834A53
:1043100083A100908AA000F077FA90A000F074FAD0
:1043200000BF00BF8F4908698047044600BF20785E
:10433000012820D161784846626801F0B9FB8046C7
:10434000B8F1000F16D0B8F1030F13D100BF6AA067
:1043500000F05AFA6AA000F057FA6BA040F2691315
:104360006E4A6FA1009076A000F04EFA7BA000F09C
:104370004BFA00BF00BF00BF7A4948698047054635
:104380006A782978484601F037FA8046B8F1000F7C
:1043900016D0B8F1030F13D100BF57A000F034FAC4
:1043A00057A000F031FA58A040F26D135B4A5CA1AF
:1043B000009063A000F028FA68A000F025FA00BF82
:1043C000484601F02FFA8046B8F1000F16D0B8F138
:1043D000030F13D100BF48A000F016FA48A000F068
:1043E00013FA49A040F26F134C4A4DA1009054A01B
:1043F00000F00AFA59A000F007FA00BF3F21484632
:1044000001F0E6F98046B8F1000F16D0B8F1030FBD
:1044100013D100BF38A000F0F7F939A000F0F4F98B
:1044200039A04FF4B8733D4A3DA1009044A000F07C
:10443000EBF94AA000F0E8F900BF01A9484601F0F5
:104440004DFA8046B8F1000F16D0B8F1030F13D122
:1044500000BF29A000F0D8F929A000F0D5F92AA0C2
:1044600040F273132D4A2EA1009035A000F0CCF934
:104470003AA000F0C9F900BF484601F0D3F98046E0
:10448000B8F1000F16D0B8F1030F13D100BF1AA076
:1044900000F0BAF91AA000F0B7F91BA04FF4BA73F4
:1044A0001E4A1FA1009026A000F0AEF92BA000F03C
:1044B000ABF900BF2C49484601F0C4F98046B8F179
:1044C000000F16D0B8F1030F13D100BF0AA000F0FF
:1044D0009BF90BA000F098F90BA040F275130F4A5E
:1044E0000FA1009016A000F08FF91CA000F08CF92D
:1044F00000BF00F03BB800001B5B303B33316D0068
:104500004552524F523A20004C52313158585F5365
:1045100054415455535F4552524F5200B87D0008E4
:104520002E2E5C2E2E5C2E2E5C636F6D6D6F6E5C7E
:10453000617070735F636F6D6D6F6E2E630000004E
:10454000496E202573202D20257320286C696E6507
:10455000202564293A2025730A0000001B5B306D7A
:104560000000000000000020FCCFFF0B0CBCBDE8E9
:10457000F087000010B500F0DBF802F0C9F900BFC9
:1045800006A000F041F907A000F03EF907A000F0F6
:104590003BF907A000F038F900BF10BD1B5B303BB2
:1045A00033326D00494E464F3A2000000A000000A9
:1045B0001B5B306D0000000010B500BF32498869F8
:1045C000804732490860084600684079162811D0B3
:1045D0000968487903F054FA2D49086000200871F1
:1045E00002212B484171014601F108020868091DAA
:1045F00002F046FC254800688079162812D023492D
:104600000968887903F03CFA2249086000200871A3
:10461000022120484171014601F108020868091D84
:1046200002F02EFC19480068C079162812D01749EC
:104630000968C87903F024FA174908600020087156
:10464000022115484171014601F108020868091D5F
:1046500002F016FC0D4800680079162812D00B49AC
:104660000968087903F00CFA0C4908600020087109
:1046700002210A484171014601F108020868091D3A
:1046800002F0FEFB10BD0000000000203000002002
:104690004801002054010020600100206C0100202E
:1046A00010B5044600BF0EA000F0AEF80EA000F05A
:1046B000ABF821460EA000F0A7F813A000F0A4F874
:1046C00000BF00BF06A000F09FF807A000F09CF814
:1046D0000FA000F099F80CA000F096F800BF10BDF4
:1046E0001B5B303B33326D00494E464F3A20000091
:1046F00041542B5045522072656365697665643A72
:104700002025730A000000001B5B306D00000000D4
:10471000526573657474696E6720504552206D65EB
:1047200061737572656D656E742E2E2E0A00000021
:1047300010B500BF07A000F067F808A000F064F80B
:104740000848016808A000F05FF80CA000F05CF8D1
:1047500000BF10BD1B5B303B33326D00494E464FEE
:104760003A2000003400002053444B2076657273D9
:10477000696F6E3A2025730A000000001B5B306DE4
:104780000000000010B5002821D0114B0022001FAE
:10479000196803E0814203D80A4649680029F9D123
:1047A00052B11368841A9C4204D100681844106006
:1047B000104602E0506000E0186039B102680B1A40
:1047C000934203D10B681A4402604968416010BDEE
:1047D000F400002010B50220012806D0022809D1DB
:1047E0000549064800F0CCF910BD0549054800F020
:1047F0001FF9F9E70020F7E720000020907D00086E
:10480000987D0008A47D00080FB408B503A80090A7
:104810000099029803F0A0FA0020009001B05DF822
:1048200014FB000000A0704776322E342E310000B9
:104830002DE9F04104460E4617462546284600F06D
:104840005BF80021286902F05DFB3B4632460021FF
:10485000686802F0D5FE0121286902F053FB0020B0
:10486000BDE8F0812DE9FC470446884616461F4600
:10487000DDF828902546002001900090284600F0A1
:104880003BF80021286902F03DFB334600224146F7
:10489000686802F0B5FE0121286902F033FB284662
:1048A00000F02AF80021286902F02CFB01236A4657
:1048B00001A9686802F0A4FE4B463A4600216868E8
:1048C00002F09EFE0121286902F01CFB002000F08E
:1048D00000B80CBCBDE8F08770B504462546002141
:1048E000E86902F00FFB0120FDF7F7FE0121E869FE
:1048F00002F008FB002070BD38B50446254600BF15
:104900006946686C02F00CFA9DF800000128F7D0A7
:1049100038BD2DE9F0470446884616461F46DDF8A7
:10492000209025462846FFF7E7FF0021286902F07E
:10493000E9FA334600224146686802F061FE4B46C0
:1049400000223946686802F05BFE0121286902F006
:10495000D9FA0020BDE8F08710B5044600234FF0D7
:1049600080420249204600F005FF10BD5400F300CC
:104970007CB505460C4607A0006801908DF80640FE
:1049800000200346032201A900902846FFF7C1FF3B
:104990007CBD0000022700000146C8034FF47A7274
:1049A000B0FBF2F0704700000146012904D0022953
:1049B00004D0032906D103E003A070470AA0FCE756
:1049C00012A0FAE718A0F8E74C52313158585F525C
:1049D0004144494F5F46414C4C4241434B5F535425
:1049E0004442595F524300004C52313158585F5293
:1049F0004144494F5F46414C4C4241434B5F535405
:104A00004442595F584F5343000000004C5231312B
:104A100058585F524144494F5F46414C4C424143D4
:104A20004B5F465300000000556E6B6E6F776E0053
:104A3000F0B506460C46304600F00AF84FF47A719D
:104A400000FB01F725687819401EB0FBF5F0F0BDBA
:104A500010B50146487920B1012804D0022806D1BA
:104A600003E0002205E0082203E0092201E0002023
:104A700010BD00BFC87907280FD2DFE800F0060498
:104A8000080E0A0E0C00002308E0012306E00223B2
:104A900004E0012302E0022300E0002388790C797E
:104AA0000CB1012400E00024204418440B88134476
:104AB000CC78234403EBC000DAE700000146002075
:104AC000102927D2DFE801F0260B11171A1C1E2629
:104AD000080E14262620222442F6B1001AE043F6DE
:104AE000095017E045F2611014E047F6122011E07A
:104AF0004AF2C3200EE04FF224400BE0064809E0E2
:104B0000064807E0064805E0064803E0064801E0DD
:104B1000064800BF00BF704748E8010090D003007E
:104B200020A10700F8180300F0310600E0630C0034
:104B3000FEB506460C4611A00068029000200190C8
:104B4000032001AB022202A900903046FFF78AFE43
:104B500005468DB99DF804004010404240B22070D7
:104B60009DF8050040B2801C801060709DF8060022
:104B70004010404240B2A0702846FEBD0204000032
:104B8000F0B506460C462146304600F00DF84FF4CD
:104B90007A7100FB01F76078FFF790FF05467819FE
:104BA000401EB0FBF5F0F0BD2DE9F04F88B0804617
:104BB00098F8030007900E7898F80200012800D1B9
:104BC00000E000200690062E01DC012000E000201D
:104BD00007468878042801DD012000E000200590C8
:104BE00098F80400012802D14FF0020A01E04FF0CA
:104BF000000A07980AEB0002C87808B1012000E01B
:104C000000204FF0020A0AFB1064059800286BD0C0
:104C10004FF0040ACDF808A091F802A0BAF1070FEE
:104C200002D14FF0010B01E04FF0000B0AEB0B003B
:104C3000DDF818A0BAF1000F31D0A6F1020A4FF04A
:104C4000020B0BFB07AACDF804A04FEAC20A0AFB2D
:104C500000FADDF804B0CBEBCB0B4FEA8B0BDA4557
:104C600008DC4FEAC20A0AFB00F9DDF804A04FEAAB
:104C70008A0513E0DDF804A04FEACA0ACDF800A0C7
:104C80004FEA441A4FEAC20B0BFB00AB4FF0040E85
:104C9000DDF800A00EFB1AB9A50000BF23E04FEA23
:104CA000860A0AEBC70AAAF11C0A2AF007034FEA90
:104CB000C20A9A4509DDDDF81CA04FEACA0A9A45E6
:104CC00003DADDF81CA04FEACA03C3EBC20CBCF147
:104CD000000F01DA4FF0000C0CFB00FA4FF0200B34
:104CE0000BFB04A9A50010E0B00000EBC700A0F189
:104CF0000803069800B9143BC3EBC20CBCF1000FCB
:104D000001DA4FF0000CE146A50009EB0500401E5A
:104D100090FBF5F00390059838B98878001DDDF810
:104D20000CA000FB0AF008300390B8F80000001D4A
:104D30004FF0020A0AFB070A0398504404900498B3
:104D40008000401CA6F1020A4FF0010B0BFA0AFB8F
:104D500000FB0BF0401E08B000F000B830BCBDE80E
:104D6000C08F0000FEB506460C460BA000680290FE
:104D700000200190022001AB024602A900903046BB
:104D8000FFF770FD05462DB99DF8040020709DF8D1
:104D9000050060702846FEBD020300000146102990
:104DA00021D2DFE801F0200A0E1214161820080C98
:104DB0001020201A1C1E0DA0704712A0FCE717A09F
:104DC000FAE71CA0F8E721A0F6E726A0F4E72BA05D
:104DD000F2E731A0F0E737A0EEE73DA0ECE743A013
:104DE000EAE749A0E8E74FA0E6E700004C5231317E
:104DF00058585F524144494F5F4C4F52415F4257B0
:104E00005F3130004C52313158585F524144494F64
:104E10005F4C4F52415F42575F3135004C52313148
:104E200058585F524144494F5F4C4F52415F42577F
:104E30005F3230004C52313158585F524144494F33
:104E40005F4C4F52415F42575F3331004C5231311A
:104E500058585F524144494F5F4C4F52415F42574F
:104E60005F3431004C52313158585F524144494F00
:104E70005F4C4F52415F42575F3632004C523131E6
:104E800058585F524144494F5F4C4F52415F42571F
:104E90005F313235000000004C52313158585F52BA
:104EA0004144494F5F4C4F52415F42575F3235306A
:104EB000000000004C52313158585F524144494F74
:104EC0005F4C4F52415F42575F3530300000000069
:104ED0004C52313158585F524144494F5F4C4F5208
:104EE000415F42575F323030000000004C52313198
:104EF00058585F524144494F5F4C4F52415F4257AF
:104F00005F343030000000004C52313158585F524D
:104F10004144494F5F4C4F52415F42575F383030F8
:104F200000000000556E6B6E6F776E000146082919
:104F300015D2DFE801F00406080A0C0E101209A0D1
:104F400070470EA0FCE714A0FAE71AA0F8E720A02B
:104F5000F6E726A0F4E72CA0F2E732A0F0E738A0AD
:104F6000EEE700004C52313158585F524144494FEE
:104F70005F4C4F52415F4E4F5F4352004C523131B4
:104F800058585F524144494F5F4C4F52415F435222
:104F90005F345F35000000004C52313158585F5289
:104FA0004144494F5F4C4F52415F43525F345F363B
:104FB000000000004C52313158585F524144494F73
:104FC0005F4C4F52415F43525F345F370000000037
:104FD0004C52313158585F524144494F5F4C4F5207
:104FE000415F43525F345F38000000004C52313162
:104FF00058585F524144494F5F4C4F52415F4352B2
:105000005F4C495F345F35004C52313158585F5224
:105010004144494F5F4C4F52415F43525F4C495F9F
:10502000345F36004C52313158585F524144494F39
:105030005F4C4F52415F43525F4C495F345F3800D1
:10504000556E6B6E6F776E00014611B1012904D168
:1050500001E003A0704709A0FCE70FA0FAE70000F9
:105060004C52313158585F524144494F5F4C4F5276
:10507000415F4352435F4F46460000004C5231317E
:1050800058585F524144494F5F4C4F52415F435221
:10509000435F4F4E00000000556E6B6E6F776E00E1
:1050A000014611B1012904D101E003A070470AA013
:1050B000FCE711A0FAE700004C52313158585F521A
:1050C0004144494F5F4C4F52415F49515F535441F6
:1050D0004E444152440000004C52313158585F5206
:1050E0004144494F5F4C4F52415F49515F494E56D1
:1050F0004552544544000000556E6B6E6F776E004C
:10510000014611B1012904D101E003A070470AA0B2
:10511000FCE711A0FAE700004C52313158585F52B9
:105120004144494F5F4C4F52415F504B545F45588B
:10513000504C4943495400004C52313158585F5249
:105140004144494F5F4C4F52415F504B545F494D72
:10515000504C494349540000556E6B6E6F776E009A
:105160000146481F082815D2DFE800F00406080AA7
:105170000C0E101208A070470DA0FCE712A0FAE771
:1051800017A0F8E71CA0F6E721A0F4E726A0F2E7B5
:105190002BA0F0E730A0EEE74C52313158585F5267
:1051A0004144494F5F4C4F52415F53463500000028
:1051B0004C52313158585F524144494F5F4C4F5225
:1051C000415F5346360000004C52313158585F520F
:1051D0004144494F5F4C4F52415F534637000000F6
:1051E0004C52313158585F524144494F5F4C4F52F5
:1051F000415F5346380000004C52313158585F52DD
:105200004144494F5F4C4F52415F534639000000C3
:105210004C52313158585F524144494F5F4C4F52C4
:10522000415F5346313000004C52313158585F5283
:105230004144494F5F4C4F52415F5346313100006A
:105240004C52313158585F524144494F5F4C4F5294
:10525000415F534631320000556E6B6E6F776E00C2
:105260000146062910D2DFE801F0030507090B0DFE
:1052700006A070470BA0FCE711A0FAE717A0F8E71B
:105280001DA0F6E724A0F4E72AA0F2E74C52313142
:1052900058585F524144494F5F504B545F4E4F4EF8
:1052A000450000004C52313158585F524144494F3B
:1052B0005F504B545F545950455F4746534B000075
:1052C0004C52313158585F524144494F5F504B5412
:1052D0005F545950455F4C4F524100004C523131A0
:1052E00058585F524144494F5F504B545F54595096
:1052F000455F4250534B00004C52313158585F5279
:105300004144494F5F504B545F545950455F4C5294
:105310005F464853530000004C52313158585F5299
:105320004144494F5F504B545F545950455F52546C
:10533000544F4600556E6B6E6F776E0070B5054624
:105340000C462301F0220249284600F013FA70BDF2
:105350008C00F3003EB505460C460CA103C9CDE90F
:10536000010120788DF8060060788DF80700A0789C
:105370008DF80800E0788DF8090000200346062229
:1053800001A900902846FFF7C4FA3EBD020F0000B5
:10539000000000003EB505460C4610A103C9CDE94A
:1053A0000101208800128DF8060020788DF8070092
:1053B000A0788DF80800E0788DF8090020798DF844
:1053C0000A0060798DF80B0000200346082201A92D
:1053D00000902846FFF79DFA3EBD00000210000035
:1053E000000000007CB505460C4607A0006801904F
:1053F0008DF8064000200346032201A900902846AC
:10540000FFF787FA7CBD0000022B00003EB5054681
:105410000C460CA103C9CDE9010120788DF80600E6
:1054200060788DF80700A0788DF80800E0788DF896
:10543000090000200346062201A900902846FFF734
:1054400068FA3EBD02150000000000007CB505466C
:105450000C4607A0006801908DF806400020034626
:10546000032201A900902846FFF753FA7CBD0000F3
:10547000020E00003EB505460C460CA103C9CDE95D
:105480000101200E8DF80600200C8DF80700200A7F
:105490008DF80800E0B28DF80900002003460622CE
:1054A00001A900902846FFF734FA3EBD020B000028
:1054B0000000000030B585B005460C462DA30FCB8B
:1054C000CDE90323CDE90101607800F00F012078D8
:1054D00061F31F108DF80600E07800F00F01A0784E
:1054E00061F31F108DF80700607900F00F0120793B
:1054F00061F31F108DF80800E07900F00F01A0792A
:1055000061F31F108DF80900607A00F00F01207A16
:1055100061F31F108DF80A00E07A00F00F01A07A05
:1055200061F31F108DF80B00607B00F00F01207BF2
:1055300061F31F108DF80C00E07B00F00F01A07BE1
:1055400061F31F108DF80D00207C00F00F008DF826
:105550000E00608A000A8DF80F00A07C8DF8100004
:10556000002003460D2201A900902846FFF7D1F93B
:1055700005B030BD0229000000000000000000005E
:105580000000000070B505460C462046FFF704FAFF
:1055900006463146284600F015F870BD7CB5054634
:1055A0000C4607A0006801908DF8064000200346D5
:1055B000032201A900902846FFF7ABF97CBD00004B
:1055C0000213000070B504460D460322294620460A
:1055D00000F002F870BD0000FEB507460C46154607
:1055E000032617A103C9CDE90101200C8DF806009F
:1055F000200A8DF80700E0B28DF8080000BF384699
:10560000FFF7AAF9064606B116E000200346052278
:1056100001A900903846FFF77CF9064606B10BE079
:10562000022D01D0012D06D129463846FFF786FE0E
:10563000064606B100E000BF00BF3046FEBD0000D8
:10564000020900000000000070B505460C46204627
:10565000FFF7A2F906463146284600F029F870BD4A
:105660001CB5044605A000680190002003460222F4
:1056700001A900902046FFF74CF91CBD021900005B
:105680007CB506460C46154608A000680190E0B2BD
:105690008DF806008DF8075000200346042201A96A
:1056A00000903046FFF735F97CBD00000211000084
:1056B000FEB506460C46032511A103C9CDE901013B
:1056C000200C8DF80600200A8DF80700E0B28DF856
:1056D000080000BF3046FFF73FF9054605B10BE073
:1056E00000200346052201A900903046FFF711F97A
:1056F000054605B100E000BF00BF2846FEBD000022
:10570000020A0000000000000B1203704170130E2B
:105710008370130CC370130A037142717047000049
:105720002DE9FC4107460D4616461C4607A00068B9
:1057300001908DF806608DF807402B46042201A9E0
:1057400038460094FFF78EF8BDE8FC81010A00009E
:105750007CB506460C46154605A000680190234618
:10576000022201A930460095FFF7D3F87CBD000066
:1057700001090000F0B585B007460E4614461D46E7
:1057800032464FF4867101A8FFF7BEFF200E8DF858
:105790000A00200C8DF80B00200A8DF80C00E0B2F6
:1057A0008DF80D00280E8DF80E00280C8DF80F00D6
:1057B000280A8DF81000E8B28DF811000020034689
:1057C0000E2201A900903846FFF7A3F805B0F0BDFE
:1057D0007CB505460C4607A0006801908DF8064090
:1057E00000200346032201A900902846FFF791F804
:1057F0007CBD0000010F00007CB506460C46154636
:1058000007A00068019044EA85008DF8060000209A
:105810000346032201A900903046FFF77AF87CBDC9
:10582000011600001CB5044605A000680190002088
:105830000346022201A900902046FFF76AF81CBD2A
:10584000010E00003EB505460C460CA103C9CDE98A
:105850000101200E8DF80600200C8DF80700200AAB
:105860008DF80800E0B28DF80900002003460622FA
:1058700001A900902846FFF74CF83EBD0114000036
:105880000000000021B100F001024A7042100A70CD
:10589000704739B100F001028A70C0F342024A70C9
:1058A00002090A707047F8B506460C4600200090C1
:1058B0006F463B4600221146304600F02DF8054663
:1058C00035B9009820B130460099FFF7BBFF054677
:1058D00015B90CB1009820602846F8BDFEB5064603
:1058E0000C460CA00068029000200190022001AB41
:1058F000024602A900903046FEF7B4FF054635B9CE
:105900009DF805009DF8041000EB0120208028463A
:10591000FEBD0000010D00002DE9FC410746884650
:1059200015461C4600200090019006226946384624
:10593000FEF77EFF0646CEB99DF800004146FFF710
:10594000A1FF9DF801002946FFF7A3FF74B19DF860
:10595000020000069DF8031000EB01409DF80410C2
:1059600000EB01209DF80510084420603046BDE89A
:10597000FC810000FEB506460C460FA000680290B0
:1059800000200190042001AB022202A900903046C1
:10599000FEF768FF054665B99DF8040020709DF884
:1059A000050060709DF807009DF8061000EB0120CF
:1059B00060802846FEBD00000101000010B50446CD
:1059C0002046FEF789FF10BD7FB505460C4613A2A1
:1059D00007CA01AB07C320788DF8060060788DF800
:1059E0000700A0788DF80800E0788DF8090020798C
:1059F0008DF80A0060798DF80B00A0798DF80C0005
:105A0000E0798DF80D00002003460A2201A90090DC
:105A10002846FEF77EFF04B070BD000001120000B2
:105A200000000000000000007FB506460C46154649
:105A300012A207CA01AB07C3200E8DF80600200C86
:105A40008DF80700200A8DF80800E0B28DF80900F3
:105A5000280E8DF80A00280C8DF80B00280A8DF806
:105A60000C00E8B28DF80D00002003460A2201A9BF
:105A700000903046FEF74DFF04B070BD01130000EA
:105A800000000000000000007CB505460C4607A0A1
:105A9000006801908DF8064000200346032201A90A
:105AA00000902846FEF735FF7CBD00000110000085
:105AB000FEB506460D4614460BA103C9CDE901010A
:105AC0008DF80650200C8DF80700200A8DF808008C
:105AD000E0B28DF8090000200346062201A90090DB
