:020000040800F2
:10000000A80C00209D010008A5010008A701000818
:10001000A9010008AB010008AD01000800000000C4
:10002000000000000000000000000000AF01000818
:10003000B101000800000000B3010008B50100088C
:10004000B7010008B7010008B7010008B7010008B0
:10005000B7010008B701000809270008C1270008F8
:10006000D9270008F127000809280008B70100086F
:10007000B7010008B7010008B7010008B701000880
:10008000B7010008B7010008B7010008B701000870
:10009000B7010008B7010008B701000821280008CF
:1000A000B7010008B7010008B7010008B701000850
:1000B000B7010008B7010008B7010008B701000840
:1000C000B7010008B7010008B7010008B701000830
:1000D000B7010008B70100085D330008B701000848
:1000E00021270008B7010008B7010008B701000880
:1000F000B7010008B7010008B7010008B701000800
:10010000B7010008B7010008B7010008B7010008EF
:10011000B7010008B7010008B7010008B7010008DF
:10012000B7010008B7010008B7010008B7010008CF
:10013000B7010008B7010008B7010008B7010008BF
:10014000B7010008F9300008B7010008B70100083E
:10015000B7010008B7010008B7010008B70100089F
:10016000B7010008B7010008B7010008B70100088F
:10017000B7010008B7010008B7010008000000003F
:10018000B7010008B7010008DFF80CD000F0E8FB69
:100190000048004755660008A80C00200648804724
:1001A00006480047FEE7FEE7FEE7FEE7FEE7FEE75C
:1001B000FEE7FEE7FEE7FEE7493300088901000895
:1001C00040EA01039B0703D009E008C9121F08C0D9
:1001D000042AFAD203E011F8013B00F8013B521E59
:1001E000F9D27047D2B201E000F8012B491EFBD2D0
:1001F00070470022F6E710B513460A460446194632
:10020000FFF7F0FF204610BD30B505462A460B46E5
:1002100012F8010B13F8014B08B1A042F8D01CB141
:10022000002802D06D1CF1E7284630BD10B5044609
:1002300004E00B7800F8013B03B1491C521EF8D2D0
:10024000204610BD421C10F8011B0029FBD1801A6A
:100250007047000070B50F4D00B92868002412E007
:100260000A4602E09E4203D0521C1378002BF9D1BB
:10027000DAB2224305D02BB124B1002100F8011BD2
:1002800004E00446401C0678002EE9D12860204690
:1002900070BD0000440100202DE9F05F93460F4639
:1002A00080460446002603F0A1F8D0F8009082466C
:1002B00014F8015B2DB100F037FA0068405DC0070B
:1002C000F6D12B2D02D02D2D1AD0641E0021CAF894
:1002D00000105A463946204600F02AFA014627B156
:1002E0003868A04201D1C7F80080DAF8000002287F
:1002F00009D0CAF80090700505D5484200F005B84D
:1003000046F48066E2E70846F8E730BCBDE8C09FE7
:1003100070B5064603F06AF8046805460A22002113
:10032000304600F057FA2C6070BD2DE9FE4F804634
:1003300081EA0300C00F0C46009021F0004123F039
:100340000045B8EB0200A94105D24046214690463F
:100350001C460B46024623F00040104347D0270DB1
:10036000C7F30A00C3F30A510290401A01904028D3
:100370006BDAC3F3130040F4801B0098924620B15F
:100380000023D2EB030A63EB0B0B01985946C0F133
:100390004002504600F0A6F906460D465046594622
:1003A000019A00F0AEF910EB08006141002487EAE1
:1003B000115284EAE7731A4340D0009A62B3019A5B
:1003C000012A4FEA075215DC001B61EB02014FF0D6
:1003D000004202EA0752CDE90042001C41F58011BB
:1003E00032462B4600F03DFA03B000F045B84046D7
:1003F0002146F9E7001B61EB0201001C41F5801367
:1004000000185B412018A2F5001747EB030140EAF2
:10041000D570B6196D4111E06D084FEA360645EA10
:10042000C0754FEA0752001B61EB0201001C41F549
:10043000801149084FEA30000019514132462B46DD
:1004400003B000F01CB800F0FDB900980122400094
:100450000023D0EB020263EBE073009821464FEAE1
:10046000E074B8EB000061EB0401E9E783F00043BE
:100470005BE781F0004158E730BCBDE8C08F30BC7D
:10048000BDE8C04FFFF7DFBF2DE9FE4F81EA03044F
:1004900004F0004421F0004100944FF0000B23F0E1
:1004A000004350EA01045ED052EA03045BD0C3F378
:1004B0000A54C1F30A552C44A4F2F3340194A0FB6E
:1004C0000254C1F3130141F48011C3F3130343F445
:1004D000801301FB024400FB034E840A970A44EA9E
:1004E000815447EA8357A4FB076802958D0A05FBF0
:1004F00007854FEA932C04FB0C542705029D4FEA15
:10050000065847EA1637B5EB08056EEB070C870E61
:10051000920E47EA811742EA8312A7FB0201B6EB6B
:100520000B0164EB00042B0D43EA0C335E1844EB23
:100530001C50DA465146E7FB0201C5F313044FEAAB
:100540000B3343EA14534FEA0432019C43EA060397
:10055000A4F10C040294009CCDE900B400F081F9F0
:1005600003B000F003B800200146F9E730BCBDE855
:10057000C08F2DE9F04D81EA030404F0004B21F017
:10058000004514464FF0000A23F0004150EA0502EE
:1005900020D054EA01021DD0C5F30A570246C5F324
:1005A0001303C1F31300C1F30A5640F4801543F45A
:1005B0008013A7EB0608101BD64608F2FD3873EB34
:1005C000050002D308F1010801E092185B41B8F17F
:1005D000000F03DA00200146BDE8F08D00204FF443
:1005E0008011064684460EE0171B73EB050705D302
:1005F000121B63EB050306434CEA010C49084FEA62
:10060000300092185B4150EA0107EDD152EA030035
:1006100012D082EA040083EA0501084305D0101BCA
:10062000AB4106D20122002306E000224FF0004336
:1006300002E06FF0010253101AEB06004CEB085178
:1006400010EB0A0041EB0B01BDE8F04D00F0FAB8E9
:1006500030B50B46014600202022012409E021FA92
:1006600002F59D4205D303FA02F5491B04FA02F58F
:100670002844151EA2F10102F1DC30BD2DE9F05F26
:100680000546002092469B46884606468146402401
:100690001BE0284641464746224600F073F9534680
:1006A0005A46C01A914110D311461846224600F00E
:1006B00019F82D1A67EB01084F4622460120002148
:1006C00000F010F817EB00094E41201EA4F10104C0
:1006D000DFDC484631462A46434600F000B830BCCD
:1006E000BDE8C09F202A04DB203A00FA02F1002076
:1006F00070479140C2F1200320FA03F31943904060
:100700007047202A06DBCB17203A41FA02F043EA71
:10071000E07306E041FA02F3D040C2F120029140BA
:10072000084319467047000000487047E4910008EC
:100730002DE9F05F82460078002715468B460AF1C6
:100740000104B946302801D09DB113E014F8010B23
:100750000127782803D0582801D045B10AE00DB10F
:10076000102D07D10027102514F8010B02E00825F1
:1007700000E00A250026B0460EE005FB080005FB58
:1007800006F1012701EB10461FFA80F8B6F5803F0D
:1007900000D3B94614F8010B294600F003F90028EC
:1007A000EBDABBF1000F05D00FB1641E00E0544638
:1007B000CBF80040B9F1000F06D002F017FE02217D
:1007C0000160C81E00F003B848EA0640FAE730BCF2
:1007D000BDE8C09F2DE9F04791460F46804604468C
:1007E000002614F8015B2DB1FFF79EFF0068405D05
:1007F000C007F6D12B2D02D02D2D18D0641E4A46ED
:1008000039462046FFF794FF27B13968A14201D14C
:10081000C7F8008071054FF002040BD54042002854
:1008200003DD02F0E3FD0460A007BDE8F08746F4B5
:100830008066E4E70028F8DA02F0D8FD04606FF083
:100840000040F2E710B5141E73F1000408DA401CF2
:1008500041F1000192185B411A4301D120F00100DF
:1008600010BD2DE9F04D92469B4611B1B1FA81F2CF
:1008700002E0B0FA80F220329046FFF733FF0446E0
:100880000F4640EA0A0041EA0B0153465A46084324
:1008900013D0114653EA010019D0C8F14002504666
:1008A00000F070F805460E46504659464246FFF79E
:1008B00019FF084305D0012004E020463946BDE871
:1008C000F08D0020054346EAE0762C4337430A9832
:1008D0006305E40AA0EB08000022FD0A44EA47543D
:1008E0000A3002D500200146E9E7010510196941E7
:1008F000DDE9084500196941BDE8F04DA2E7C1F303
:100900000A52C1F3130140F2FF3341F480119A42BD
:1009100002DA00200146704740F233439A42A2F2C5
:10092000334202DC524200F02DB8FFF7DBBE00007C
:1009300030B5041E71F1000404DB4FF00044404266
:1009400064EB0101141E73F1000405DB1C464FF03B
:100950000043524263EB0403994208BF904230BD0A
:10096000064C074D06E0E06840F0010394E80700FC
:1009700098471034AC42F6D3FFF70AFC5C950008A8
:100980007C950008202A04DB203A21FA02F000219D
:10099000704721FA02F3D040C2F12002914008438F
:1009A000194670473A2800D2303820F02002412AF8
:1009B00001D3A2F13700884201D34FF0FF307047D6
:1009C00070B58C1810F8015B15F0070301D110F811
:1009D000013B2A1106D110F8012B03E010F8016B3E
:1009E00001F8016B5B1EF9D12B0705D40023521EC1
:1009F0000DD401F8013BFAE710F8013BCB1A921C29
:100A000003E013F8015B01F8015B521EF9D5A14226
:100A1000D8D3002070BD000070B504460E46ACB1BE
:100A20002046FFF775FC054600BF10A004F072FCDD
:100A300010A004F06FFC294610A004F06BFC15A078
:100A400004F068FC00BF154805600DE000BF07A07A
:100A500004F060FC07A004F05DFC11A004F05AFC57
:100A60000CA004F057FC00BF70BD00001B5B303BC6
:100A700033326D00494E464F3A20000048505F50D7
:100A8000415F53454C2073657420746F3A20256490
:100A90000A0000001B5B306D000000003C010020DC
:100AA000496E76616C696420706172616D65746510
:100AB000722E0A0070B504460D46A08AE18A401ADB
:100AC000A84215DA00BF10A004F024FC10A004F026
:100AD00021FCA08AE18A421A29460F4804F01AFC38
:100AE0000EA004F017FC00BFA08AE18A401A85B26C
:100AF000E38AE269D0182A46A169FFF761FBE08A20
:100B00002844E08270BD00001B5B303B33336D0036
:100B10005741524E3A2000002C9400081B5B306D68
:100B2000000000002DE9F04104460E4615461F4620
:100B300004B186B900BF2CA004F0ECFB2CA004F09B
:100B4000E9FB2DA004F0E6FB35A004F0E3FB00BFB9
:100B50000020BDE8F08120212046FFF74AFB2660F7
:100B600007223946201DFFF761FB284605F098FF54
:100B7000A061284605F094FFE061A06908B1E06932
:100B8000A8B900BF18A004F0C5FB19A004F0C2FB6F
:100B900025A004F0BFFB22A004F0BCFB00BFA069AD
:100BA00004F076FBE06904F073FB0020D1E72946EE
:100BB000A069FFF71EFB2946E069FFF71AFBA58233
:100BC00000202061E06000BF22A004F0A3FB23A06E
:100BD00004F0A0FB394623A004F09CFB10A004F015
:100BE00099FB00BF0120B4E71B5B303B33316D0044
:100BF0004552524F523A20004154435F496E697446
:100C0000206661696C65643A20696E76616C69641E
:100C100020706172616D65746572732E0A00000048
:100C20001B5B306D000000004154435F496E6974E6
:100C3000206661696C65643A206D656D6F7279201C
:100C4000616C6C6F636174696F6E206661696C655D
:100C5000642E0A001B5B303B33326D00494E464F19
:100C60003A20000041544320696E697469616C69DF
:100C70007A6564206F6E2025730A00002DE9F04725
:100C80000446E08A00283CDD002531E0E26852F8A5
:100C90003510E069FFF7B8FA064646B3E06800EBA6
:100CA000C500406818B30027B846E16851F8350020
:100CB000FFF7C8FA305C3D2811D1E16851F83500E2
:100CC000FFF7C0FA304400F101090FA14846FFF7D1
:100CD000C1FA07460CA10020FFF7BCFA8046E06885
:100CE00000EBC500414642683846904700BF6D1C86
:100CF0002069A842CAD80020E082A18AE069FFF7F3
:100D000078FABDE8F08700002C00000070B50446BA
:100D10000E46ACB12046FFF7FBFA054600BF10A017
:100D200004F0F8FA10A004F0F5FA294610A004F037
:100D3000F1FA16A004F0EEFA00BF164805600DE0C7
:100D400000BF07A004F0E6FA07A004F0E3FA12A03F
:100D500004F0E0FA0DA004F0DDFA00BF70BD000061
:100D60001B5B303B33326D00494E464F3A2000004A
:100D700050415F5247455F535550504C5920736561
:100D80007420746F3A2025640A0000001B5B306DEC
:100D90000000000030010020496E76616C6964201B
:100DA000706172616D657465722E0A0070B50446DB
:100DB0000E46ACB12046FFF7ABFA054600BF10A0C7
:100DC00004F0A8FA10A004F0A5FA294610A004F037
:100DD000A1FA14A004F09EFA00BF144805600DE0CB
:100DE00000BF07A004F096FA07A004F093FA10A041
:100DF00004F090FA0BA004F08DFA00BF70BD000063
:100E00001B5B303B33326D00494E464F3A200000A9
:100E100050415F53454C2073657420746F3A202510
:100E2000640A00001B5B306D000000002C010020F4
:100E3000496E76616C696420706172616D6574657C
:100E4000722E0A0070B506460D4606B10DB9002097
:100E500070BD002400E0641C55F8340020B105EB9F
:100E6000C40040680028F6D1F560346100BF08A0D6
:100E700004F050FA08A004F04DFA214608A004F04E
:100E800049FA10A004F046FA00BF0120E0E7000094
:100E90001B5B303B33326D00494E464F3A20000019
:100EA000415443206576656E747320636F6E666986
:100EB00067757265642E20546F74616C3A202564E6
:100EC0000A0000001B5B306D0000000070B5044696
:100ED0000E46002C76D02046FFF71AFA054600BFD2
:100EE00040A004F017FA41A004F014FA294641A0EA
:100EF00004F010FA45A004F00DFA00BF7D2D37D0A4
:100F00000EDC1F2D28D006DC0A2D19D00F2D1BD08A
:100F1000142D45D11CE0292D22D03E2D40D123E0B7
:100F2000B5F5C87F34D004DCC82D2DD0FA2D37D1CB
:100F300022E0B5F5FA7F23D0B5F5487F30D12BE01C
:100F40000820344908603BE001203249086037E05E
:100F500009203049086033E002202E4908602FE064
:100F60000A202C4908602BE003202A49086027E06A
:100F700004202849086023E00520264908601FE076
:100F80000620244908601BE00D202249086017E074
:100F90000E202049086013E00F201E4908600FE072
:100FA00000BF10A004F0B6F910A004F0B3F91AA025
:100FB00004F0B0F915A004F0ADF900BF70BD01E078
:100FC00000BF0DE000BF07A004F0A4F907A004F0E3
:100FD000A1F918A004F09EF90CA004F09BF900BF41
:100FE00000BFEBE71B5B303B33326D00494E464F91
:100FF0003A20000042616E6420776964746820734F
:10100000657420746F3A2025640A00001B5B306D04
:101010000000000014010020496E76616C696420B4
:10102000706172616D657465722076616C75652E94
:101030000A000000496E76616C696420706172611B
:101040006D657465722E0A0070B505460E46002D5A
:101050004BD02846FFF75CF9044600BF2BA004F0F4
:1010600059F92CA004F056F921462CA004F052F9AD
:1010700030A004F04FF900BF082C25D2DFE804F0BF
:1010800004080C1014181C2000202C4908602AE0C9
:1010900001202A49086026E002202849086022E051
:1010A0000320264908601EE00420244908601AE055
:1010B00005202249086016E006202049086012E059
:1010C00007201E4908600EE000BF10A004F022F9BE
:1010D00010A004F01FF91AA004F01CF915A004F0E8
:1010E00019F900BF70BD00BF0DE000BF07A004F0FC
:1010F00011F908A004F00EF918A004F00BF90DA0E6
:1011000004F008F900BF00BFECE700001B5B303BB8
:1011100033326D00494E464F3A20000050617261F3
:101120006D657465722073657420746F3A20256450
:101130000A0000001B5B306D000000001801002059
:10114000496E76616C696420706172616D65746569
:10115000722076616C75652E0A000000496E76611A
:101160006C696420706172616D657465722E0A002D
:1011700070B504460E46ACB12046FFF7C9F80546E7
:1011800000BF10A004F0C6F810A004F0C3F8294670
:1011900010A004F0BFF815A004F0BCF800BF15487B
:1011A00005600DE000BF07A004F0B4F807A004F04C
:1011B000B1F811A004F0AEF80CA004F0ABF800BF39
:1011C00070BD00001B5B303B33326D00494E464F13
:1011D0003A20000043572053776974636820736591
:1011E0007420746F3A2025640A0000001B5B306D88
:1011F000000000001C010020496E76616C696420CB
:10120000706172616D657465722E0A00F8B50446EE
:101210000E46002C28D00A2269462046FFF73CF8EB
:1012200005460098007868B100BF17A004F072F876
:1012300017A004F06FF818A004F06CF825A004F0D3
:1012400069F810E000BF10A004F064F810A004F0EA
:1012500061F8294621A004F05DF81EA004F05AF8B8
:1012600000BF254805600DE000BF07A004F052F85C
:1012700007A004F04FF821A004F04CF815A004F0EA
:1012800049F800BFF8BD00001B5B303B33326D00F6
:10129000494E464F3A200000496E76616C696420E1
:1012A0006672657175656E637920706172616D65D6
:1012B0007465723A206E6F6E2D6E756D657269631E
:1012C0002063686172616374657220666F756E6415
:1012D0002E0A00001B5B306D000000004672657135
:1012E00075656E63792073657420746F3A20257577
:1012F00020487A0A0000000008010020496E76614B
:101300006C6964206672657175656E6379207061C1
:1013100072616D657465722E0A00000070B5044636
:101320000D4600BFDCA003F0F5FFDDA003F0F2FFE7
:10133000DDA003F0EFFFE1A003F0ECFF00BF00BF72
:10134000D5A003F0E7FFD6A003F0E4FFDDA003F093
:10135000E1FFDAA003F0DEFF00BF00BFCEA003F084
:10136000D9FFCFA003F0D6FFDCA003F0D3FFD3A0BA
:1013700003F0D0FF00BF00BFC7A003F0CBFFC8A0A1
:1013800003F0C8FFDFA003F0C5FFCCA003F0C2FF4D
:1013900000BF00BFC0A003F0BDFFC1A003F0BAFFB3
:1013A000E0A003F0B7FFC5A003F0B4FF00BF00BF8B
:1013B000B9A003F0AFFFBAA003F0ACFFDEA003F0CA
:1013C000A9FFBEA003F0A6FF00BF00BFB2A003F0BC
:1013D000A1FFB3A003F09EFFE7A003F09BFFB7A01F
:1013E00003F098FF00BF00BFABA003F093FFACA0D9
:1013F00003F090FFE7A003F08DFFB0A003F08AFF99
:1014000000BF00BFA4A003F085FFA5A003F082FFEA
:10141000E74803F07FFFA9A003F07CFF00BF00BFF7
:101420009DA003F077FF9EA003F074FFE1A003F0FE
:1014300071FFA2A003F06EFF00BF00BF96A003F0F3
:1014400069FF97A003F066FFE3A003F063FF9BA092
:1014500003F060FF00BF00BF8FA003F05BFF90A010
:1014600003F058FFE3A003F055FF94A003F052FFF0
:1014700000BF00BF88A003F04DFF89A003F04AFF22
:10148000E3A003F047FF8DA003F044FF00BF00BFBF
:1014900081A003F03FFF82A003F03CFFE5A003F032
:1014A00039FF86A003F036FF00BF00BF7AA003F02B
:1014B00031FF7BA003F02EFFE5A003F02BFF7FA000
:1014C00003F028FF00BF00BF73A003F023FF74A048
:1014D00003F020FFEAA003F01DFF78A003F01AFF3D
:1014E00000BF00BF6CA003F015FF6DA003F012FF5A
:1014F000EC4803F00FFF71A003F00CFF00BF00BF2A
:1015000065A003F007FF66A003F004FFE6A003F068
:1015100001FF6AA003F0FEFE00BF00BF5EA003F063
:10152000F9FE5FA003F0F6FEEF4803F0F3FE63A0C0
:1015300003F0F0FE00BF00BF57A003F0EBFE58A081
:1015400003F0E8FEE94803F0E5FE5CA003F0E2FEEC
:1015500000BF00BF50A003F0DDFE51A003F0DAFE93
:10156000E3A003F0D7FE55A003F0D4FE00BF00BFF8
:1015700049A003F0CFFE4AA003F0CCFEE4A003F0A4
:10158000C9FE4EA003F0C6FE00BF00BF42A003F09C
:10159000C1FE43A003F0BEFEEDA003F0BBFE47A0DA
:1015A00003F0B8FE00BF00BF3BA003F0B3FE3CA0B9
:1015B00003F0B0FEF64803F0ADFE40A003F0AAFE33
:1015C00000BF00BF34A003F0A5FE35A003F0A2FECB
:1015D000F0A003F09FFE39A003F09CFE00BF00BF07
:1015E0002DA003F097FE2EA003F094FEF6A003F0CA
:1015F00091FE32A003F08EFE00BF00BF26A003F0D4
:1016000089FE27A003F086FEFBA003F083FE2BA03B
:1016100003F080FE00BF00BF1FA003F07BFE20A0F0
:1016200003F078FEFDA003F075FE24A003F072FE27
:1016300000BF00BF18A003F06DFE19A003F06AFE02
:10164000FDA003F067FE1DA003F064FE00BF00BF15
:1016500011A003F05FFE12A003F05CFEFDA003F0FA
:1016600059FE16A003F056FE00BF00BF0AA003F00B
:1016700051FE0BA003F04EFEFDA003F04BFE0FA0A9
:1016800003F048FE00BF00BF03A003F043FE04A028
:1016900003F040FEFAE100001B5B303B33326D008B
:1016A000494E464F3A20000041542B48454C5020AB
:1016B00072656365697665642E0A00001B5B306D98
:1016C0000000000041542B48505F50415F53454C8F
:1016D0003D3C76616C75653E0A00000020202D209F
:1016E000536574207468652050412048502073650C
:1016F0006C656374696F6E20706172616D6574658D
:10170000722E0A00202020204578616D706C653AA9
:101710002041542B48505F50415F53454C3D370AA0
:101720000000000041542B50415F53454C3D3C7636
:10173000616C75653E0A000020202D2053657420E1
:101740007468652050412073656C656374696F6EC1
:1017500020706172616D657465722028652E672E38
:101760002C203020666F72204C502C203120666F68
:1017700072204850292E0A00202020204578616DD3
:10178000706C653A2041542B50415F53454C3D30BD
:101790000A00000041542B50415F5247455F5355AA
:1017A00050504C593D3C76616C75653E0A00000016
:1017B000E4930008202020204578616D706C653A24
:1017C0002041542B50415F5247455F535550504C78
:1017D000593D300A0000000041542B50415F4455F0
:1017E00054595F4359434C453D3C76616C75653EA9
:1017F0000A00000020202D205365742074686520A5
:1018000050412064757479206379636C652E0A00F9
:10181000202020204578616D706C653A2041542B62
:1018200050415F445554595F4359434C453D340A38
:101830000000000041542B50415F5245414C5F5025
:101840004F5745523D3C76616C75653E0A0000007D
:1018500020202D204F76657272696465207468655A
:1018600020504120636F6E66696775726174696F9D
:101870006E20706F7765722076616C75652E0A0038
:10188000202020204578616D706C653A2041542BF2
:1018900050415F5245414C5F504F5745523D3134A6
:1018A0000A000000C492000841542B504F57455283
:1018B0003D3C706F7765723E203A2053657420740A
:1018C000686520706F77657220696E2064426D20B4
:1018D00028652E672E2C2041542B504F5745523DE2
:1018E0003134290A0000000058930008A093000832
:1018F00041542B5354415254203A20537461727412
:1019000020746865206F7065726174696F6E0A007B
:1019100041542B53463D3C53463E203A2053657478
:101920002074686520537072656164696E67204633
:101930006163746F722028652E672E2C2041542B12
:1019400053463D3720666F7220534637290A000000
:1019500041542B42573D3C42573E203A2053657438
:10196000207468652042616E647769647468202819
:10197000652E672E2C2041542B42573D31323520A5
:10198000666F7220313235206B487A290A000000D8
:101990001093000841542B545253573D3C706172D0
:1019A000616D3E203A205365742074686520545858
:1019B0002F52582073776974636820706172616D6B
:1019C000657465720A00000041542B435753573D1C
:1019D0003C706172616D3E203A20536574207468DA
:1019E0006520435720737769746368207061726162
:1019F0006D657465720A0000417661696C61626CA4
:101A00006520537072656164696E67204661637416
:101A10006F727320285346293A0A00002020353A75
:101A2000204C52313158585F524144494F5F4C4F1E
:101A300052415F5346350A002020363A204C52313D
:101A40003158585F524144494F5F4C4F52415F53A8
:101A500046360A002020373A204C52313158585F20
:101A6000524144494F5F4C4F52415F5346370A0041
:101A70002020383A204C52313158585F5241444965
:101A80004F5F4C4F52415F5346380A00D8A003F0D5
:101A900041FCAFF2D83003F03DFC00BF00BFAFF215
:101AA000084003F037FCAFF2084003F033FCD7A046
:101AB00003F030FCAFF2FC3003F02CFC00BF00BFA1
:101AC000AFF22C4003F026FCAFF22C4003F022FCD6
:101AD000D6A003F01FFCAFF21C4003F01BFC00BFBC
:101AE00000BFAFF24C4003F015FCAFF24C4003F0E6
:101AF00011FCD6A003F00EFCAFF2404003F00AFC4C
:101B000000BF00BFAFF2704003F004FCAFF27040C2
:101B100003F000FCD5A003F0FDFBAFF2604003F042
:101B2000F9FB00BF00BFAFF2904003F0F3FBAFF250
:101B3000904003F0EFFBD4A003F0ECFBAFF2844045
:101B400003F0E8FB00BF00BFAFF2B44003F0E2FBDC
:101B5000AFF2B44003F0DEFBCFA003F0DBFBAFF24B
:101B6000A44003F0D7FB00BF00BFAFF2D44003F0A6
:101B7000D1FBAFF2D44003F0CDFBCBA003F0CAFB06
:101B8000AFF2C84003F0C6FB00BF00BFAFF2F840A1
:101B900003F0C0FBAFF2F84003F0BCFBC6A003F0BB
:101BA000B9FBAFF2E84003F0B5FB00BF00BFAFF2F6
:101BB000185003F0AFFBAFF2185003F0ABFBC2A01C
:101BC00003F0A8FBAFF20C5003F0A4FB00BF00BF72
:101BD000AFF23C5003F09EFBAFF23C5003F09AFB97
:101BE000BDA003F097FBAFF22C5003F093FB00BFB6
:101BF00000BFAFF25C5003F08DFBAFF25C5003F01E
:101C000089FBB9A003F086FBAFF2505003F082FBD2
:101C100000BF00BFAFF2805003F07CFBAFF28050FA
:101C200003F078FBB4A003F075FBAFF2705003F043
:101C300071FB00BF00BFAFF2A05003F06BFBAFF22F
:101C4000A05003F067FBB0A003F064FBAFF2945028
:101C500003F060FB00BF00BFAFF2C45003F05AFBBB
:101C6000AFF2C45003F056FBABA003F053FBAFF24E
:101C7000B45003F04FFB00BF00BFAFF2E45003F0DD
:101C800049FBAFF2E45003F045FBB2A003F042FB86
:101C9000AFF2D85003F03EFB00BF00BFAFF20860C8
:101CA00003F038FBAFF2086003F034FBB8A003F098
:101CB00031FBAFF2F85003F02DFB00BF00BFAFF2D5
:101CC000286003F027FBAFF2286003F023FBBFA0DE
:101CD00003F020FBAFF21C6003F01CFB00BF00BF51
:101CE000AFF24C6003F016FBAFF24C6003F012FB56
:101CF000BEA003F00FFBAFF23C6003F00BFB00BF94
:101D000000BFAFF26C6003F005FBAFF26C6003F054
:101D100001FBBCA003F0FEFAAFF2606003F0FAFA38
:101D200000BF00BFAFF2906003F0F4FAAFF2906032
:101D300003F0F0FAB6A003F0EDFAAFF2806003F022
:101D4000E9FA00BF00BFAFF2B06003F0E3FAAFF210
:101D5000B06003F0DFFAB1A003F0DCFAAFF2A460E8
:101D600003F0D8FA00BF00BFAFF2D46003F0D2FA9C
:101D7000AFF2D46003F0CEFAABA003F0CBFAAFF22F
:101D8000C46003F0C7FA00BF00BFAFF2F46003F015
:101D9000C1FAAFF2F46003F0BDFAA6A003F0BAFAFC
:101DA000AFF2E86003F0B6FA00BF00BFAFF2187000
:101DB00003F0B0FAAFF2187003F0ACFAA1A003F090
:101DC000A9FAAFF2087003F0A5FA00BF00BFAFF2A6
:101DD000387003F09FFAAFF2387003F09BFA9DA0C1
:101DE00003F098FAAFF22C7003F094FA00BF70BDC4
:101DF0002020393A204C52313158585F52414449E1
:101E00004F5F4C4F52415F5346390A002031303A00
:101E1000204C52313158585F524144494F5F4C4F2A
:101E200052415F534631300A000000002031313A00
:101E3000204C52313158585F524144494F5F4C4F0A
:101E400052415F534631310A000000002031323ADE
:101E5000204C52313158585F524144494F5F4C4FEA
:101E600052415F534631320A0000000041766169F9
:101E70006C61626C652042616E647769647468733A
:101E800020284257293A0A0020202031302E3432AF
:101E9000206B487A0A00000020202031352E36338E
:101EA000206B487A0A00000020202032302E383380
:101EB000206B487A0A00000020202033312E323572
:101EC000206B487A0A000000202034312E3637205B
:101ED0006B487A0A0000000020202036322E353070
:101EE000206B487A0A0000002020203132352E3045
:101EF00030206B487A0A00002020203235302E3006
:101F000030206B487A0A00002020203530302E30F7
:101F100030206B487A0A000020203230332E3030D7
:101F2000206B487A202832473420616E6420636F2A
:101F30006D70617469626C652077697468204C52B9
:101F400031313278206368697073206F6E6C792943
:101F50000A00000020203430362E3030206B487AC2
:101F6000202832473420616E6420636F6D70617485
:101F700069626C652077697468204C52313132781F
:101F8000206368697073206F6E6C79290A00000005
:101F900020203831322E3030206B487A20283247CA
:101FA0003420616E6420636F6D70617469626C656A
:101FB0002077697468204C52313132782063686927
:101FC0007073206F6E6C79290A0000004176616998
:101FD0006C61626C6520436F64696E672052617446
:101FE000657320284352293A0A0000002020303A25
:101FF000204E6F20636F64696E6720726174650A9A
:10200000000000002020313A20342F350A00000063
:102010002020323A20342F360A0000002020333AA4
:1020200020342F370A0000002020343A20342F3883
:102030000A0000002020353A204C4920342F350A70
:10204000000000002020363A204C4920342F360A68
:10205000000000002020373A204C4920342F380A55
:102060000000000070B504460E46ACB12046FEF7F5
:102070004FF9054600BF10A003F04CF910A003F083
:1020800049F9294610A003F045F915A003F042F9DB
:1020900000BF154805600DE000BF07A003F03AF946
:1020A00007A003F037F911A003F034F90CA003F0F6
:1020B00031F900BF70BD00001B5B303B33326D0057
:1020C000494E464F3A2000004E425F4652414D4530
:1020D0002073657420746F3A2025640A00000000A4
:1020E0001B5B306D0000000020010020496E76610E
:1020F0006C696420706172616D657465722E0A008E
:1021000070B504460E46ACB12046FEF701F905460F
:1021100000BF10A003F0FEF810A003F0FBF8294662
:1021200010A003F0F7F816A003F0F4F800BF16486B
:1021300005600DE000BF07A003F0ECF807A003F076
:10214000E9F812A003F0E6F80DA003F0E3F800BFF1
:1021500070BD00001B5B303B33326D00494E464F73
:102160003A20000050415F445554595F4359434C55
:10217000452073657420746F3A2025640A000000BE
:102180001B5B306D0000000034010020496E766159
:102190006C696420706172616D657465722E0A00ED
:1021A00070B504460E46ACB12046FEF7B1F80546C0
:1021B00000BF10A003F0AEF810A003F0ABF8294662
:1021C00010A003F0A7F816A003F0A4F800BF16486B
:1021D00005600DE000BF07A003F09CF807A003F026
:1021E00099F812A003F096F80DA003F093F800BF41
:1021F00070BD00001B5B303B33326D00494E464FD3
:102200003A20000050415F5245414C5F504F5745C6
:10221000522073657420746F3A2025640A00000010
:102220001B5B306D0000000038010020496E7661B4
:102230006C696420706172616D657465722E0A004C
:1022400070B504460E469CB12046FEF761F805467F
:1022500000BF0FA003F05EF80FA003F05BF8294663
:102260000FA003F057F814A003F054F800BF0DE0DE
:1022700000BF07A003F04EF807A003F04BF810A032
:1022800003F048F80CA003F045F800BF70BD000053
:102290001B5B303B33326D00494E464F3A20000005
:1022A000506172616D657465722073657420746F1E
:1022B0003A2025640A0000001B5B306D000000001E
:1022C000496E76616C696420706172616D657465D8
:1022D000722E0A0070B504460E46ACB12046FEF7D9
:1022E00017F8054600BF10A003F014F810A003F083
:1022F00011F8294610A003F00DF815A003F00AF814
:1023000000BF154805600DE000BF07A003F002F80C
:1023100007A002F0FFFF11A002F0FCFF0CA002F0EA
:10232000F9FF00BF70BD00001B5B303B33326D0016
:10233000494E464F3A200000506F77657220736512
:102340007420746F3A2025642064426D0A000000F6
:102350001B5B306D0000000004010020496E7661B7
:102360006C696420706F77657220706172616D6551
:102370007465722E0A00000070B504460E46ACB1BA
:102380002046FDF7C5FF054600BF10A002F0C2FFC2
:1023900010A002F0BFFF294610A002F0BBFF16A05C
:1023A00002F0B8FF00BF164805600DE000BF07A0AF
:1023B00002F0B0FF07A002F0ADFF12A002F0AAFFEA
:1023C0000DA002F0A7FF00BF70BD00001B5B303BFB
:1023D00033326D00494E464F3A20000052585F425A
:1023E0004F4F53542053776974636820736574208A
:1023F000746F3A2025640A001B5B306D00000000FA
:1024000024010020496E76616C69642070617261FC
:102410006D657465722E0A0070B504460E46002C78
:102420004CD02046FDF774FF054600BF2BA002F0FC
:1024300071FF2CA002F06EFF29462CA002F06AFF6B
:1024400030A002F067FF00BF681F082825D2DFE830
:1024500000F004080C1014181C2005202B490860FB
:102460002AE006202949086026E00720274908605D
:1024700022E00820254908601EE009202349086061
:102480001AE00A202149086016E00B201F49086065
:1024900012E00C201D4908600EE000BF0FA002F002
:1024A00039FF10A002F036FF19A002F033FF15A08B
:1024B00002F030FF00BF70BD00BF0DE000BF07A0FD
:1024C00002F028FF07A002F025FF18A002F022FF6B
:1024D0000CA002F01FFF00BF00BFECE71B5B303B0E
:1024E00033326D00494E464F3A2000005061726110
:1024F0006D657465722073657420746F3A2025646D
:102500000A0000001B5B306D00000000100100207D
:10251000496E76616C696420706172616D65746585
:10252000722076616C75652E0A000000496E766136
:102530006C696420706172616D657465722E0A0049
:1025400070B504460E46ACB12046FDF7E1FE0546E7
:1025500000BF10A002F0DEFE10A002F0DBFE294654
:1025600010A002F0D7FE15A002F0D4FE00BF15485F
:1025700005600DE000BF07A002F0CCFE07A002F04E
:10258000C9FE11A002F0C6FE0CA002F0C3FE00BFFF
:1025900070BD00001B5B303B33326D00494E464F2F
:1025A0003A200000534C4545502054696D65207316
:1025B000657420746F3A2025640A00001B5B306D3F
:1025C0000000000028010020496E76616C696420DB
:1025D000706172616D657465722E0A0070B5044693
:1025E0000D4600BF0FA002F095FE10A002F092FE73
:1025F00010A002F08FFE14A002F08CFE00BF00BFFE
:1026000008A002F087FE09A002F084FE10A002F0EC
:1026100081FE0DA002F07EFE00BF0120124908607D
:1026200070BD00001B5B303B33326D00494E464F9E
:102630003A20000041542B53544152542072656398
:1026400065697665642E0A001B5B306D0000000032
:10265000537461727420746865206F706572617460
:10266000696F6E2E2E2E0A004000002070B50446C1
:102670000E46ACB12046FDF74BFE054600BF10A04C
:1026800002F048FE10A002F045FE294610A002F01C
:1026900041FE15A002F03EFE00BF154805600DE0AA
:1026A00000BF07A002F036FE07A002F033FE11A023
:1026B00002F030FE0CA002F02DFE00BF70BD000045
:1026C0001B5B303B33326D00494E464F3A200000D1
:1026D000506172616D657465722073657420746FEA
:1026E0003A2025640A0000001B5B306D00000000EA
:1026F0000C010020496E76616C6964207061726122
:102700006D657465722E0A0010B5012000F00AFA9A
:1027100028B1012000F0E8F8012005F0EFFA10BD23
:1027200010B54FF4806000F0FDF938B14FF48060CF
:1027300000F0DAF84FF4806005F0E0FA4FF4006042
:1027400000F0F0F938B14FF4006000F0CDF84FF42C
:10275000006005F0D3FA4FF4805000F0E3F938B18F
:102760004FF4805000F0C0F84FF4805005F0C6FAE6
:102770004FF4005000F0D6F938B14FF4005000F09B
:10278000B3F84FF4005005F0B9FA4FF4804000F070
:10279000C9F938B14FF4804000F0A6F84FF48040FA
:1027A00005F0ACFA4FF4004000F0BCF938B14FF43A
:1027B000004000F099F84FF4004005F09FFA10BD7A
:1027C00010B5022000F0AEF928B1022000F08CF81C
:1027D000022005F093FA10BD10B5042000F0A2F914
:1027E00028B1042000F080F8042005F087FA10BD1D
:1027F00010B5082000F096F928B1082000F074F810
:10280000082005F07BFA10BD10B5102000F08AF901
:1028100028B1102000F068F8102005F06FFA10BD04
:1028200010B5202000F07EF928B1202000F05CF8DF
:10283000202005F063FA402000F074F928B1402010
:1028400000F052F8402005F059FA802000F06AF9B3
:1028500028B1802000F048F8802005F04FFA4FF4AE
:10286000807000F05FF938B14FF4807000F03CF8F0
:102870004FF4807005F042FA4FF4007000F052F906
:1028800038B14FF4007000F02FF84FF4007005F0ED
:1028900035FA10BD08B50549C96C0143034AD16436
:1028A0001146C96C0140009100BF08BD00100240F4
:1028B00008B50549C96C0143034AD1641146C96C86
:1028C0000140009100BF08BD0010024008B5054955
:1028D000C96C0143034AD1641146C96C014000919F
:1028E00000BF08BD001002400149086070470000A9
:1028F00014040140024909688143014A116070478C
:1029000004040140024909688143014A116070478B
:1029100024040140024909688143014A116070475B
:1029200000040140024909688143014A116070476F
:1029300020040140024909680143014A11607047BF
:1029400004040140024909680143014A11607047CB
:1029500024040140024909680143014A116070479B
:102960000C040140024909680143014A11607047A3
:102970002C040140024909680143014A1160704773
:1029800000040140024909680143014A116070478F
:1029900020040140024909680143014A116070475F
:1029A00008040140024909680143014A1160704767
:1029B0002804014070B504460025207A00287BD009
:1029C000206800284BD0607A20B1012809D0022865
:1029D00015D10DE02068FFF78DFF2068FFF7CAFFD3
:1029E0000FE02068FFF796FF2068FFF7A3FF08E0DD
:1029F0002068FFF7BFFF2068FFF79CFF01E001257B
:102A000000BF00BFA07A50B3A07A012804D00228EA
:102A10000DD003281FD117E0206841490968814380
:102A20003F4A116000BF2068FFF7B4FF16E020683E
:102A30003B49091F09688143394A121F116000BFD1
:102A40002068FFF787FF09E02068FFF7A3FF2068F1
:102A5000FFF780FF02E045F0020500BF00BF60689D
:102A600000285AD0607A20B1012809D0022815D157
:102A70000DE06068FFF746FF6068FFF783FF10E036
:102A80006068FFF74FFF6068FFF75CFF09E0606870
:102A9000FFF778FF6068FFF755FF02E045F0040597
:102AA00000BF00BFA07A58B3A07A012805D0022841
:102AB00010D0032822D11AE023E0606818492031A1
:102AC00009688143164A2032116000BF6068FFF731
:102AD00069FF15E0606812491C3109688143104A9A
:102AE0001C32116000BF6068FFF73CFF08E06068BF
:102AF000FFF758FF6068FFF735FF01E0012500BFD1
:102B00000BE02068FFF706FF2068FFF7F3FE606820
:102B1000FFF708FF6068FFF7F5FE284670BD00006C
:102B20000C0401400146044800680840884201D175
:102B3000012070470020FCE714040140F0B5024674
:102B40000B46186890FAA0F0B0FA80F487E00120F4
:102B5000A0401D6805EA000100297FD058680128BF
:102B600002D0586802281DD19868956891FAA1F69C
:102B7000B6FA86F677000326BE40B54391FAA1F671
:102B8000B6FA86F6760000FA06F63543956000BF81
:102B9000DD6818685668864300FB05F73E435660BB
:102BA00000BF00BF1869D56891FAA1F6B6FA86F69B
:102BB00077000326BE40B54391FAA1F6B6FA86F631
:102BC000760000FA06F63543D56000BF5868022843
:102BD0002DD1FF2914D85869156A91FAA1F6B6FAD1
:102BE00086F6B7000F26BE40B54391FAA1F6B6FAB5
:102BF00086F6B60000FA06F63543156200BF16E009
:102C00005869556A0E0A96FAA6F6B6FA86F6B7001D
:102C10000F26BE40B5430E0A96FAA6F6B6FA86F619
:102C2000B60000FA06F63543556200BF00BF58688B
:102C3000156891FAA1F6B6FA86F677000326BE402B
:102C4000B54391FAA1F6B6FA86F6760000FA06F6D2
:102C50003543156000BF00E000E000BF641C186849
:102C6000E04000287FF473AFF0BD4FF47A71B0FB01
:102C7000F1F2521E4FF0E0235A6100229A610522C0
:102C80001A6100BF704700002DE9F041044600259D
:102C9000C02C29D1204600F05DF8B0F5400F17D0C8
:102CA000A0F54000403820B1402806D0802819D136
:102CB00008E000F081FA054615E000F0EDF800B1FB
:102CC000224D10E000F0F0F808B14FF400450AE0A2
:102CD00000F072FA074600F03BFA064600F048FAA8
:102CE000054600E000BF00BFB4F5407F2AD1204672
:102CF00000F030F8B0F1407F18D01549084430B1E9
:102D0000B0F5807F07D0B0F5007F19D108E000F062
:102D100053FA054615E000F0BFF800B10B4D10E086
:102D200000F0C2F808B14FF400450AE000F044FAA0
:102D3000074600F00DFA064600F01AFA054600E0D4
:102D400000BF00BF2846BDE8F08100000024F40069
:102D500000FFFFFC014603480068084040EA0140CC
:102D600070470000881002402DE9F041044600251C
:102D7000032C29D1204600F085F8B0F5403F17D04C
:102D80006FF44031084420B1012806D0022819D13F
:102D900008E000F011FA054615E000F07DF800B1FA
:102DA000374D10E000F080F808B14FF400450AE01C
:102DB00000F002FA074600F0CBF9064600F0EAF907
:102DC000054600E000BF57E00C2C29D1204600F05A
:102DD00059F8B0F5402F17D0A0F54020001F20B1C2
:102DE000042806D0082819D108E000F0E5F90546C6
:102DF00015E000F051F800B1214D10E000F054F85A
:102E000008B14FF400450AE000F0D6F9074600F09B
:102E10009FF9064600F0ACF9054600E000BF2BE044
:102E2000302C29D1204600F02DF8B0F5401F17D0E6
:102E3000A0F54010103820B1102806D0202819D154
:102E400008E000F0B9F9054615E000F025F800B1FA
:102E50000B4D10E000F028F808B14FF400450AE0EF
:102E600000F0AAF9074600F073F9064600F080F971
:102E7000054600E000BF00BF2846BDE8F081000025
:102E80000024F400014603480068084040EA01407D
:102E9000704700008810024002480068C0F380209C
:102EA000704700000010024002480068C0F3400074
:102EB00070470000901002400248006800F0F000E7
:102EC00070470000001002400248006800F4706083
:102ED000704700009410024002480068C0F3C00030
:102EE00070470000001002400248C06800F0700007
:102EF00070470000001002400248C06800F0030064
:102F000070470000001002400248C068C0F306206D
:102F1000704700000010024030B50246012300BF98
:102F20001068C0F38010A0BBD1E900042043CC6836
:102F300020430C6920434C6920438C692043CC69B1
:102F400020430C6A204314684FF6BF75AC432043FE
:102F500010604C69886840EA1440546840F6047573
:102F6000AC43204350608868B0F5006F07D2180367
:102F7000546824F480540443546000BF00BF086ABE
:102F8000B0F5005F04D1486A84B2146100BF00BF8D
:102F90000023184630BD000001490860704700005A
:102FA000400100202DE9F04104460D46012700268E
:102FB000204600F080F8002868D1E9686868084376
:102FC00029690843A96908432168324A1140084326
:102FD0002060A868616821F440510143616000BF2E
:102FE0006869A16821F440710143A16000BF2A48CB
:102FF000844204D10320FFF7B7FE06461FE02748AE
:10300000844204D10C20FFF7AFFE064617E02448A7
:10301000844204D13020FFF7A7FE06460FE0214886
:10302000844204D1C020FFF72FFE064607E01E4869
:10303000844204D14FF44070FFF726FE06462EB3BB
:10304000286818B300273146AB692868B3F5004FEC
:1030500012D14FEA410808EB5008B8FBF0F81FFA0C
:1030600088F24FF6F07802EA080CC2F342084CEA04
:10307000080CC4F80CC007E001EB5008B8FBF0F8EE
:103080001FFA88F8C4F80C8000BF00BF3846BDE8BE
:10309000F0810000F369FFEF003801400044004078
:1030A00000480040004C0040005000400146C86904
:1030B000C0F3401070470146086800F001007047F7
:1030C0000146086800F00100704708B501464FF05E
:1030D000E02212690092084600BF421C02B1401C67
:1030E00006E04FF0E022126902F4803202B1401E85
:1030F0000028F6D108BD000010B500BF12480068D6
:10310000C0F34000F0B100BF0F48406840F002003B
:103110000D49486000BF002412E00C4800EB041089
:103120004068094988420AD1084800EB0410C06889
:1031300028B1064901EB0411C868804710BD641C22
:10314000012CEADB00BFF9E7007C00407806002094
:10315000014600BF0448806800F0F0000009034AFF
:10316000125C21FA02F0704700100240288D00081E
:10317000014600BF0548806800F4E060044A02EBA5
:103180001020027821FA02F070470000001002407F
:10319000388D0008014600BF0548806800F4605083
:1031A000044A02EBD020027821FA02F070470000B6
:1031B00000100240388D000810B500BF2948806813
:1031C00000F00C0030B1042822D0082822D00C28AE
:1031D00026D121E0FFF780FE60B9FFF77DFE10B138
:1031E000FFF76AFE01E0FFF76FFE000A1E4951F883
:1031F00020000BE0FFF770FE10B1FFF75DFE01E06D
:10320000FFF762FE0009184951F82000044625E046
:10321000164C23E0164C21E000F02CF804461DE08B
:10322000FFF75AFE60B9FFF757FE10B1FFF744FEF3
:1032300001E0FFF749FE000A0B4951F820000BE0BE
:10324000FFF74AFE10B1FFF737FE01E0FFF73CFE43
:103250000009054951F82000044600BF00BF204680
:1032600010BD000000100240408D00080024F40052
:1032700000127A0070B5FFF73FFE0546012D04D01D
:10328000022D20D0032D22D11FE0FFF725FE60B9CB
:10329000FFF722FE10B1FFF70FFE01E0FFF714FE6B
:1032A000000A254951F820000BE0FFF715FE10B188
:1032B000FFF702FE01E0FFF707FE00091E4951F883
:1032C0002000044621E01D4C1FE01D4C1DE0FFF7CF
:1032D00003FE60B9FFF700FE10B1FFF7EDFD01E05E
:1032E000FFF7F2FD000A144951F820000BE0FFF748
:1032F000F3FD10B1FFF7E0FD01E0FFF7E5FD000988
:103300000D4951F82000044600BF00BFFFF7ECFD57
:10331000012101EB1010B4FBF0F6FFF7F5FD464379
:103320000848C06800F0C060012101EB5060400017
:10333000B6FBF0F070BD0000408D00080024F400E2
:1033400000127A00001002400348006840F4700048
:10335000014908607047000088ED00E070B518482A
:10336000FFF7A4FE50B300BF15480068C0F340103B
:1033700020B300BF1248808CC0B20546002419E07B
:1033800004EB44000F4901EB800040680C4988427F
:103390000FD104EB44000B4901EB8000806838B189
:1033A00004EB44000A4602EB800081682846884707
:1033B00002E0641C012CE3DB00BF00BF70BD000015
:1033C000004400406C06002037B514460846064B02
:1033D0006A46214600F0E4F804466946002000F001
:1033E00079FC20463EBD0000D53C000800487047EF
:1033F0005001002002E008C8121F08C1002AFAD1BB
:1034000070477047002001E001C1121F002AFBD164
:10341000704700002DE9FF5F82B00021DDE9043034
:10342000020DDDF840B0034318D044F61050A2F26C
:10343000FF3242431514119801281FD0A5EB0B0051
:10344000401C5FEA000A4FF000064E4FDFF838914B
:10345000B046504615D5CAF1000413E01198012476
:103460004AA3012801D16FEA0B010298119AC0E921
:103470000031C0E9024206B000F08EB8CBF1000086
:10348000DFE704460021404A491842EB0450CDE9E9
:10349000001012E0E00707D032463B46404649465E
:1034A000FCF7F2FF8046894632463B4610461946F5
:1034B000FCF7EAFF06460F466410002CEAD1DDE96E
:1034C0000401DDE90023BAF1000F06DAFCF7DCFFA6
:1034D00042464B46FCF7D8FF05E0FDF74AF8424666
:1034E0004B46FDF746F804460E460022284BFDF7F2
:1034F0001FFA03D84FF0FF30014607E00022254BAA
:1035000020463146FCF711FFFDF7F9F9102409E0D8
:10351000002C0ADB0A220023FDF7B0F8039B3032AF
:103520001A55641E50EA0102F2D1641C039AC4F1D8
:1035300011031444119A012A03D0012208430DD12A
:103540000AE0084304D000204FF0110B119072E7FD
:10355000A3EB0B056D1E0DE05B4504DD4FF0000293
:1035600005F1010504E003DA4FF00002A5F10105C1
:10357000002AECD002981199C0E90231C0E9004557
:1035800079E70000000014400000F03F3000000028
:103590000000F0430000E03F30BCBDE8C09F0000E9
:1035A0002DE9FF4F95B09B468946064600250FE260
:1035B000252877D100242746F84A0121059400E008
:1035C000044316F8013F203B01FA03F01042F7D103
:1035D00030782A2811D06FF02F033078A0F1300214
:1035E000092A16D8059A44F0020402EB820203EB82
:1035F00042021044761C0590EFE759F8042B05921F
:10360000002A03DA504244F40054059044F00204C6
:10361000761C30782E2816D116F8010F44F00404D9
:103620002A280DD06FF02F023078A0F13003092B3B
:1036300009D807EB870302EB4303C718761CF3E7AF
:1036400059F8047B761C30786C280FD006DC4C28A7
:1036500017D068280DD06A2814D104E0742810D03F
:103660007A280FD10DE044F400140AE044F48014E9
:1036700001E044F440147278824202D104F58014CF
:10368000761C761C307866280BD013DC582877D04F
:1036900009DC002875D04528F6D04628F4D0472804
:1036A0001AD19DE118E0632835D0642879D06528C7
:1036B00012D195E1702873D008DC6728F1D0692811
:1036C0006FD06E280DD06F2806D1B5E073282CD0AE
:1036D000752875D0782874D05A46179990476D1C74
:1036E00075E1C4F30250022809D003280DD0D9F89F
:1036F000001004280DD00D6009F1040967E1D9F824
:103700000010EA17C1E90052F6E7D9F800100D8061
:10371000F2E70D70F0E719F8041B8DF80010002097
:103720008DF80100EA46012003E059F804AB4FF0A0
:10373000FF3061074FF0000102D40DE008F10101F4
:103740008846B9420FDA8045F8DB1AF808100029DC
:10375000F4D108E008F1010188468142FADB1AF849
:1037600008100029F6D105985B46A0EB0807214612
:103770003846179A00F097FA284400EB080507E04E
:103780004DE029E10DE01AF8010B5A4617999047D0
:10379000B8F10108F7D25B4621463846179A13E183
:1037A00042E00A220092C4F302524FF0000A022AB9
:1037B00008D059F804CB032A4FEAEC710AD00DE087
:1037C00029E02AE009F1070121F00702F2E802C12D
:1037D000914609E00FFA8CFC4FEAEC71042A03D100
:1037E0004FFA8CFC4FEAEC71002907DA0A460021F7
:1037F000DCF1000C61EB02012D2202E0220504D570
:103800002B228DF80420012203E0E20701D02022C0
:10381000F7E7904659E00A2102E010220DE010215E
:103820004FF0000A00910BE010224FF0000A44F024
:1038300004040827009203E008224FF0000A0092D7
:10384000C4F30252022A05D059F804CB0021032AFE
:1038500008D009E009F1070121F00702F2E802C1EE
:10386000914605E01FFA8CFC042A01D10CF0FF0CF4
:103870004FF00008220728D5702806D0009B83F05F
:10388000100353EA0A0305D00EE040228DF804200D
:10389000012208E05CEA010206D030228DF8042003
:1038A0008DF8050002229046009B83F0080353EA3E
:1038B0000A030AD15CEA010201D1620705D5302270
:1038C0008DF804204FF001087F1E582804D034A042
:1038D00003900EA802900DE036A0F9E7534660462B
:1038E000009AFCF7CBFE84460398825C0298401E47
:1038F000029002705CEA0100F0D1029806A9081A51
:1039000000F1200A600702D524F4803400E001278A
:10391000574502DDA7EB0A0000E0002000EB0A019A
:10392000009005984144401A0590E00306D45B4698
:103930002146179A059800F0B6F90544002706E0DD
:1039400001A85A46C05D179990476D1C7F1C4745DA
:10395000F6DBE0030CD55B462146179A059800F08C
:10396000A2F9054404E030205A46179990476D1C8F
:103970000099481E00900029F5DC08E002980299A1
:103980005A460078491C0291179990476D1CBAF16C
:103990000001AAF1010AF1DC65E10000092801003B
:1039A00030313233343536373839616263646566B5
:1039B0000000000030313233343536373839414277
:1039C000434445460000000000F05BF90544761CC6
:1039D000307800287FF4ECAD19B0284600F04EB9DD
:1039E000620700D4062709F1070222F0070CFCE861
:1039F0000223E14603F000485FEA080C02D00FF210
:103A0000702C0DE05FEA045C02D50FF2682C07E031
:103A10005FEAC47C02D00FF2602C01E0AFF2700CC0
:103A20004FF0FF3823F00043CDF850C065280CD08C
:103A300006DC452809D046281DD047283DD13DE069
:103A4000662818D067287ED138E00021112F01DBCD
:103A5000112000E0781CCDE9000106A90EA8FFF7AF
:103A6000D9FCDDE90F010E9A03910021009207F1C4
:103A7000010A04914DE04FF000400097CDE901109C
:103A800006A90EA8FFF7C6FCDDE90F0203920E9B04
:103A900011990022DDF80CA00093049211B9791C51
:103AA00000EB010AB7EB0A0004D4C0F1FF3007F1C4
:103AB000010A0490AAEB0700019044E0012F00DA0C
:103AC00001270021112F01DD112000E03846CDE94A
:103AD000000106A90EA8FFF79DFCDDE90F010E9A73
:103AE0000391002104910092BA4621070CD4039956
:103AF000514500DA8A46BAF1010F05DD009AAAF1B4
:103B00000101515C302908D0B84202DA10F1040FEB
:103B100006DA0121CDE9011015E0AAF10101E9E77A
:103B2000002805DC049901440491AAEB000102E09D
:103B3000411C514500DD8A460499401A401C019001
:103B40004FF000400290200704D40198504501DB5B
:103B5000CDF8048000208DF84F0002980DF14F073A
:103B6000B0F1004F25D02B200E9002984FF00208A4
:103B700000280CDA404202902D200E9007E00A2126
:103B80000298FCF765FD3031029007F8011DB8F18D
:103B90000001A8F10108F2DC02980028EFD1791E9B
:103BA0000E980870307800F0200040F0450007F8CB
:103BB000020D12A8C01B00F107081498007800B18C
:103BC000012000EB0A01019801EBE07105984144E6
:103BD000401A401E0590E00306D45B462146179A22
:103BE000059800F060F805441498007818B15A461A
:103BF000179990476D1CE00324D55B462146179A20
:103C0000059800F050F805441CE00498002807DBF4
:103C1000DDE90301884203DD0098405C179901E06B
:103C2000179930205A469047049805F10105401C29
:103C300004900198401E019004D12E205A461799F5
:103C400090476D1CBAF10001AAF1010ADDDC05E024
:103C500017F8010B5A46179990476D1CB8F10001EF
:103C6000A8F10108F4DC5B462146179A0598ABE6FB
:103C70002D0000002B0000002000000030BCBDE83B
:103C8000C08F2DE9F041044600251E4617468804E2
:103C900004D405E039462020B0476D1C641EF9D5D8
:103CA0002846BDE8F0812DE9F041044600251E4676
:103CB0009046C80301D5302700E02027880404D5AA
:103CC00005E041463846B0476D1C641EF9D52846CC
:103CD000BDE8F0810A68531C0B6010707047024603
:103CE000102937D2DFE801F03633311B130A0836CA
:103CF0003432253636121110002070470C2A01D1BB
:103D00000120FAE70020F8E700BF00BF00BF0C2A3F
:103D100001D00B2A01D10120EFE70020EDE70C2AAA
:103D200003D00B2A01D00A2A01D10120E5E70020A7
:103D3000E3E70C2A05D00B2A03D00A2A01D0092A6E
:103D400001D10120D9E70020D7E700BF00BF00BFA5
:103D50000120D2E70020D0E738B504466946204666
:103D600000F004F8684600F0C5FB38BDF8B505461C
:103D70000E463146284602F083FB0446002C15D03F
:103D8000032C13D100BF0AA001F0C4FA0AA001F06D
:103D9000C1FA0BA04FF4C1730E4A0FA1009016A0F8
:103DA00001F0B8FA1BA001F0B5FA00BFF8BD0000A1
:103DB0001B5B303B33316D004552524F523A20006D
:103DC0004C52313158585F5354415455535F45520A
:103DD000524F52009B8B00082E2E5C2E2E5C2E2EF6
:103DE0005C636F6D6D6F6E5C617070735F636F6D40
:103DF0006D6F6E2E63000000496E202573202D200C
:103E0000257320286C696E65202564293A20257366
:103E10000A0000001B5B306D0000000010B503209D
:103E200004F010FD2A4948630021294880F8381021
:103E300080F83910C163052004F004FD24490862AC
:103E40000021234880F82410012180F82510214901
:103E500081620021C162072004F0F4FC1C498860E3
:103E600001211B48017302214173102004F0EAFC78
:103E7000174948610121164801760221417616480A
:103E80001349086001F14402486B383103F06EFEBB
:103E90000F4901F13002086A243103F067FE0C4932
:103EA00001F1100288680C3103F0CAFE084901F1E3
:103EB0001C024869183103F0C3FE0549086B03F082
:103EC000B9FD0349091D081F04F0EEF9004810BDB3
:103ED00054010020297A00080030014010B505483F
:103EE00000688079162804D003498868002103F00F
:103EF000E9FE10BD30000020A801002010B50548E3
:103F000000684079162804D003498868002103F02E
:103F1000D9FE10BD300000209C01002010B50548DE
:103F200000688079162804D003498868012103F0CD
:103F3000C9FE10BD30000020A801002010B50548C2
:103F400000684079162804D003498868012103F0ED
:103F5000B9FE10BD300000209C01002038B5054698
:103F60000C46E548007801287DD10020E249087020
:103F70006946284602F01DFA00BFE0A001F0CAF928
:103F8000E0A001F0C7F9E1A0009901F0C3F9E6A0B3
:103F900001F0C0F900BF00982040009000BFD7A0FA
:103FA00001F0B8F9D7A001F0B5F9E1A0009901F04E
:103FB000B1F9DDA001F0AEF900BF009800F00400F7
:103FC00004280FD100BFCDA001F0A4F9CDA001F0CD
:103FD000A1F9E2A001F09EF9D3A001F09BF900BF86
:103FE00003F06EF9009800F0100010280FD100BF08
:103FF000C2A001F08FF9C3A001F08CF9DAA001F0A2
:1040000089F9C9A001F086F900BF02F085FE009889
:1040100000F0400040280FD100BFD8A001F07AF98D
:10402000D8A001F077F9D9A001F074F9BEA001F091
:1040300071F900BF02F00CFE009800F0200020286B
:104040000FD100BFADA001F065F9AEA001F062F99B
:10405000D2A001F05FF9B4A001F05CF900BF03F059
:10406000F9F8009800E045E100F0080008283CD18C
:10407000009800F08000802810D100BFBFA001F0A0
:1040800049F9C0A001F046F9CBA001F043F9A6A080
:1040900001F040F900BF02F077FF26E0009800F041
:1040A0008070B0F1807F10D100BFB4A001F032F970
:1040B000B4A001F02FF9C3A001F02CF99AA001F0EF
:1040C00029F900BF02F08AFD0FE000BF8BA001F0CC
:1040D00021F98CA001F01EF9BFA001F01BF992A0FC
:1040E00001F018F900BF02F057FF009800F480704B
:1040F000B0F5807F34D100BF80A001F00BF981A022
:1041000001F008F9B7A001F005F987A001F002F964
:1041100000BF009800F40070B0F5007F10D100BF20
:1041200076A001F0F7F877A001F0F4F8B0A001F064
:10413000F1F87DA001F0EEF800BF02F0E7FC0FE01F
:1041400000BF6EA001F0E6F86EA001F0E3F8AFA0AA
:1041500001F0E0F874A001F0DDF800BF02F00AFD04
:10416000009800F48060B0F5806F0FD100BFAFA061
:1041700001F0D0F8AFA001F0CDF8B0A001F0CAF87E
:1041800069A001F0C7F800BF03F05CF8009800F0E8
:104190000060B0F1006F0FD100BF58A001F0BAF875
:1041A00058A001F0B7F8A8A001F0B4F85EA001F0A3
:1041B000B1F800BF02F07CFD009800F48040B0F53B
:1041C000804F0FD100BF4DA001F0A4F84DA001F029
:1041D000A1F8A2A001F09EF853A001F09BF800BF47
:1041E00002F038FE009800F40040B0F5004F0FD107
:1041F00000BF42A001F08EF842A001F08BF89DA014
:1042000001F088F848A001F085F800BF02F0ECFD4D
:10421000009800F48030B0F5803F0FD100BF37A088
:1042200001F078F837A001F075F899A001F072F864
:104230003DA001F06FF800BF02F040FE009800F4CE
:104240000030B0F5003F0FD100BF2CA001F062F8A4
:104250002CA001F05FF894A001F05CF832A001F00E
:1042600059F800BF02F08CFD009800F48020B0F5F2
:10427000802F0FD100BF21A001F04CF821A001F048
:1042800049F88FA001F046F827A001F043F800BFDD
:1042900002F048FE009800F48010B0F5801F0FD1A6
:1042A00000BF16A001F036F816A001F033F888A080
:1042B00001F030F81CA001F02DF800BF03F09EF8CB
:1042C000009800F40020B0F5002F0FD100BF0BA024
:1042D00001F020F80BA001F01DF882A001F01AF8FF
:1042E00011A001F017F800BF02F080FC0DA001F052
:1042F00011F800BF38BD00002C0000201B5B303BD4
:1043000033326D00494E464F3A200000496E7465C5
:10431000727275707420666C616773203D2030780E
:10432000253038580A0000001B5B306D000000008B
:10433000496E7465727275707420666C6167732063
:104340002861667465722066696C746572696E674F
:1043500029203D203078253038580A0054782064D0
:104360006F6E650A00000000507265616D626C65D9
:104370002064657465637465640A00001B5B303BF0
:1043800033316D004552524F523A20004865616406
:104390006572206572726F720A00000053796E6355
:1043A000776F7264206F7220686561646572207631
:1043B000616C69640A000000435243206572726FA9
:1043C000720A000046534B206C656E677468206566
:1043D00072726F720A000000527820646F6E650A74
:1043E0000000000043414420646F6E650A00000035
:1043F0004368616E6E656C20616374697669747977
:104400002064657465637465640A00004E6F206300
:1044100068616E6E656C2061637469766974792079
:1044200064657465637465640A0000001B5B303B5F
:1044300033336D005741524E3A20000052782074B9
:10444000696D656F75740A004C6F52612052782057
:1044500074696D657374616D700A00005254546F15
:104460004620726571756573742076616C69640AA3
:10447000000000005254546F4620726571756573D8
:1044800074206469736361726465640A00000000EB
:104490005254546F4620726573706F6E736520645A
:1044A0006F6E650A000000005254546F4620657814
:1044B0006368616E67652076616C69640A0000005C
:1044C0005254546F462074696D656F75740A00000C
:1044D00057692D4669207363616E20646F6E650AAB
:1044E00000000000474E5353207363616E20646FD9
:1044F0006E650A0010B5044600BF43A000F00AFF35
:1045000043A000F007FF44A000F004FF48A000F023
:1045100001FF00BF00BF3CA000F0FCFE3CA000F08B
:10452000F9FE618844A000F0F5FE41A000F0F2FE23
:1045300000BF00BF34A000F0EDFE35A000F0EAFEA1
:10454000217843A000F0E6FE39A000F0E3FE00BFB2
:1045500000BF2DA000F0DEFE2DA000F0DBFE617894
:10456000414800F0D7FE32A000F0D4FE00BF6078D2
:10457000012815D1608840F20141884210D000BF67
:104580003AA000F0C7FE3BA000F0C4FE618840F2F4
:1045900001423A4800F0BEFE25A000F0BBFE00BF7D
:1045A0006078022814D1608840F2012188420FD03F
:1045B00000BF2EA000F0AEFE2EA000F0ABFE40F239
:1045C00001212FA000F0A6FE19A000F0A3FE00BF5D
:1045D0006078032814D1608840F2031188420FD01C
:1045E00000BF22A000F096FE22A000F093FE40F251
:1045F000031132A000F08EFE0DA000F08BFE00BF74
:104600003DA000F087FE10BD1B5B303B33326D00D8
:10461000494E464F3A2000004C523131787820699B
:104620006E666F726D6174696F6E3A0A0000000009
:104630001B5B306D0000000020202D204669726D4C
:1046400077617265203D203078253034580A0000AB
:1046500020202D204861726477617265203D2030F2
:1046600078253032580A00002C9200081B5B303B42
:1046700033336D005741524E3A20000078920008C3
:104680004C523131323020646F65736E277420755F
:104690007365206C6174657374206669726D7761EF
:1046A00072652076657273696F6E207768696368DA
:1046B000206973203078253032580A004C5231314D
:1046C000323120646F65736E277420757365206CBA
:1046D0006174657374206669726D776172652076A6
:1046E000657273696F6E20776869636820697320EB
:1046F0003078253032580A000A000000FEB5064620
:10470000CB48007842B2CB480168CB4804F070F83F
:1047100005467DB900BFC9A000F0FCFDC9A000F0AE
:10472000F9FDCAA000F0F6FDD3A000F0F3FD00BF34
:1047300000BFFEE72868019028798DF80800D0486E
:104740000068B0F57A7F04D0CD4908788DF807006D
:1047500000BFCC480068B0F57A7F04D0C94908781A
:104760008DF8050000BFC8480068B0F57A7F04D016
:10477000C54908788DF8080000BFC2480068B0F548
:104780007A7F06D0BF490878C0490A788DF806209C
:1047900000BFBF480068B0F57A7F05D0BC490978F2
:1047A00048B28DF8040000BF02F0BAFE0221304684
:1047B00001F0D2FB0446002C15D0032C13D100BF0E
:1047C0009EA000F0A7FD9FA000F0A4FDB1A040F2C4
:1047D0001923B54AB5A10090BCA000F09BFDA6A08E
:1047E00000F098FD00BF93480168304601F0C8FB17
:1047F0000446002C15D0032C13D100BF8FA000F06D
:1048000089FD90A000F086FDA2A040F21B23A64ADD
:10481000A6A10090ADA000F07DFD97A000F07AFD6C
:1048200000BF84480168844803F0EBFF074639461F
:10483000304601F0C5FB0446002C15D0032C13D1E3
:1048400000BF7EA000F066FD7EA000F063FD91A099
:1048500040F21D23944A95A100909CA000F05AFDBF
:1048600085A000F057FD00BF0DF10501304601F0B5
:1048700053FB0446002C15D0032C13D100BF6FA0AE
:1048800000F048FD6FA000F045FD82A04FF40873D2
:10489000854A86A100908DA000F03CFD76A000F036
:1048A00039FD00BF9DF904100222304601F06EFC74
:1048B0000446002C15D0032C13D100BF5FA000F0DC
:1048C00029FD60A000F026FD72A040F22123764A67
:1048D00076A100907DA000F01DFD67A000F01AFDFC
:1048E00000BF0121304601F0DFFB0446ACB1032CD0
:1048F00013D100BF51A000F00DFD52A000F00AFD41
:1049000064A040F22223684A68A100906FA000F0E2
:1049100001FD59A000F0FEFC00BF7348006808B11B
:10492000012000E000200146304600F0A7FD0446CB
:10493000ACB1032C13D100BF40A000F0EBFC41A0B0
:1049400000F0E8FC53A040F22323574A57A10090FF
:104950005EA000F0DFFC48A000F0DCFC00BF02F02D
:10496000E5FE624800786249087062480078487045
:104970006148007888705F4A11785C4A1078FFF7C8
:10498000AEF95B49C870304601F06AFA0446ACB132
:10499000032C13D100BF29A000F0BCFC29A000F01B
:1049A000B9FC3CA04FF40B733F4A40A1009047A0D4
:1049B00000F0B0FC30A000F0ADFC00BF4F49304625
:1049C00001F06EFA0446ACB1032C13D100BF1BA05A
:1049D00000F0A0FC1BA000F09DFC2EA040F22D23B7
:1049E000314A32A1009039A000F094FC22A000F0DE
:1049F00091FC00BF1221304601F07AFA0446ACB1B6
:104A0000032C13D100BF0DA000F084FC0DA000F01A
:104A100081FC20A040F22E23234A24A100902BA049
:104A200000F078FC14A000F075FC00BFFEBD000093
:104A30000401002008010020000000201B5B303B27
:104A400033316D004552524F523A2000496E766123
:104A50006C69642074617267657420667265717533
:104A6000656E6379206F7220706F776572206C6558
:104A700076656C0A000000001B5B306D00000000D2
:104A8000340100202C0100203C01002030010020D6
:104A9000380100204C52313158585F53544154551D
:104AA000535F4552524F5200BC8B00082E2E5C2E95
:104AB0002E5C2E2E5C636F6D6D6F6E5C617070731B
:104AC0005F636F6D6D6F6E2E63000000496E202571
:104AD00073202D20257320286C696E65202564299C
:104AE0003A2025730A000000240100201001002054
:104AF000200000201401002018010020548B000821
:104B00002DE9FC4180460E4617461C4600BF4FA0CB
:104B100000F000FC4FA000F0FDFB50A000F0FAFBFD
:104B200058A000F0F7FB00BF01A9404600F0A0FE2E
:104B30009DF8040020702078B84211DD00BF53A01A
:104B400000F0E8FB53A000F0E5FB21783A4653481B
:104B500000F0E0FB4BA000F0DDFB00BFBDE8FC81F6
:104B60009DF804309DF805203146404601F05EFB7B
:104B700000BF22784AA14EA000F0CCFB00250BE03C
:104B800005F00F0018B915B14EA000F0C3FB715D20
:104B90004DA000F0BFFB6D1C2078A842F0D849A0C2
:104BA00000F0B8FB00BF00BF28A000F0B3FB29A0B5
:104BB00000F0B0FB46A000F0ADFB32A000F0AAFB75
:104BC00000BF6946404600F039FD00BF1FA000F05D
:104BD000A1FB20A000F09EFB9DF9001040A000F07A
:104BE00099FB28A000F096FB00BF00BF17A000F0C3
:104BF00091FB18A000F08EFB9DF902103FA000F081
:104C000089FB20A000F086FB00BF00BF0FA000F0D2
:104C100081FB10A000F07EFB9DF9011040A000F088
:104C200079FB18A000F076FB00BF00BF07A000F0E2
:104C300071FB08A000F06EFB3FA000F06BFB11A021
:104C400000F068FB00BF00BF88E700001B5B303B43
:104C500033326D00494E464F3A200000456E746570
:104C600072696E6720617070735F636F6D6D6F6ED8
:104C70005F6C72313178785F726563656976650A59
:104C8000000000001B5B306D000000001B5B303B30
:104C900033316D004552524F523A2000E8910008DE
:104CA0005061636B657420636F6E74656E74000091
:104CB0002573202D2028256C752062797465732951
:104CC0003A0A00000A000000202530325800000097
:104CD0005061636B6574207374617475733A0A0074
:104CE00020202D2052535349207061636B6574203E
:104CF0003D2025692064426D0A00000020202D20FF
:104D00005369676E616C2052535349207061636B25
:104D10006574203D2025692064426D0A0000000072
:104D200020202D20534E52207061636B6574203D0E
:104D30002025692064420A0045786974696E6720FD
:104D4000617070735F636F6D6D6F6E5F6C72313128
:104D500078785F726563656976650A002DE9FC47BE
:104D60008146484601F0B0FB8046B8F1000F16D0EE
:104D7000B8F1030F13D100BFA2A000F0CBFAA3A09B
:104D800000F0C8FAA3A040F25D13A74AA7A10090C3
:104D9000AEA000F0BFFAB4A000F0BCFA00BF00BFA4
:104DA000B349C868804706463146484601F0F2FBE1
:104DB0008046B8F1000F16D0B8F1030F13D100BF31
:104DC00090A000F0A7FA91A000F0A4FA91A040F200
:104DD0006113954A95A100909CA000F09BFAA2A0B7
:104DE00000F098FA00BF00BFA149886880470746D5
:104DF0003946484601F06EFB8046B8F1000F16D0E8
:104E0000B8F1030F13D100BF7EA000F083FA7FA09A
:104E100000F080FA7FA04FF4B273834A83A1009020
:104E20008AA000F077FA90A000F074FA00BF00BFEB
:104E30008F4908698047044600BF2078012820D1A7
:104E400061784846626801F0E5FB8046B8F1000FE2
:104E500016D0B8F1030F13D100BF6AA000F05AFAC0
:104E60006AA000F057FA6BA040F269136E4A6FA176
:104E7000009076A000F04EFA7BA000F04BFA00BF45
:104E800000BF00BF7A494869804705466A7829789B
:104E9000484601F037FA8046B8F1000F16D0B8F155
:104EA000030F13D100BF57A000F034FA57A000F051
:104EB00031FA58A040F26D135B4A5CA1009063A0E8
:104EC00000F028FA68A000F025FA00BF484601F07B
:104ED0002FFA8046B8F1000F16D0B8F1030F13D1A6
:104EE00000BF48A000F016FA48A000F013FA49A04D
:104EF00040F26F134C4A4DA1009054A000F00AFA02
:104F000059A000F007FA00BF3F21484601F0E6F93A
:104F10008046B8F1000F16D0B8F1030F13D100BFCF
:104F200038A000F0F7F939A000F0F4F939A04FF4F7
:104F3000B8733D4A3DA1009044A000F0EBF94AA0AF
:104F400000F0E8F900BF01A9484601F04DFA80469B
:104F5000B8F1000F16D0B8F1030F13D100BF29A08C
:104F600000F0D8F929A000F0D5F92AA040F2731377
:104F70002D4A2EA1009035A000F0CCF93AA000F007
:104F8000C9F900BF484601F0D3F98046B8F1000FD7
:104F900016D0B8F1030F13D100BF1AA000F0BAF970
:104FA0001AA000F0B7F91BA04FF4BA731E4A1FA154
:104FB000009026A000F0AEF92BA000F0ABF900BFE6
:104FC0002C49484601F0C4F98046B8F1000F16D0CC
:104FD000B8F1030F13D100BF0AA000F09BF90BA09A
:104FE00000F098F90BA040F275130F4A0FA1009042
:104FF00016A000F08FF91CA000F08CF900BF00F0A3
:105000003BB800001B5B303B33316D004552524FC3
:10501000523A20004C52313158585F535441545544
:10502000535F4552524F52007C8B00082E2E5C2E4F
:105030002E5C2E2E5C636F6D6D6F6E5C6170707395
:105040005F636F6D6D6F6E2E63000000496E2025EB
:1050500073202D20257320286C696E652025642916
:105060003A2025730A0000001B5B306D0000000031
:1050700000000020FCCFFF0B0CBCBDE8F087000057
:1050800010B500F0DBF802F023FB00BF06A000F033
:1050900041F907A000F03EF907A000F03BF907A096
:1050A00000F038F900BF10BD1B5B303B33326D00A0
:1050B000494E464F3A2000000A0000001B5B306D4D
:1050C0000000000010B500BF3249886980473249AE
:1050D0000860084600684079162811D009684879A8
:1050E00003F0B0FB2D4908600020087102212B4815
:1050F0004171014601F108020868091D02F0A0FD96
:10510000254800688079162812D0234909688879D3
:1051100003F098FB22490860002008710221204812
:105120004171014601F108020868091D02F088FD7D
:1051300019480068C079162812D017490968C8793B
:1051400003F080FB17490860002008710221154810
:105150004171014601F108020868091D02F070FD65
:105160000D4800680079162812D00B4909680879A3
:1051700003F068FB0C4908600020087102210A480E
:105180004171014601F108020868091D02F058FD4D
:1051900010BD000000000020300000209C01002015
:1051A000A8010020B4010020C001002010B5044671
:1051B00000BF0EA000F0AEF80EA000F0ABF8214644
:1051C0000EA000F0A7F813A000F0A4F800BF00BFE5
:1051D00006A000F09FF807A000F09CF80FA000F0D8
:1051E00099F80CA000F096F800BF10BD1B5B303B97
:1051F00033326D00494E464F3A20000041542B5047
:1052000045522072656365697665643A2025730AA4
:10521000000000001B5B306D0000000052657365EC
:105220007474696E6720504552206D6561737572A4
:10523000656D656E742E2E2E0A00000010B500BF3D
:1052400007A000F067F808A000F064F808480168BB
:1052500008A000F05FF80CA000F05CF800BF10BDE3
:105260001B5B303B33326D00494E464F3A20000005
:105270003400002053444B2076657273696F6E3A98
:105280002025730A000000001B5B306D0000000049
:1052900010B5002821D0114B0022001F196803E02F
:1052A000814203D80A4649680029F9D152B11368EE
:1052B000841A9C4204D1006818441060104602E031
:1052C000506000E0186039B102680B1A934203D1B4
:1052D0000B681A4402604968416010BD4801002013
:1052E00010B50220012806D0022809D10549064838
:1052F00000F0CCF910BD0549054800F01FF9F9E7A9
:105300000020F7E720000020548B00085C8B000889
:10531000688B00080FB408B503A8009000990298A4
:1053200003F0FCFB0020009001B05DF814FB0000CE
:1053300000A0704776322E342E3100002DE9F04166
:1053400004460E4617462546284600F05BF8002125
:10535000286902F0B7FC3B4632460021686803F03A
:105360002FF80121286902F0ADFC0020BDE8F08192
:105370002DE9FC470446884616461F46DDF828906E
:105380002546002001900090284600F03BF80021BF
:10539000286902F097FC334600224146686803F012
:1053A0000FF80121286902F08DFC284600F02AF848
:1053B0000021286902F086FC01236A4601A9686879
:1053C00002F0FEFF4B463A460021686802F0F8FF03
:1053D0000121286902F076FC002000F000B80CBC26
:1053E000BDE8F08770B5044625460021E86902F063
:1053F00069FC0120FDF769FE0121E86902F062FC09
:10540000002070BD38B50446254600BF6946686C6B
:1054100002F066FB9DF800000128F7D038BD2DE9A9
:10542000F0470446884616461F46DDF8209025467C
:105430002846FFF7E7FF0021286902F043FC3346C6
:1054400000224146686802F0BBFF4B460022394605
:10545000686802F0B5FF0121286902F033FC0020E2
:10546000BDE8F08710B5044600234FF080420249A2
:10547000204600F005FF10BD5400F3007CB5054642
:105480000C4607A0006801908DF8064000200346F6
:10549000032201A900902846FFF7C1FF7CBD000050
:1054A000022700000146C8034FF47A72B0FBF2F005
:1054B000704700000146012904D0022904D00329C5
:1054C00006D103E003A070470AA0FCE712A0FAE7A8
:1054D00018A0F8E74C52313158585F524144494FB7
:1054E0005F46414C4C4241434B5F53544442595FE9
:1054F000524300004C52313158585F524144494F99
:105500005F46414C4C4241434B5F53544442595FC8
:10551000584F5343000000004C52313158585F52ED
:105520004144494F5F46414C4C4241434B5F4653D7
:1055300000000000556E6B6E6F776E00F0B506468A
:105540000C46304600F00AF84FF47A7100FB01F780
:1055500025687819401EB0FBF5F0F0BD10B5014686
:10556000487920B1012804D0022806D103E00022A6
:1055700005E0082203E0092201E0002010BD00BF81
:10558000C87907280FD2DFE800F00604080E0A0EDB
:105590000C00002308E0012306E0022304E00123BD
:1055A00002E0022300E0002388790C790CB1012489
:1055B00000E00024204418440B881344CC78234492
:1055C00003EBC000DAE7000001460020102927D2D3
:1055D000DFE801F0260B11171A1C1E26080E1426F0
:1055E0002620222442F6B1001AE043F6095017E0C3
:1055F00045F2611014E047F6122011E04AF2C32090
:105600000EE04FF224400BE0064809E0064807E0B0
:10561000064805E0064803E0064801E0064800BFEA
:1056200000BF704748E8010090D0030020A10700A8
:10563000F8180300F0310600E0630C00FEB50646E2
:105640000C4611A00068029000200190032001ABDD
:10565000022202A900903046FFF78AFE05468DB966
:105660009DF804004010404240B220709DF80500B3
:1056700040B2801C801060709DF8060040104042CF
:1056800040B2A0702846FEBD02040000F0B50646F8
:105690000C462146304600F00DF84FF47A7100FBBD
:1056A00001F76078FFF790FF05467819401EB0FBC0
:1056B000F5F0F0BD2DE9F04F88B0804698F8030072
:1056C00007900E7898F80200012800D100E0002031
:1056D0000690062E01DC012000E0002007468878B5
:1056E000042801DD012000E00020059098F8040066
:1056F000012802D14FF0020A01E04FF0000A07989A
:105700000AEB0002C87808B1012000E000204FF049
:10571000020A0AFB1064059800286BD04FF0040AB7
:10572000CDF808A091F802A0BAF1070F02D14FF00E
:10573000010B01E04FF0000B0AEB0B00DDF818A0A5
:10574000BAF1000F31D0A6F1020A4FF0020B0BFBA9
:1057500007AACDF804A04FEAC20A0AFB00FADDF856
:1057600004B0CBEBCB0B4FEA8B0BDA4508DC4FEAEE
:10577000C20A0AFB00F9DDF804A04FEA8A0513E02B
:10578000DDF804A04FEACA0ACDF800A04FEA441A97
:105790004FEAC20B0BFB00AB4FF0040EDDF800A08C
:1057A0000EFB1AB9A50000BF23E04FEA860A0AEBF8
:1057B000C70AAAF11C0A2AF007034FEAC20A9A454F
:1057C00009DDDDF81CA04FEACA0A9A4503DADDF8C4
:1057D0001CA04FEACA03C3EBC20CBCF1000F01DAF4
:1057E0004FF0000C0CFB00FA4FF0200B0BFB04A950
:1057F000A50010E0B00000EBC700A0F10803069878
:1058000000B9143BC3EBC20CBCF1000F01DA4FF03E
:10581000000CE146A50009EB0500401E90FBF5F0E9
:105820000390059838B98878001DDDF80CA000FBBE
:105830000AF008300390B8F80000001D4FF0020A8B
:105840000AFB070A03985044049004988000401C07
:10585000A6F1020A4FF0010B0BFA0AFB00FB0BF05A
:10586000401E08B000F000B830BCBDE8C08F00009A
:10587000FEB506460C460BA0006802900020019081
:10588000022001AB024602A900903046FFF770FDEE
:1058900005462DB99DF8040020709DF80500607044
:1058A0002846FEBD020300000146102921D2DFE890
:1058B00001F0200A0E1214161820080C1020201ACD
:1058C0001C1E0DA0704712A0FCE717A0FAE71CA051
:1058D000F8E721A0F6E726A0F4E72BA0F2E731A035
:1058E000F0E737A0EEE73DA0ECE743A0EAE749A0E8
:1058F000E8E74FA0E6E700004C52313158585F52BC
:105900004144494F5F4C4F52415F42575F31300035
:105910004C52313158585F524144494F5F4C4F52BD
:10592000415F42575F3135004C52313158585F5218
:105930004144494F5F4C4F52415F42575F32300004
:105940004C52313158585F524144494F5F4C4F528D
:10595000415F42575F3331004C52313158585F52EA
:105960004144494F5F4C4F52415F42575F343100D1
:105970004C52313158585F524144494F5F4C4F525D
:10598000415F42575F3632004C52313158585F52B6
:105990004144494F5F4C4F52415F42575F3132356E
:1059A000000000004C52313158585F524144494F79
:1059B0005F4C4F52415F42575F323530000000006C
:1059C0004C52313158585F524144494F5F4C4F520D
:1059D000415F42575F353030000000004C5231319A
:1059E00058585F524144494F5F4C4F52415F4257B4
:1059F0005F323030000000004C52313158585F5255
:105A00004144494F5F4C4F52415F42575F34303001
:105A1000000000004C52313158585F524144494F08
:105A20005F4C4F52415F42575F38303000000000FA
:105A3000556E6B6E6F776E000146082915D2DFE850
:105A400001F00406080A0C0E101209A070470EA0FF
:105A5000FCE714A0FAE71AA0F8E720A0F6E726A0D2
:105A6000F4E72CA0F2E732A0F0E738A0EEE7000060
:105A70004C52313158585F524144494F5F4C4F525C
:105A8000415F4E4F5F4352004C52313158585F5284
:105A90004144494F5F4C4F52415F43525F345F3541
:105AA000000000004C52313158585F524144494F78
:105AB0005F4C4F52415F43525F345F36000000003D
:105AC0004C52313158585F524144494F5F4C4F520C
:105AD000415F43525F345F37000000004C52313168
